{
  "_format": "hh-sol-artifact-1",
  "contractName": "ILOVENTHU",
  "sourceName": "contracts/nthu_nft.sol",
  "abi": [
    {
      "inputs": [],
      "stateMutability": "nonpayable",
      "type": "constructor"
    },
    {
      "anonymous": false,
      "inputs": [
        {
          "indexed": true,
          "internalType": "address",
          "name": "owner",
          "type": "address"
        },
        {
          "indexed": true,
          "internalType": "address",
          "name": "approved",
          "type": "address"
        },
        {
          "indexed": true,
          "internalType": "uint256",
          "name": "tokenId",
          "type": "uint256"
        }
      ],
      "name": "Approval",
      "type": "event"
    },
    {
      "anonymous": false,
      "inputs": [
        {
          "indexed": true,
          "internalType": "address",
          "name": "owner",
          "type": "address"
        },
        {
          "indexed": true,
          "internalType": "address",
          "name": "operator",
          "type": "address"
        },
        {
          "indexed": false,
          "internalType": "bool",
          "name": "approved",
          "type": "bool"
        }
      ],
      "name": "ApprovalForAll",
      "type": "event"
    },
    {
      "anonymous": false,
      "inputs": [
        {
          "indexed": false,
          "internalType": "address",
          "name": "sender",
          "type": "address"
        },
        {
          "indexed": false,
          "internalType": "uint256",
          "name": "tokenId",
          "type": "uint256"
        }
      ],
      "name": "NTHUNFTMinted",
      "type": "event"
    },
    {
      "anonymous": false,
      "inputs": [
        {
          "indexed": true,
          "internalType": "address",
          "name": "from",
          "type": "address"
        },
        {
          "indexed": true,
          "internalType": "address",
          "name": "to",
          "type": "address"
        },
        {
          "indexed": true,
          "internalType": "uint256",
          "name": "tokenId",
          "type": "uint256"
        }
      ],
      "name": "Transfer",
      "type": "event"
    },
    {
      "inputs": [
        {
          "internalType": "address",
          "name": "to",
          "type": "address"
        },
        {
          "internalType": "uint256",
          "name": "tokenId",
          "type": "uint256"
        }
      ],
      "name": "approve",
      "outputs": [],
      "stateMutability": "nonpayable",
      "type": "function"
    },
    {
      "inputs": [
        {
          "internalType": "address",
          "name": "owner",
          "type": "address"
        }
      ],
      "name": "balanceOf",
      "outputs": [
        {
          "internalType": "uint256",
          "name": "",
          "type": "uint256"
        }
      ],
      "stateMutability": "view",
      "type": "function"
    },
    {
      "inputs": [
        {
          "internalType": "uint256",
          "name": "tokenId",
          "type": "uint256"
        }
      ],
      "name": "getApproved",
      "outputs": [
        {
          "internalType": "address",
          "name": "",
          "type": "address"
        }
      ],
      "stateMutability": "view",
      "type": "function"
    },
    {
      "inputs": [
        {
          "internalType": "address",
          "name": "owner",
          "type": "address"
        },
        {
          "internalType": "address",
          "name": "operator",
          "type": "address"
        }
      ],
      "name": "isApprovedForAll",
      "outputs": [
        {
          "internalType": "bool",
          "name": "",
          "type": "bool"
        }
      ],
      "stateMutability": "view",
      "type": "function"
    },
    {
      "inputs": [],
      "name": "makeAnEpicNTHUNFT",
      "outputs": [],
      "stateMutability": "nonpayable",
      "type": "function"
    },
    {
      "inputs": [],
      "name": "name",
      "outputs": [
        {
          "internalType": "string",
          "name": "",
          "type": "string"
        }
      ],
      "stateMutability": "view",
      "type": "function"
    },
    {
      "inputs": [
        {
          "internalType": "uint256",
          "name": "tokenId",
          "type": "uint256"
        }
      ],
      "name": "ownerOf",
      "outputs": [
        {
          "internalType": "address",
          "name": "",
          "type": "address"
        }
      ],
      "stateMutability": "view",
      "type": "function"
    },
    {
      "inputs": [
        {
          "internalType": "uint256",
          "name": "tokenId",
          "type": "uint256"
        }
      ],
      "name": "pickRandomColor",
      "outputs": [
        {
          "internalType": "string",
          "name": "",
          "type": "string"
        }
      ],
      "stateMutability": "view",
      "type": "function"
    },
    {
      "inputs": [
        {
          "internalType": "uint256",
          "name": "tokenId",
          "type": "uint256"
        }
      ],
      "name": "pickRandomFirstWord",
      "outputs": [
        {
          "internalType": "string",
          "name": "",
          "type": "string"
        }
      ],
      "stateMutability": "view",
      "type": "function"
    },
    {
      "inputs": [
        {
          "internalType": "uint256",
          "name": "tokenId",
          "type": "uint256"
        }
      ],
      "name": "pickRandomSecondWord",
      "outputs": [
        {
          "internalType": "string",
          "name": "",
          "type": "string"
        }
      ],
      "stateMutability": "view",
      "type": "function"
    },
    {
      "inputs": [
        {
          "internalType": "uint256",
          "name": "tokenId",
          "type": "uint256"
        }
      ],
      "name": "pickRandomThirdWord",
      "outputs": [
        {
          "internalType": "string",
          "name": "",
          "type": "string"
        }
      ],
      "stateMutability": "view",
      "type": "function"
    },
    {
      "inputs": [
        {
          "internalType": "address",
          "name": "from",
          "type": "address"
        },
        {
          "internalType": "address",
          "name": "to",
          "type": "address"
        },
        {
          "internalType": "uint256",
          "name": "tokenId",
          "type": "uint256"
        }
      ],
      "name": "safeTransferFrom",
      "outputs": [],
      "stateMutability": "nonpayable",
      "type": "function"
    },
    {
      "inputs": [
        {
          "internalType": "address",
          "name": "from",
          "type": "address"
        },
        {
          "internalType": "address",
          "name": "to",
          "type": "address"
        },
        {
          "internalType": "uint256",
          "name": "tokenId",
          "type": "uint256"
        },
        {
          "internalType": "bytes",
          "name": "_data",
          "type": "bytes"
        }
      ],
      "name": "safeTransferFrom",
      "outputs": [],
      "stateMutability": "nonpayable",
      "type": "function"
    },
    {
      "inputs": [
        {
          "internalType": "address",
          "name": "operator",
          "type": "address"
        },
        {
          "internalType": "bool",
          "name": "approved",
          "type": "bool"
        }
      ],
      "name": "setApprovalForAll",
      "outputs": [],
      "stateMutability": "nonpayable",
      "type": "function"
    },
    {
      "inputs": [
        {
          "internalType": "bytes4",
          "name": "interfaceId",
          "type": "bytes4"
        }
      ],
      "name": "supportsInterface",
      "outputs": [
        {
          "internalType": "bool",
          "name": "",
          "type": "bool"
        }
      ],
      "stateMutability": "view",
      "type": "function"
    },
    {
      "inputs": [],
      "name": "symbol",
      "outputs": [
        {
          "internalType": "string",
          "name": "",
          "type": "string"
        }
      ],
      "stateMutability": "view",
      "type": "function"
    },
    {
      "inputs": [
        {
          "internalType": "uint256",
          "name": "tokenId",
          "type": "uint256"
        }
      ],
      "name": "tokenURI",
      "outputs": [
        {
          "internalType": "string",
          "name": "",
          "type": "string"
        }
      ],
      "stateMutability": "view",
      "type": "function"
    },
    {
      "inputs": [
        {
          "internalType": "address",
          "name": "from",
          "type": "address"
        },
        {
          "internalType": "address",
          "name": "to",
          "type": "address"
        },
        {
          "internalType": "uint256",
          "name": "tokenId",
          "type": "uint256"
        }
      ],
      "name": "transferFrom",
      "outputs": [],
      "stateMutability": "nonpayable",
      "type": "function"
    }
  ],
  "bytecode": "0x608060405260405180610100016040528060d38152602001620046a760d3913960089080519060200190620000369291906200082c565b506040518060800160405280605681526020016200477a6056913960099080519060200190620000689291906200082c565b506040518060c001604052806040518060400160405280600481526020017f6678786b0000000000000000000000000000000000000000000000000000000081525081526020016040518060400160405280600481526020017f7375703f0000000000000000000000000000000000000000000000000000000081525081526020016040518060400160405280600581526020017f68656c6c6f00000000000000000000000000000000000000000000000000000081525081526020016040518060400160405280600481526020017f686f6c610000000000000000000000000000000000000000000000000000000081525081526020016040518060400160405280600581526020017f6c6567697400000000000000000000000000000000000000000000000000000081525081526020016040518060400160405280600481526020017f64616e6700000000000000000000000000000000000000000000000000000000815250815250600a906006620001e6929190620008bd565b506040518060c001604052806040518060400160405280600581526020017f20504d452000000000000000000000000000000000000000000000000000000081525081526020016040518060400160405280600581526020017f204348452000000000000000000000000000000000000000000000000000000081525081526020016040518060400160405280600481526020017f20434c200000000000000000000000000000000000000000000000000000000081525081526020016040518060400160405280600481526020017f204545200000000000000000000000000000000000000000000000000000000081525081526020016040518060400160405280600581526020017f204553532000000000000000000000000000000000000000000000000000000081525081526020016040518060400160405280600481526020017f204c532000000000000000000000000000000000000000000000000000000000815250815250600b90600662000364929190620008bd565b506040518060c001604052806040518060400160405280600481526020017ff09f96950000000000000000000000000000000000000000000000000000000081525081526020016040518060400160405280600881526020017ff09f9695f09f8fbf00000000000000000000000000000000000000000000000081525081526020016040518060400160405280600881526020017ff09f9695f09f8fbc00000000000000000000000000000000000000000000000081525081526020016040518060400160405280600881526020017ff09f9695f09f8fbb00000000000000000000000000000000000000000000000081525081526020016040518060400160405280600881526020017ff09f9695f09f8fbe00000000000000000000000000000000000000000000000081525081526020016040518060400160405280600881526020017ff09f9695f09f8fbd000000000000000000000000000000000000000000000000815250815250600c906006620004e2929190620008bd565b506040518060c001604052806040518060400160405280600381526020017f726564000000000000000000000000000000000000000000000000000000000081525081526020016040518060400160405280600781526020017f233038433241380000000000000000000000000000000000000000000000000081525081526020016040518060400160405280600581526020017f626c61636b00000000000000000000000000000000000000000000000000000081525081526020016040518060400160405280600681526020017f79656c6c6f77000000000000000000000000000000000000000000000000000081525081526020016040518060400160405280600481526020017f626c75650000000000000000000000000000000000000000000000000000000081525081526020016040518060400160405280600581526020017f677265656e000000000000000000000000000000000000000000000000000000815250815250600d90600662000660929190620008bd565b503480156200066e57600080fd5b506040518060400160405280600981526020017f494c4f56454e54485500000000000000000000000000000000000000000000008152506040518060400160405280600481526020017f4e544855000000000000000000000000000000000000000000000000000000008152508160009080519060200190620006f39291906200082c565b5080600190805190602001906200070c9291906200082c565b5050506200075a6040518060400160405280601e81526020017f54686973206973206d79204e465420636f6e74726163742e20576f61682100008152506200076060201b620011b51760201c565b62000add565b620008008160405160240162000777919062000a55565b6040516020818303038152906040527f41304fac000000000000000000000000000000000000000000000000000000007bffffffffffffffffffffffffffffffffffffffffffffffffffffffff19166020820180517bffffffffffffffffffffffffffffffffffffffffffffffffffffffff83818316178352505050506200080360201b60201c565b50565b60008151905060006a636f6e736f6c652e6c6f679050602083016000808483855afa5050505050565b8280546200083a9062000aa8565b90600052602060002090601f0160209004810192826200085e5760008555620008aa565b82601f106200087957805160ff1916838001178555620008aa565b82800160010185558215620008aa579182015b82811115620008a95782518255916020019190600101906200088c565b5b509050620008b9919062000924565b5090565b82805482825590600052602060002090810192821562000911579160200282015b8281111562000910578251829080519060200190620008ff9291906200082c565b5091602001919060010190620008de565b5b50905062000920919062000943565b5090565b5b808211156200093f57600081600090555060010162000925565b5090565b5b808211156200096757600081816200095d91906200096b565b5060010162000944565b5090565b508054620009799062000aa8565b6000825580601f106200098d5750620009ae565b601f016020900490600052602060002090810190620009ad919062000924565b5b50565b600081519050919050565b600082825260208201905092915050565b60005b83811015620009ed578082015181840152602081019050620009d0565b83811115620009fd576000848401525b50505050565b6000601f19601f8301169050919050565b600062000a2182620009b1565b62000a2d8185620009bc565b935062000a3f818560208601620009cd565b62000a4a8162000a03565b840191505092915050565b6000602082019050818103600083015262000a71818462000a14565b905092915050565b7f4e487b7100000000000000000000000000000000000000000000000000000000600052602260045260246000fd5b6000600282049050600182168062000ac157607f821691505b60208210810362000ad75762000ad662000a79565b5b50919050565b613bba8062000aed6000396000f3fe608060405234801561001057600080fd5b50600436106101165760003560e01c806364c3a477116100a2578063b187301f11610071578063b187301f146102f1578063b88d4fde14610321578063c575757a1461033d578063c87b56dd1461036d578063e985e9c51461039d57610116565b806364c3a4771461027d57806370a082311461028757806395d89b41146102b7578063a22cb465146102d557610116565b806323b872dd116100e957806323b872dd146101b55780632de38d68146101d157806342842e0e14610201578063514dc8c61461021d5780636352211e1461024d57610116565b806301ffc9a71461011b57806306fdde031461014b578063081812fc14610169578063095ea7b314610199575b600080fd5b6101356004803603810190610130919061232f565b6103cd565b6040516101429190612377565b60405180910390f35b6101536104af565b604051610160919061242b565b60405180910390f35b610183600480360381019061017e9190612483565b610541565b60405161019091906124f1565b60405180910390f35b6101b360048036038101906101ae9190612538565b6105c6565b005b6101cf60048036038101906101ca9190612578565b6106dd565b005b6101eb60048036038101906101e69190612483565b61073d565b6040516101f8919061242b565b60405180910390f35b61021b60048036038101906102169190612578565b610835565b005b61023760048036038101906102329190612483565b610855565b604051610244919061242b565b60405180910390f35b61026760048036038101906102629190612483565b61094d565b60405161027491906124f1565b60405180910390f35b6102856109fe565b005b6102a1600480360381019061029c91906125cb565b610c1f565b6040516102ae9190612607565b60405180910390f35b6102bf610cd6565b6040516102cc919061242b565b60405180910390f35b6102ef60048036038101906102ea919061264e565b610d68565b005b61030b60048036038101906103069190612483565b610d7e565b604051610318919061242b565b60405180910390f35b61033b600480360381019061033691906127c3565b610e76565b005b61035760048036038101906103529190612483565b610ed8565b604051610364919061242b565b60405180910390f35b61038760048036038101906103829190612483565b610fd0565b604051610394919061242b565b60405180910390f35b6103b760048036038101906103b29190612846565b611121565b6040516103c49190612377565b60405180910390f35b60007f80ac58cd000000000000000000000000000000000000000000000000000000007bffffffffffffffffffffffffffffffffffffffffffffffffffffffff1916827bffffffffffffffffffffffffffffffffffffffffffffffffffffffff1916148061049857507f5b5e139f000000000000000000000000000000000000000000000000000000007bffffffffffffffffffffffffffffffffffffffffffffffffffffffff1916827bffffffffffffffffffffffffffffffffffffffffffffffffffffffff1916145b806104a857506104a78261124e565b5b9050919050565b6060600080546104be906128b5565b80601f01602080910402602001604051908101604052809291908181526020018280546104ea906128b5565b80156105375780601f1061050c57610100808354040283529160200191610537565b820191906000526020600020905b81548152906001019060200180831161051a57829003601f168201915b5050505050905090565b600061054c826112b8565b61058b576040517f08c379a000000000000000000000000000000000000000000000000000000000815260040161058290612958565b60405180910390fd5b6004600083815260200190815260200160002060009054906101000a900473ffffffffffffffffffffffffffffffffffffffff169050919050565b60006105d18261094d565b90508073ffffffffffffffffffffffffffffffffffffffff168373ffffffffffffffffffffffffffffffffffffffff1603610641576040517f08c379a0000000000000000000000000000000000000000000000000000000008152600401610638906129ea565b60405180910390fd5b8073ffffffffffffffffffffffffffffffffffffffff16610660611324565b73ffffffffffffffffffffffffffffffffffffffff16148061068f575061068e81610689611324565b611121565b5b6106ce576040517f08c379a00000000000000000000000000000000000000000000000000000000081526004016106c590612a7c565b60405180910390fd5b6106d8838361132c565b505050565b6106ee6106e8611324565b826113e5565b61072d576040517f08c379a000000000000000000000000000000000000000000000000000000000815260040161072490612b0e565b60405180910390fd5b6107388383836114c3565b505050565b6060600061077161074d84611729565b60405160200161075d9190612bb6565b604051602081830303815290604052611889565b9050600a80549050816107849190612c07565b9050600a818154811061079a57610799612c38565b5b9060005260206000200180546107af906128b5565b80601f01602080910402602001604051908101604052809291908181526020018280546107db906128b5565b80156108285780601f106107fd57610100808354040283529160200191610828565b820191906000526020600020905b81548152906001019060200180831161080b57829003601f168201915b5050505050915050919050565b61085083838360405180602001604052806000815250610e76565b505050565b6060600061088961086584611729565b6040516020016108759190612cb3565b604051602081830303815290604052611889565b9050600d805490508161089c9190612c07565b9050600d81815481106108b2576108b1612c38565b5b9060005260206000200180546108c7906128b5565b80601f01602080910402602001604051908101604052809291908181526020018280546108f3906128b5565b80156109405780601f1061091557610100808354040283529160200191610940565b820191906000526020600020905b81548152906001019060200180831161092357829003601f168201915b5050505050915050919050565b6000806002600084815260200190815260200160002060009054906101000a900473ffffffffffffffffffffffffffffffffffffffff169050600073ffffffffffffffffffffffffffffffffffffffff168173ffffffffffffffffffffffffffffffffffffffff16036109f5576040517f08c379a00000000000000000000000000000000000000000000000000000000081526004016109ec90612d47565b60405180910390fd5b80915050919050565b6000610a0a60076118bc565b90506000610a178261073d565b90506000610a2483610d7e565b90506000610a3184610ed8565b90506000838383604051602001610a4a93929190612d67565b60405160208183030381529060405290506000610a6686610855565b90506000600882600985604051602001610a839493929190612e78565b60405160208183030381529060405290506000610ad0610aa289611729565b610aab846118ca565b604051602001610abc929190613017565b6040516020818303038152906040526118ca565b9050600081604051602001610ae591906130a8565b6040516020818303038152906040529050610b346040518060400160405280601581526020017f0a2d2d2d2d2d2d2d2d2d2d2d2d2d2d2d2d2d2d2d2d00000000000000000000008152506111b5565b610b5c81604051602001610b48919061313c565b6040516020818303038152906040526111b5565b610b9a6040518060400160405280601581526020017f2d2d2d2d2d2d2d2d2d2d2d2d2d2d2d2d2d2d2d2d0a00000000000000000000008152506111b5565b610ba4338a611a42565b610bae8982611a60565b610bb86007611ad4565b610bdb604051806060016040528060258152602001613b20602591398a33611aea565b7f9c349da1ab9f50769f1ec358824fcda14125a0b92cfdf416bae5e7c5f0c3c1d4338a604051610c0c92919061315e565b60405180910390a1505050505050505050565b60008073ffffffffffffffffffffffffffffffffffffffff168273ffffffffffffffffffffffffffffffffffffffff1603610c8f576040517f08c379a0000000000000000000000000000000000000000000000000000000008152600401610c86906131f9565b60405180910390fd5b600360008373ffffffffffffffffffffffffffffffffffffffff1673ffffffffffffffffffffffffffffffffffffffff168152602001908152602001600020549050919050565b606060018054610ce5906128b5565b80601f0160208091040260200160405190810160405280929190818152602001828054610d11906128b5565b8015610d5e5780601f10610d3357610100808354040283529160200191610d5e565b820191906000526020600020905b815481529060010190602001808311610d4157829003601f168201915b5050505050905090565b610d7a610d73611324565b8383611b89565b5050565b60606000610db2610d8e84611729565b604051602001610d9e9190613265565b604051602081830303815290604052611889565b9050600b8054905081610dc59190612c07565b9050600b8181548110610ddb57610dda612c38565b5b906000526020600020018054610df0906128b5565b80601f0160208091040260200160405190810160405280929190818152602001828054610e1c906128b5565b8015610e695780601f10610e3e57610100808354040283529160200191610e69565b820191906000526020600020905b815481529060010190602001808311610e4c57829003601f168201915b5050505050915050919050565b610e87610e81611324565b836113e5565b610ec6576040517f08c379a0000000000000000000000000000000000000000000000000000000008152600401610ebd90612b0e565b60405180910390fd5b610ed284848484611cf5565b50505050565b60606000610f0c610ee884611729565b604051602001610ef891906132d3565b604051602081830303815290604052611889565b9050600c8054905081610f1f9190612c07565b9050600c8181548110610f3557610f34612c38565b5b906000526020600020018054610f4a906128b5565b80601f0160208091040260200160405190810160405280929190818152602001828054610f76906128b5565b8015610fc35780601f10610f9857610100808354040283529160200191610fc3565b820191906000526020600020905b815481529060010190602001808311610fa657829003601f168201915b5050505050915050919050565b6060610fdb826112b8565b61101a576040517f08c379a000000000000000000000000000000000000000000000000000000000815260040161101190613367565b60405180910390fd5b600060066000848152602001908152602001600020805461103a906128b5565b80601f0160208091040260200160405190810160405280929190818152602001828054611066906128b5565b80156110b35780601f10611088576101008083540402835291602001916110b3565b820191906000526020600020905b81548152906001019060200180831161109657829003601f168201915b5050505050905060006110c4611d51565b905060008151036110d957819250505061111c565b60008251111561110e5780826040516020016110f6929190613387565b6040516020818303038152906040529250505061111c565b61111784611d68565b925050505b919050565b6000600560008473ffffffffffffffffffffffffffffffffffffffff1673ffffffffffffffffffffffffffffffffffffffff16815260200190815260200160002060008373ffffffffffffffffffffffffffffffffffffffff1673ffffffffffffffffffffffffffffffffffffffff16815260200190815260200160002060009054906101000a900460ff16905092915050565b61124b816040516024016111c9919061242b565b6040516020818303038152906040527f41304fac000000000000000000000000000000000000000000000000000000007bffffffffffffffffffffffffffffffffffffffffffffffffffffffff19166020820180517bffffffffffffffffffffffffffffffffffffffffffffffffffffffff8381831617835250505050611e0f565b50565b60007f01ffc9a7000000000000000000000000000000000000000000000000000000007bffffffffffffffffffffffffffffffffffffffffffffffffffffffff1916827bffffffffffffffffffffffffffffffffffffffffffffffffffffffff1916149050919050565b60008073ffffffffffffffffffffffffffffffffffffffff166002600084815260200190815260200160002060009054906101000a900473ffffffffffffffffffffffffffffffffffffffff1673ffffffffffffffffffffffffffffffffffffffff1614159050919050565b600033905090565b816004600083815260200190815260200160002060006101000a81548173ffffffffffffffffffffffffffffffffffffffff021916908373ffffffffffffffffffffffffffffffffffffffff160217905550808273ffffffffffffffffffffffffffffffffffffffff1661139f8361094d565b73ffffffffffffffffffffffffffffffffffffffff167f8c5be1e5ebec7d5bd14f71427d1e84f3dd0314c0f7b2291e5b200ac8c7c3b92560405160405180910390a45050565b60006113f0826112b8565b61142f576040517f08c379a00000000000000000000000000000000000000000000000000000000081526004016114269061341d565b60405180910390fd5b600061143a8361094d565b90508073ffffffffffffffffffffffffffffffffffffffff168473ffffffffffffffffffffffffffffffffffffffff16148061147c575061147b8185611121565b5b806114ba57508373ffffffffffffffffffffffffffffffffffffffff166114a284610541565b73ffffffffffffffffffffffffffffffffffffffff16145b91505092915050565b8273ffffffffffffffffffffffffffffffffffffffff166114e38261094d565b73ffffffffffffffffffffffffffffffffffffffff1614611539576040517f08c379a0000000000000000000000000000000000000000000000000000000008152600401611530906134af565b60405180910390fd5b600073ffffffffffffffffffffffffffffffffffffffff168273ffffffffffffffffffffffffffffffffffffffff16036115a8576040517f08c379a000000000000000000000000000000000000000000000000000000000815260040161159f90613541565b60405180910390fd5b6115b3838383611e38565b6115be60008261132c565b6001600360008573ffffffffffffffffffffffffffffffffffffffff1673ffffffffffffffffffffffffffffffffffffffff168152602001908152602001600020600082825461160e9190613590565b925050819055506001600360008473ffffffffffffffffffffffffffffffffffffffff1673ffffffffffffffffffffffffffffffffffffffff168152602001908152602001600020600082825461166591906135c4565b92505081905550816002600083815260200190815260200160002060006101000a81548173ffffffffffffffffffffffffffffffffffffffff021916908373ffffffffffffffffffffffffffffffffffffffff160217905550808273ffffffffffffffffffffffffffffffffffffffff168473ffffffffffffffffffffffffffffffffffffffff167fddf252ad1be2c89b69c2b068fc378daa952ba7f163c4a11628f55a4df523b3ef60405160405180910390a4611724838383611e3d565b505050565b606060008203611770576040518060400160405280600181526020017f30000000000000000000000000000000000000000000000000000000000000008152509050611884565b600082905060005b600082146117a257808061178b9061361a565b915050600a8261179b9190613662565b9150611778565b60008167ffffffffffffffff8111156117be576117bd612698565b5b6040519080825280601f01601f1916602001820160405280156117f05781602001600182028036833780820191505090505b5090505b6000851461187d576001826118099190613590565b9150600a856118189190612c07565b603061182491906135c4565b60f81b81838151811061183a57611839612c38565b5b60200101907effffffffffffffffffffffffffffffffffffffffffffffffffffffffffffff1916908160001a905350600a856118769190613662565b94506117f4565b8093505050505b919050565b60008160405160200161189c9190613693565b6040516020818303038152906040528051906020012060001c9050919050565b600081600001549050919050565b606060008251036118ec57604051806020016040528060008152509050611a3d565b6000604051806060016040528060408152602001613b45604091399050600060036002855161191b91906135c4565b6119259190613662565b600461193191906136aa565b9050600060208261194291906135c4565b67ffffffffffffffff81111561195b5761195a612698565b5b6040519080825280601f01601f19166020018201604052801561198d5781602001600182028036833780820191505090505b509050818152600183018586518101602084015b818310156119fc576003830192508251603f8160121c168501518253600182019150603f81600c1c168501518253600182019150603f8160061c168501518253600182019150603f81168501518253600182019150506119a1565b600389510660018114611a165760028114611a2657611a31565b613d3d60f01b6002830352611a31565b603d60f81b60018303525b50505050508093505050505b919050565b611a5c828260405180602001604052806000815250611e42565b5050565b611a69826112b8565b611aa8576040517f08c379a0000000000000000000000000000000000000000000000000000000008152600401611a9f90613776565b60405180910390fd5b80600660008481526020019081526020016000209080519060200190611acf929190612220565b505050565b6001816000016000828254019250508190555050565b611b84838383604051602401611b0293929190613796565b6040516020818303038152906040527fe3849f79000000000000000000000000000000000000000000000000000000007bffffffffffffffffffffffffffffffffffffffffffffffffffffffff19166020820180517bffffffffffffffffffffffffffffffffffffffffffffffffffffffff8381831617835250505050611e0f565b505050565b8173ffffffffffffffffffffffffffffffffffffffff168373ffffffffffffffffffffffffffffffffffffffff1603611bf7576040517f08c379a0000000000000000000000000000000000000000000000000000000008152600401611bee90613820565b60405180910390fd5b80600560008573ffffffffffffffffffffffffffffffffffffffff1673ffffffffffffffffffffffffffffffffffffffff16815260200190815260200160002060008473ffffffffffffffffffffffffffffffffffffffff1673ffffffffffffffffffffffffffffffffffffffff16815260200190815260200160002060006101000a81548160ff0219169083151502179055508173ffffffffffffffffffffffffffffffffffffffff168373ffffffffffffffffffffffffffffffffffffffff167f17307eab39ab6107e8899845ad3d59bd9653f200f220920489ca2b5937696c3183604051611ce89190612377565b60405180910390a3505050565b611d008484846114c3565b611d0c84848484611e9d565b611d4b576040517f08c379a0000000000000000000000000000000000000000000000000000000008152600401611d42906138b2565b60405180910390fd5b50505050565b606060405180602001604052806000815250905090565b6060611d73826112b8565b611db2576040517f08c379a0000000000000000000000000000000000000000000000000000000008152600401611da990613944565b60405180910390fd5b6000611dbc611d51565b90506000815111611ddc5760405180602001604052806000815250611e07565b80611de684611729565b604051602001611df7929190613387565b6040516020818303038152906040525b915050919050565b60008151905060006a636f6e736f6c652e6c6f679050602083016000808483855afa5050505050565b505050565b505050565b611e4c8383612024565b611e596000848484611e9d565b611e98576040517f08c379a0000000000000000000000000000000000000000000000000000000008152600401611e8f906138b2565b60405180910390fd5b505050565b6000611ebe8473ffffffffffffffffffffffffffffffffffffffff166121fd565b15612017578373ffffffffffffffffffffffffffffffffffffffff1663150b7a02611ee7611324565b8786866040518563ffffffff1660e01b8152600401611f0994939291906139b9565b6020604051808303816000875af1925050508015611f4557506040513d601f19601f82011682018060405250810190611f429190613a1a565b60015b611fc7573d8060008114611f75576040519150601f19603f3d011682016040523d82523d6000602084013e611f7a565b606091505b506000815103611fbf576040517f08c379a0000000000000000000000000000000000000000000000000000000008152600401611fb6906138b2565b60405180910390fd5b805181602001fd5b63150b7a0260e01b7bffffffffffffffffffffffffffffffffffffffffffffffffffffffff1916817bffffffffffffffffffffffffffffffffffffffffffffffffffffffff19161491505061201c565b600190505b949350505050565b600073ffffffffffffffffffffffffffffffffffffffff168273ffffffffffffffffffffffffffffffffffffffff1603612093576040517f08c379a000000000000000000000000000000000000000000000000000000000815260040161208a90613a93565b60405180910390fd5b61209c816112b8565b156120dc576040517f08c379a00000000000000000000000000000000000000000000000000000000081526004016120d390613aff565b60405180910390fd5b6120e860008383611e38565b6001600360008473ffffffffffffffffffffffffffffffffffffffff1673ffffffffffffffffffffffffffffffffffffffff168152602001908152602001600020600082825461213891906135c4565b92505081905550816002600083815260200190815260200160002060006101000a81548173ffffffffffffffffffffffffffffffffffffffff021916908373ffffffffffffffffffffffffffffffffffffffff160217905550808273ffffffffffffffffffffffffffffffffffffffff16600073ffffffffffffffffffffffffffffffffffffffff167fddf252ad1be2c89b69c2b068fc378daa952ba7f163c4a11628f55a4df523b3ef60405160405180910390a46121f960008383611e3d565b5050565b6000808273ffffffffffffffffffffffffffffffffffffffff163b119050919050565b82805461222c906128b5565b90600052602060002090601f01602090048101928261224e5760008555612295565b82601f1061226757805160ff1916838001178555612295565b82800160010185558215612295579182015b82811115612294578251825591602001919060010190612279565b5b5090506122a291906122a6565b5090565b5b808211156122bf5760008160009055506001016122a7565b5090565b6000604051905090565b600080fd5b600080fd5b60007fffffffff0000000000000000000000000000000000000000000000000000000082169050919050565b61230c816122d7565b811461231757600080fd5b50565b60008135905061232981612303565b92915050565b600060208284031215612345576123446122cd565b5b60006123538482850161231a565b91505092915050565b60008115159050919050565b6123718161235c565b82525050565b600060208201905061238c6000830184612368565b92915050565b600081519050919050565b600082825260208201905092915050565b60005b838110156123cc5780820151818401526020810190506123b1565b838111156123db576000848401525b50505050565b6000601f19601f8301169050919050565b60006123fd82612392565b612407818561239d565b93506124178185602086016123ae565b612420816123e1565b840191505092915050565b6000602082019050818103600083015261244581846123f2565b905092915050565b6000819050919050565b6124608161244d565b811461246b57600080fd5b50565b60008135905061247d81612457565b92915050565b600060208284031215612499576124986122cd565b5b60006124a78482850161246e565b91505092915050565b600073ffffffffffffffffffffffffffffffffffffffff82169050919050565b60006124db826124b0565b9050919050565b6124eb816124d0565b82525050565b600060208201905061250660008301846124e2565b92915050565b612515816124d0565b811461252057600080fd5b50565b6000813590506125328161250c565b92915050565b6000806040838503121561254f5761254e6122cd565b5b600061255d85828601612523565b925050602061256e8582860161246e565b9150509250929050565b600080600060608486031215612591576125906122cd565b5b600061259f86828701612523565b93505060206125b086828701612523565b92505060406125c18682870161246e565b9150509250925092565b6000602082840312156125e1576125e06122cd565b5b60006125ef84828501612523565b91505092915050565b6126018161244d565b82525050565b600060208201905061261c60008301846125f8565b92915050565b61262b8161235c565b811461263657600080fd5b50565b60008135905061264881612622565b92915050565b60008060408385031215612665576126646122cd565b5b600061267385828601612523565b925050602061268485828601612639565b9150509250929050565b600080fd5b600080fd5b7f4e487b7100000000000000000000000000000000000000000000000000000000600052604160045260246000fd5b6126d0826123e1565b810181811067ffffffffffffffff821117156126ef576126ee612698565b5b80604052505050565b60006127026122c3565b905061270e82826126c7565b919050565b600067ffffffffffffffff82111561272e5761272d612698565b5b612737826123e1565b9050602081019050919050565b82818337600083830152505050565b600061276661276184612713565b6126f8565b90508281526020810184848401111561278257612781612693565b5b61278d848285612744565b509392505050565b600082601f8301126127aa576127a961268e565b5b81356127ba848260208601612753565b91505092915050565b600080600080608085870312156127dd576127dc6122cd565b5b60006127eb87828801612523565b94505060206127fc87828801612523565b935050604061280d8782880161246e565b925050606085013567ffffffffffffffff81111561282e5761282d6122d2565b5b61283a87828801612795565b91505092959194509250565b6000806040838503121561285d5761285c6122cd565b5b600061286b85828601612523565b925050602061287c85828601612523565b9150509250929050565b7f4e487b7100000000000000000000000000000000000000000000000000000000600052602260045260246000fd5b600060028204905060018216806128cd57607f821691505b6020821081036128e0576128df612886565b5b50919050565b7f4552433732313a20617070726f76656420717565727920666f72206e6f6e657860008201527f697374656e7420746f6b656e0000000000000000000000000000000000000000602082015250565b6000612942602c8361239d565b915061294d826128e6565b604082019050919050565b6000602082019050818103600083015261297181612935565b9050919050565b7f4552433732313a20617070726f76616c20746f2063757272656e74206f776e6560008201527f7200000000000000000000000000000000000000000000000000000000000000602082015250565b60006129d460218361239d565b91506129df82612978565b604082019050919050565b60006020820190508181036000830152612a03816129c7565b9050919050565b7f4552433732313a20617070726f76652063616c6c6572206973206e6f74206f7760008201527f6e6572206e6f7220617070726f76656420666f7220616c6c0000000000000000602082015250565b6000612a6660388361239d565b9150612a7182612a0a565b604082019050919050565b60006020820190508181036000830152612a9581612a59565b9050919050565b7f4552433732313a207472616e736665722063616c6c6572206973206e6f74206f60008201527f776e6572206e6f7220617070726f766564000000000000000000000000000000602082015250565b6000612af860318361239d565b9150612b0382612a9c565b604082019050919050565b60006020820190508181036000830152612b2781612aeb565b9050919050565b600081905092915050565b7f46495253545f574f524400000000000000000000000000000000000000000000600082015250565b6000612b6f600a83612b2e565b9150612b7a82612b39565b600a82019050919050565b6000612b9082612392565b612b9a8185612b2e565b9350612baa8185602086016123ae565b80840191505092915050565b6000612bc182612b62565b9150612bcd8284612b85565b915081905092915050565b7f4e487b7100000000000000000000000000000000000000000000000000000000600052601260045260246000fd5b6000612c128261244d565b9150612c1d8361244d565b925082612c2d57612c2c612bd8565b5b828206905092915050565b7f4e487b7100000000000000000000000000000000000000000000000000000000600052603260045260246000fd5b7f434f4c4f52000000000000000000000000000000000000000000000000000000600082015250565b6000612c9d600583612b2e565b9150612ca882612c67565b600582019050919050565b6000612cbe82612c90565b9150612cca8284612b85565b915081905092915050565b7f4552433732313a206f776e657220717565727920666f72206e6f6e657869737460008201527f656e7420746f6b656e0000000000000000000000000000000000000000000000602082015250565b6000612d3160298361239d565b9150612d3c82612cd5565b604082019050919050565b60006020820190508181036000830152612d6081612d24565b9050919050565b6000612d738286612b85565b9150612d7f8285612b85565b9150612d8b8284612b85565b9150819050949350505050565b60008190508160005260206000209050919050565b60008154612dba816128b5565b612dc48186612b2e565b94506001821660008114612ddf5760018114612df057612e23565b60ff19831686528186019350612e23565b612df985612d98565b60005b83811015612e1b57815481890152600182019150602081019050612dfc565b838801955050505b50505092915050565b7f3c2f746578743e3c2f7376673e00000000000000000000000000000000000000600082015250565b6000612e62600d83612b2e565b9150612e6d82612e2c565b600d82019050919050565b6000612e848287612dad565b9150612e908286612b85565b9150612e9c8285612dad565b9150612ea88284612b85565b9150612eb382612e55565b915081905095945050505050565b7f7b226e616d65223a202200000000000000000000000000000000000000000000600082015250565b6000612ef7600a83612b2e565b9150612f0282612ec1565b600a82019050919050565b7f222c20226465736372697074696f6e223a20224120686967686c79206163636c60008201527f61696d656420636f6c6c656374696f6e206f6620737175617265732e222c202260208201527f696d616765223a2022646174613a696d6167652f7376672b786d6c3b6261736560408201527f36342c0000000000000000000000000000000000000000000000000000000000606082015250565b6000612fb5606383612b2e565b9150612fc082612f0d565b606382019050919050565b7f227d000000000000000000000000000000000000000000000000000000000000600082015250565b6000613001600283612b2e565b915061300c82612fcb565b600282019050919050565b600061302282612eea565b915061302e8285612b85565b915061303982612fa8565b91506130458284612b85565b915061305082612ff4565b91508190509392505050565b7f646174613a6170706c69636174696f6e2f6a736f6e3b6261736536342c000000600082015250565b6000613092601d83612b2e565b915061309d8261305c565b601d82019050919050565b60006130b382613085565b91506130bf8284612b85565b915081905092915050565b7f68747470733a2f2f6e6674707265766965772e30786465762e636f6465732f3f60008201527f636f64653d000000000000000000000000000000000000000000000000000000602082015250565b6000613126602583612b2e565b9150613131826130ca565b602582019050919050565b600061314782613119565b91506131538284612b85565b915081905092915050565b600060408201905061317360008301856124e2565b61318060208301846125f8565b9392505050565b7f4552433732313a2062616c616e636520717565727920666f7220746865207a6560008201527f726f206164647265737300000000000000000000000000000000000000000000602082015250565b60006131e3602a8361239d565b91506131ee82613187565b604082019050919050565b60006020820190508181036000830152613212816131d6565b9050919050565b7f5345434f4e445f574f5244000000000000000000000000000000000000000000600082015250565b600061324f600b83612b2e565b915061325a82613219565b600b82019050919050565b600061327082613242565b915061327c8284612b85565b915081905092915050565b7f54484952445f574f524400000000000000000000000000000000000000000000600082015250565b60006132bd600a83612b2e565b91506132c882613287565b600a82019050919050565b60006132de826132b0565b91506132ea8284612b85565b915081905092915050565b7f45524337323155524953746f726167653a2055524920717565727920666f722060008201527f6e6f6e6578697374656e7420746f6b656e000000000000000000000000000000602082015250565b600061335160318361239d565b915061335c826132f5565b604082019050919050565b6000602082019050818103600083015261338081613344565b9050919050565b60006133938285612b85565b915061339f8284612b85565b91508190509392505050565b7f4552433732313a206f70657261746f7220717565727920666f72206e6f6e657860008201527f697374656e7420746f6b656e0000000000000000000000000000000000000000602082015250565b6000613407602c8361239d565b9150613412826133ab565b604082019050919050565b60006020820190508181036000830152613436816133fa565b9050919050565b7f4552433732313a207472616e736665722066726f6d20696e636f72726563742060008201527f6f776e6572000000000000000000000000000000000000000000000000000000602082015250565b600061349960258361239d565b91506134a48261343d565b604082019050919050565b600060208201905081810360008301526134c88161348c565b9050919050565b7f4552433732313a207472616e7366657220746f20746865207a65726f2061646460008201527f7265737300000000000000000000000000000000000000000000000000000000602082015250565b600061352b60248361239d565b9150613536826134cf565b604082019050919050565b6000602082019050818103600083015261355a8161351e565b9050919050565b7f4e487b7100000000000000000000000000000000000000000000000000000000600052601160045260246000fd5b600061359b8261244d565b91506135a68361244d565b9250828210156135b9576135b8613561565b5b828203905092915050565b60006135cf8261244d565b91506135da8361244d565b9250827fffffffffffffffffffffffffffffffffffffffffffffffffffffffffffffffff0382111561360f5761360e613561565b5b828201905092915050565b60006136258261244d565b91507fffffffffffffffffffffffffffffffffffffffffffffffffffffffffffffffff820361365757613656613561565b5b600182019050919050565b600061366d8261244d565b91506136788361244d565b92508261368857613687612bd8565b5b828204905092915050565b600061369f8284612b85565b915081905092915050565b60006136b58261244d565b91506136c08361244d565b9250817fffffffffffffffffffffffffffffffffffffffffffffffffffffffffffffffff04831182151516156136f9576136f8613561565b5b828202905092915050565b7f45524337323155524953746f726167653a2055524920736574206f66206e6f6e60008201527f6578697374656e7420746f6b656e000000000000000000000000000000000000602082015250565b6000613760602e8361239d565b915061376b82613704565b604082019050919050565b6000602082019050818103600083015261378f81613753565b9050919050565b600060608201905081810360008301526137b081866123f2565b90506137bf60208301856125f8565b6137cc60408301846124e2565b949350505050565b7f4552433732313a20617070726f766520746f2063616c6c657200000000000000600082015250565b600061380a60198361239d565b9150613815826137d4565b602082019050919050565b60006020820190508181036000830152613839816137fd565b9050919050565b7f4552433732313a207472616e7366657220746f206e6f6e20455243373231526560008201527f63656976657220696d706c656d656e7465720000000000000000000000000000602082015250565b600061389c60328361239d565b91506138a782613840565b604082019050919050565b600060208201905081810360008301526138cb8161388f565b9050919050565b7f4552433732314d657461646174613a2055524920717565727920666f72206e6f60008201527f6e6578697374656e7420746f6b656e0000000000000000000000000000000000602082015250565b600061392e602f8361239d565b9150613939826138d2565b604082019050919050565b6000602082019050818103600083015261395d81613921565b9050919050565b600081519050919050565b600082825260208201905092915050565b600061398b82613964565b613995818561396f565b93506139a58185602086016123ae565b6139ae816123e1565b840191505092915050565b60006080820190506139ce60008301876124e2565b6139db60208301866124e2565b6139e860408301856125f8565b81810360608301526139fa8184613980565b905095945050505050565b600081519050613a1481612303565b92915050565b600060208284031215613a3057613a2f6122cd565b5b6000613a3e84828501613a05565b91505092915050565b7f4552433732313a206d696e7420746f20746865207a65726f2061646472657373600082015250565b6000613a7d60208361239d565b9150613a8882613a47565b602082019050919050565b60006020820190508181036000830152613aac81613a70565b9050919050565b7f4552433732313a20746f6b656e20616c7265616479206d696e74656400000000600082015250565b6000613ae9601c8361239d565b9150613af482613ab3565b602082019050919050565b60006020820190508181036000830152613b1881613adc565b905091905056fe416e204e465420772f20494420257320686173206265656e206d696e74656420746f2025734142434445464748494a4b4c4d4e4f505152535455565758595a6162636465666768696a6b6c6d6e6f707172737475767778797a303132333435363738392b2fa2646970667358221220188b5ac7df896271bff7126271240b36d476164a87af71946a7a9c3bbda277ab64736f6c634300080e00333c73766720786d6c6e733d27687474703a2f2f7777772e77332e6f72672f323030302f73766727207072657365727665417370656374526174696f3d27784d696e594d696e206d656574272076696577426f783d273020302033353020333530273e3c7374796c653e2e62617365207b2066696c6c3a2077686974653b20666f6e742d66616d696c793a2073657269663b20666f6e742d73697a653a20323470783b207d3c2f7374796c653e3c726563742077696474683d273130302527206865696768743d2731303025272066696c6c3d27272f3e3c7465787420783d273530252720793d273530252720636c6173733d27626173652720646f6d696e616e742d626173656c696e653d276d6964646c652720746578742d616e63686f723d276d6964646c65273e",
  "linkReferences": {},
  "deployedLinkReferences": {}
}