{
  "_format": "hh-sol-artifact-1",
  "contractName": "Lilos_V1",
  "sourceName": "contracts/Lilo_V1.sol",
  "abi": [
    {
      "inputs": [],
      "stateMutability": "nonpayable",
      "type": "constructor"
    },
    {
      "anonymous": false,
      "inputs": [
        {
          "indexed": false,
          "internalType": "uint256",
          "name": "listingId",
          "type": "uint256"
        },
        {
          "indexed": false,
          "internalType": "address",
          "name": "lessor",
          "type": "address"
        }
      ],
      "name": "Delisted",
      "type": "event"
    },
    {
      "anonymous": false,
      "inputs": [
        {
          "indexed": true,
          "internalType": "uint256",
          "name": "listingId",
          "type": "uint256"
        },
        {
          "indexed": true,
          "internalType": "address",
          "name": "lessor",
          "type": "address"
        },
        {
          "indexed": true,
          "internalType": "address",
          "name": "lessee",
          "type": "address"
        },
        {
          "indexed": false,
          "internalType": "address",
          "name": "collection",
          "type": "address"
        },
        {
          "indexed": false,
          "internalType": "uint256",
          "name": "tokenId",
          "type": "uint256"
        },
        {
          "indexed": false,
          "internalType": "uint256",
          "name": "collateral_value",
          "type": "uint256"
        },
        {
          "indexed": false,
          "internalType": "uint256",
          "name": "rental_value",
          "type": "uint256"
        },
        {
          "indexed": false,
          "internalType": "uint256",
          "name": "lease_term",
          "type": "uint256"
        },
        {
          "indexed": false,
          "internalType": "uint256",
          "name": "lease_start_date",
          "type": "uint256"
        },
        {
          "indexed": false,
          "internalType": "uint256",
          "name": "lease_end_date",
          "type": "uint256"
        }
      ],
      "name": "Leased",
      "type": "event"
    },
    {
      "anonymous": false,
      "inputs": [
        {
          "indexed": true,
          "internalType": "uint256",
          "name": "listingId",
          "type": "uint256"
        },
        {
          "indexed": true,
          "internalType": "address",
          "name": "lessor",
          "type": "address"
        },
        {
          "indexed": true,
          "internalType": "address",
          "name": "lessee",
          "type": "address"
        },
        {
          "indexed": false,
          "internalType": "address",
          "name": "collection",
          "type": "address"
        },
        {
          "indexed": false,
          "internalType": "uint256",
          "name": "tokenId",
          "type": "uint256"
        },
        {
          "indexed": false,
          "internalType": "uint256",
          "name": "collateral_value",
          "type": "uint256"
        },
        {
          "indexed": false,
          "internalType": "uint256",
          "name": "lease_term",
          "type": "uint256"
        },
        {
          "indexed": false,
          "internalType": "uint256",
          "name": "lease_start_date",
          "type": "uint256"
        },
        {
          "indexed": false,
          "internalType": "uint256",
          "name": "lease_end_date",
          "type": "uint256"
        },
        {
          "indexed": false,
          "internalType": "uint256",
          "name": "Liquidated_date",
          "type": "uint256"
        }
      ],
      "name": "Liquidated",
      "type": "event"
    },
    {
      "anonymous": false,
      "inputs": [
        {
          "indexed": true,
          "internalType": "uint256",
          "name": "listingId",
          "type": "uint256"
        },
        {
          "indexed": false,
          "internalType": "enum Lilos_V1.ListingStatus",
          "name": "status",
          "type": "uint8"
        },
        {
          "indexed": true,
          "internalType": "address",
          "name": "lessor",
          "type": "address"
        },
        {
          "indexed": false,
          "internalType": "address",
          "name": "collection",
          "type": "address"
        },
        {
          "indexed": false,
          "internalType": "uint256",
          "name": "tokenId",
          "type": "uint256"
        },
        {
          "indexed": false,
          "internalType": "uint256",
          "name": "collateral_value",
          "type": "uint256"
        },
        {
          "indexed": false,
          "internalType": "uint256",
          "name": "rental_value",
          "type": "uint256"
        },
        {
          "indexed": false,
          "internalType": "uint256",
          "name": "lease_term",
          "type": "uint256"
        }
      ],
      "name": "Listed",
      "type": "event"
    },
    {
      "anonymous": false,
      "inputs": [
        {
          "indexed": true,
          "internalType": "uint256",
          "name": "listingId",
          "type": "uint256"
        },
        {
          "indexed": false,
          "internalType": "address",
          "name": "lessor",
          "type": "address"
        },
        {
          "indexed": true,
          "internalType": "address",
          "name": "lessee",
          "type": "address"
        },
        {
          "indexed": true,
          "internalType": "address",
          "name": "repayer",
          "type": "address"
        },
        {
          "indexed": false,
          "internalType": "address",
          "name": "collection",
          "type": "address"
        },
        {
          "indexed": false,
          "internalType": "uint256",
          "name": "tokenId",
          "type": "uint256"
        },
        {
          "indexed": false,
          "internalType": "uint256",
          "name": "collateral_value",
          "type": "uint256"
        },
        {
          "indexed": false,
          "internalType": "uint256",
          "name": "lease_term",
          "type": "uint256"
        },
        {
          "indexed": false,
          "internalType": "uint256",
          "name": "lease_start_date",
          "type": "uint256"
        },
        {
          "indexed": false,
          "internalType": "uint256",
          "name": "lease_end_date",
          "type": "uint256"
        }
      ],
      "name": "Repayed",
      "type": "event"
    },
    {
      "inputs": [
        {
          "internalType": "uint256",
          "name": "listingId_",
          "type": "uint256"
        }
      ],
      "name": "delist",
      "outputs": [],
      "stateMutability": "nonpayable",
      "type": "function"
    },
    {
      "inputs": [],
      "name": "getActiveItems",
      "outputs": [
        {
          "components": [
            {
              "internalType": "enum Lilos_V1.ListingStatus",
              "name": "status",
              "type": "uint8"
            },
            {
              "internalType": "address",
              "name": "lessor",
              "type": "address"
            },
            {
              "internalType": "address",
              "name": "lessee",
              "type": "address"
            },
            {
              "internalType": "address",
              "name": "collection",
              "type": "address"
            },
            {
              "internalType": "uint256",
              "name": "tokenId",
              "type": "uint256"
            },
            {
              "internalType": "uint256",
              "name": "collateral_value",
              "type": "uint256"
            },
            {
              "internalType": "uint256",
              "name": "rental_value",
              "type": "uint256"
            },
            {
              "internalType": "uint256",
              "name": "lease_term",
              "type": "uint256"
            },
            {
              "internalType": "uint256",
              "name": "lease_start_date",
              "type": "uint256"
            },
            {
              "internalType": "uint256",
              "name": "lease_end_date",
              "type": "uint256"
            }
          ],
          "internalType": "struct Lilos_V1.ListingItem[]",
          "name": "",
          "type": "tuple[]"
        }
      ],
      "stateMutability": "view",
      "type": "function"
    },
    {
      "inputs": [],
      "name": "getAllItems",
      "outputs": [
        {
          "components": [
            {
              "internalType": "enum Lilos_V1.ListingStatus",
              "name": "status",
              "type": "uint8"
            },
            {
              "internalType": "address",
              "name": "lessor",
              "type": "address"
            },
            {
              "internalType": "address",
              "name": "lessee",
              "type": "address"
            },
            {
              "internalType": "address",
              "name": "collection",
              "type": "address"
            },
            {
              "internalType": "uint256",
              "name": "tokenId",
              "type": "uint256"
            },
            {
              "internalType": "uint256",
              "name": "collateral_value",
              "type": "uint256"
            },
            {
              "internalType": "uint256",
              "name": "rental_value",
              "type": "uint256"
            },
            {
              "internalType": "uint256",
              "name": "lease_term",
              "type": "uint256"
            },
            {
              "internalType": "uint256",
              "name": "lease_start_date",
              "type": "uint256"
            },
            {
              "internalType": "uint256",
              "name": "lease_end_date",
              "type": "uint256"
            }
          ],
          "internalType": "struct Lilos_V1.ListingItem[]",
          "name": "",
          "type": "tuple[]"
        }
      ],
      "stateMutability": "view",
      "type": "function"
    },
    {
      "inputs": [
        {
          "internalType": "uint256",
          "name": "listingId_",
          "type": "uint256"
        }
      ],
      "name": "getIsExpiredByListingId",
      "outputs": [
        {
          "internalType": "bool",
          "name": "",
          "type": "bool"
        }
      ],
      "stateMutability": "view",
      "type": "function"
    },
    {
      "inputs": [
        {
          "internalType": "address",
          "name": "collection_",
          "type": "address"
        },
        {
          "internalType": "uint256",
          "name": "tokenId_",
          "type": "uint256"
        }
      ],
      "name": "getItemByCollctionAndTokenId",
      "outputs": [
        {
          "components": [
            {
              "internalType": "enum Lilos_V1.ListingStatus",
              "name": "status",
              "type": "uint8"
            },
            {
              "internalType": "address",
              "name": "lessor",
              "type": "address"
            },
            {
              "internalType": "address",
              "name": "lessee",
              "type": "address"
            },
            {
              "internalType": "address",
              "name": "collection",
              "type": "address"
            },
            {
              "internalType": "uint256",
              "name": "tokenId",
              "type": "uint256"
            },
            {
              "internalType": "uint256",
              "name": "collateral_value",
              "type": "uint256"
            },
            {
              "internalType": "uint256",
              "name": "rental_value",
              "type": "uint256"
            },
            {
              "internalType": "uint256",
              "name": "lease_term",
              "type": "uint256"
            },
            {
              "internalType": "uint256",
              "name": "lease_start_date",
              "type": "uint256"
            },
            {
              "internalType": "uint256",
              "name": "lease_end_date",
              "type": "uint256"
            }
          ],
          "internalType": "struct Lilos_V1.ListingItem",
          "name": "",
          "type": "tuple"
        }
      ],
      "stateMutability": "view",
      "type": "function"
    },
    {
      "inputs": [
        {
          "internalType": "uint256",
          "name": "listingId_",
          "type": "uint256"
        }
      ],
      "name": "getItemByListingId",
      "outputs": [
        {
          "components": [
            {
              "internalType": "enum Lilos_V1.ListingStatus",
              "name": "status",
              "type": "uint8"
            },
            {
              "internalType": "address",
              "name": "lessor",
              "type": "address"
            },
            {
              "internalType": "address",
              "name": "lessee",
              "type": "address"
            },
            {
              "internalType": "address",
              "name": "collection",
              "type": "address"
            },
            {
              "internalType": "uint256",
              "name": "tokenId",
              "type": "uint256"
            },
            {
              "internalType": "uint256",
              "name": "collateral_value",
              "type": "uint256"
            },
            {
              "internalType": "uint256",
              "name": "rental_value",
              "type": "uint256"
            },
            {
              "internalType": "uint256",
              "name": "lease_term",
              "type": "uint256"
            },
            {
              "internalType": "uint256",
              "name": "lease_start_date",
              "type": "uint256"
            },
            {
              "internalType": "uint256",
              "name": "lease_end_date",
              "type": "uint256"
            }
          ],
          "internalType": "struct Lilos_V1.ListingItem",
          "name": "",
          "type": "tuple"
        }
      ],
      "stateMutability": "view",
      "type": "function"
    },
    {
      "inputs": [
        {
          "internalType": "address",
          "name": "lessee_",
          "type": "address"
        }
      ],
      "name": "getItemsByLessee",
      "outputs": [
        {
          "components": [
            {
              "internalType": "enum Lilos_V1.ListingStatus",
              "name": "status",
              "type": "uint8"
            },
            {
              "internalType": "address",
              "name": "lessor",
              "type": "address"
            },
            {
              "internalType": "address",
              "name": "lessee",
              "type": "address"
            },
            {
              "internalType": "address",
              "name": "collection",
              "type": "address"
            },
            {
              "internalType": "uint256",
              "name": "tokenId",
              "type": "uint256"
            },
            {
              "internalType": "uint256",
              "name": "collateral_value",
              "type": "uint256"
            },
            {
              "internalType": "uint256",
              "name": "rental_value",
              "type": "uint256"
            },
            {
              "internalType": "uint256",
              "name": "lease_term",
              "type": "uint256"
            },
            {
              "internalType": "uint256",
              "name": "lease_start_date",
              "type": "uint256"
            },
            {
              "internalType": "uint256",
              "name": "lease_end_date",
              "type": "uint256"
            }
          ],
          "internalType": "struct Lilos_V1.ListingItem[]",
          "name": "",
          "type": "tuple[]"
        }
      ],
      "stateMutability": "view",
      "type": "function"
    },
    {
      "inputs": [
        {
          "internalType": "address",
          "name": "lessor_",
          "type": "address"
        }
      ],
      "name": "getItemsByLessor",
      "outputs": [
        {
          "components": [
            {
              "internalType": "enum Lilos_V1.ListingStatus",
              "name": "status",
              "type": "uint8"
            },
            {
              "internalType": "address",
              "name": "lessor",
              "type": "address"
            },
            {
              "internalType": "address",
              "name": "lessee",
              "type": "address"
            },
            {
              "internalType": "address",
              "name": "collection",
              "type": "address"
            },
            {
              "internalType": "uint256",
              "name": "tokenId",
              "type": "uint256"
            },
            {
              "internalType": "uint256",
              "name": "collateral_value",
              "type": "uint256"
            },
            {
              "internalType": "uint256",
              "name": "rental_value",
              "type": "uint256"
            },
            {
              "internalType": "uint256",
              "name": "lease_term",
              "type": "uint256"
            },
            {
              "internalType": "uint256",
              "name": "lease_start_date",
              "type": "uint256"
            },
            {
              "internalType": "uint256",
              "name": "lease_end_date",
              "type": "uint256"
            }
          ],
          "internalType": "struct Lilos_V1.ListingItem[]",
          "name": "",
          "type": "tuple[]"
        }
      ],
      "stateMutability": "view",
      "type": "function"
    },
    {
      "inputs": [],
      "name": "getLeasedItems",
      "outputs": [
        {
          "components": [
            {
              "internalType": "enum Lilos_V1.ListingStatus",
              "name": "status",
              "type": "uint8"
            },
            {
              "internalType": "address",
              "name": "lessor",
              "type": "address"
            },
            {
              "internalType": "address",
              "name": "lessee",
              "type": "address"
            },
            {
              "internalType": "address",
              "name": "collection",
              "type": "address"
            },
            {
              "internalType": "uint256",
              "name": "tokenId",
              "type": "uint256"
            },
            {
              "internalType": "uint256",
              "name": "collateral_value",
              "type": "uint256"
            },
            {
              "internalType": "uint256",
              "name": "rental_value",
              "type": "uint256"
            },
            {
              "internalType": "uint256",
              "name": "lease_term",
              "type": "uint256"
            },
            {
              "internalType": "uint256",
              "name": "lease_start_date",
              "type": "uint256"
            },
            {
              "internalType": "uint256",
              "name": "lease_end_date",
              "type": "uint256"
            }
          ],
          "internalType": "struct Lilos_V1.ListingItem[]",
          "name": "",
          "type": "tuple[]"
        }
      ],
      "stateMutability": "view",
      "type": "function"
    },
    {
      "inputs": [],
      "name": "getListingId",
      "outputs": [
        {
          "internalType": "uint256",
          "name": "",
          "type": "uint256"
        }
      ],
      "stateMutability": "view",
      "type": "function"
    },
    {
      "inputs": [],
      "name": "getTime",
      "outputs": [
        {
          "internalType": "uint256",
          "name": "",
          "type": "uint256"
        }
      ],
      "stateMutability": "view",
      "type": "function"
    },
    {
      "inputs": [
        {
          "internalType": "uint256",
          "name": "listingId_",
          "type": "uint256"
        }
      ],
      "name": "leaseIn",
      "outputs": [],
      "stateMutability": "payable",
      "type": "function"
    },
    {
      "inputs": [
        {
          "internalType": "uint256",
          "name": "listingId_",
          "type": "uint256"
        }
      ],
      "name": "liquidate",
      "outputs": [],
      "stateMutability": "nonpayable",
      "type": "function"
    },
    {
      "inputs": [
        {
          "internalType": "address",
          "name": "collection_",
          "type": "address"
        },
        {
          "internalType": "uint256",
          "name": "tokenId_",
          "type": "uint256"
        },
        {
          "internalType": "uint256",
          "name": "collateral_value_",
          "type": "uint256"
        },
        {
          "internalType": "uint256",
          "name": "rental_value_",
          "type": "uint256"
        },
        {
          "internalType": "uint256",
          "name": "lease_term_",
          "type": "uint256"
        }
      ],
      "name": "listToken",
      "outputs": [],
      "stateMutability": "nonpayable",
      "type": "function"
    },
    {
      "inputs": [],
      "name": "owner",
      "outputs": [
        {
          "internalType": "address",
          "name": "",
          "type": "address"
        }
      ],
      "stateMutability": "view",
      "type": "function"
    },
    {
      "inputs": [
        {
          "internalType": "uint256",
          "name": "listingId_",
          "type": "uint256"
        }
      ],
      "name": "repay",
      "outputs": [],
      "stateMutability": "nonpayable",
      "type": "function"
    }
  ],
  "bytecode": "0x6080604052605f600155612710600355620d2f00600655603c60075534801561002757600080fd5b50336000806101000a81548173ffffffffffffffffffffffffffffffffffffffff021916908373ffffffffffffffffffffffffffffffffffffffff1602179055506141e7806100776000396000f3fe6080604052600436106100f35760003560e01c80636cad9f411161008a578063bb4628e311610059578063bb4628e314610309578063c846511314610346578063eb510caf14610383578063ef88efbd146103ae576100f3565b80636cad9f411461025f5780638da5cb5b1461028a57806391f6611d146102b5578063964bc33f146102e0576100f3565b8063415f1240116100c6578063415f1240146101a35780634ba1d6aa146101cc578063557ed1ba146101f75780636a5be2c914610222576100f3565b8063156cff80146100f85780632213e5a3146101145780633353ff8a1461013d578063371fd8e61461017a575b600080fd5b610112600480360381019061010d9190612f63565b6103eb565b005b34801561012057600080fd5b5061013b60048036038101906101369190612fee565b61098b565b005b34801561014957600080fd5b50610164600480360381019061015f9190612f63565b61102e565b6040516101719190613084565b60405180910390f35b34801561018657600080fd5b506101a1600480360381019061019c9190612f63565b6110ad565b005b3480156101af57600080fd5b506101ca60048036038101906101c59190612f63565b611505565b005b3480156101d857600080fd5b506101e161188f565b6040516101ee91906132b0565b60405180910390f35b34801561020357600080fd5b5061020c611ac9565b60405161021991906132e1565b60405180910390f35b34801561022e57600080fd5b50610249600480360381019061024491906132fc565b611ad1565b60405161025691906132b0565b60405180910390f35b34801561026b57600080fd5b50610274611e39565b60405161028191906132b0565b60405180910390f35b34801561029657600080fd5b5061029f61216b565b6040516102ac9190613338565b60405180910390f35b3480156102c157600080fd5b506102ca61218f565b6040516102d791906132b0565b60405180910390f35b3480156102ec57600080fd5b5061030760048036038101906103029190612f63565b6124a9565b005b34801561031557600080fd5b50610330600480360381019061032b91906132fc565b6126c5565b60405161033d91906132b0565b60405180910390f35b34801561035257600080fd5b5061036d60048036038101906103689190612f63565b612a2d565b60405161037a919061341f565b60405180910390f35b34801561038f57600080fd5b50610398612bd4565b6040516103a591906132e1565b60405180910390f35b3480156103ba57600080fd5b506103d560048036038101906103d0919061343b565b612bde565b6040516103e2919061341f565b60405180910390f35b60006005600083815260200190815260200160002090508060000160019054906101000a900473ffffffffffffffffffffffffffffffffffffffff1673ffffffffffffffffffffffffffffffffffffffff163373ffffffffffffffffffffffffffffffffffffffff1603610494576040517f08c379a000000000000000000000000000000000000000000000000000000000815260040161048b906134d8565b60405180910390fd5b600060028111156104a8576104a76130cb565b5b8160000160009054906101000a900460ff1660028111156104cc576104cb6130cb565b5b1461050c576040517f08c379a000000000000000000000000000000000000000000000000000000000815260040161050390613544565b60405180910390fd5b60008160020160009054906101000a900473ffffffffffffffffffffffffffffffffffffffff1673ffffffffffffffffffffffffffffffffffffffff1663e985e9c58360000160019054906101000a900473ffffffffffffffffffffffffffffffffffffffff16306040518363ffffffff1660e01b8152600401610591929190613564565b602060405180830381865afa1580156105ae573d6000803e3d6000fd5b505050506040513d601f19601f820116820180604052508101906105d291906135b9565b9050806106075760028260000160006101000a81548160ff02191690836002811115610601576106006130cb565b5b02179055505b80610647576040517f08c379a000000000000000000000000000000000000000000000000000000000815260040161063e90613658565b60405180910390fd5b61066282600501548360040154612e3f90919063ffffffff16565b34146106a3576040517f08c379a000000000000000000000000000000000000000000000000000000000815260040161069a906136ea565b60405180910390fd5b8160020160009054906101000a900473ffffffffffffffffffffffffffffffffffffffff1673ffffffffffffffffffffffffffffffffffffffff166323b872dd8360000160019054906101000a900473ffffffffffffffffffffffffffffffffffffffff163385600301546040518463ffffffff1660e01b815260040161072c9392919061370a565b600060405180830381600087803b15801561074657600080fd5b505af115801561075a573d6000803e3d6000fd5b505050508160000160019054906101000a900473ffffffffffffffffffffffffffffffffffffffff1673ffffffffffffffffffffffffffffffffffffffff166108fc6107c860646107ba6001548760050154612e5590919063ffffffff16565b612e6b90919063ffffffff16565b9081150290604051600060405180830381858888f193505050501580156107f3573d6000803e3d6000fd5b5060018260000160006101000a81548160ff0219169083600281111561081c5761081b6130cb565b5b0217905550338260010160006101000a81548173ffffffffffffffffffffffffffffffffffffffff021916908373ffffffffffffffffffffffffffffffffffffffff16021790555042826007018190555061088882600601548360070154612e3f90919063ffffffff16565b82600801819055508160010160009054906101000a900473ffffffffffffffffffffffffffffffffffffffff1673ffffffffffffffffffffffffffffffffffffffff168260000160019054906101000a900473ffffffffffffffffffffffffffffffffffffffff1673ffffffffffffffffffffffffffffffffffffffff16847fff458956ff88fac547fd065c4ce27b6611e74dbe594d7dc9b704da0271b2fbb58560020160009054906101000a900473ffffffffffffffffffffffffffffffffffffffff1686600301548760040154886005015489600601548a600701548b6008015460405161097e9796959493929190613741565b60405180910390a4505050565b60035460025411156109d2576040517f08c379a00000000000000000000000000000000000000000000000000000000081526004016109c990613822565b60405180910390fd5b60001515600460008773ffffffffffffffffffffffffffffffffffffffff1673ffffffffffffffffffffffffffffffffffffffff168152602001908152602001600020600086815260200190815260200160002060009054906101000a900460ff16151514610a76576040517f08c379a0000000000000000000000000000000000000000000000000000000008152600401610a6d9061388e565b60405180910390fd5b8473ffffffffffffffffffffffffffffffffffffffff1663e985e9c533306040518363ffffffff1660e01b8152600401610ab1929190613564565b602060405180830381865afa158015610ace573d6000803e3d6000fd5b505050506040513d601f19601f82011682018060405250810190610af291906135b9565b610b31576040517f08c379a0000000000000000000000000000000000000000000000000000000008152600401610b2890613946565b60405180910390fd5b3373ffffffffffffffffffffffffffffffffffffffff168573ffffffffffffffffffffffffffffffffffffffff16636352211e866040518263ffffffff1660e01b8152600401610b8191906132e1565b602060405180830381865afa158015610b9e573d6000803e3d6000fd5b505050506040513d601f19601f82011682018060405250810190610bc2919061397b565b73ffffffffffffffffffffffffffffffffffffffff1614610c18576040517f08c379a0000000000000000000000000000000000000000000000000000000008152600401610c0f906139f4565b60405180910390fd5b60008311610c5b576040517f08c379a0000000000000000000000000000000000000000000000000000000008152600401610c5290613a86565b60405180910390fd5b60008211610c9e576040517f08c379a0000000000000000000000000000000000000000000000000000000008152600401610c9590613b18565b60405180910390fd5b6007548111610ce2576040517f08c379a0000000000000000000000000000000000000000000000000000000008152600401610cd990613baa565b60405180910390fd5b6006548110610d26576040517f08c379a0000000000000000000000000000000000000000000000000000000008152600401610d1d90613c3c565b60405180910390fd5b600060405180610140016040528060006002811115610d4857610d476130cb565b5b81526020013373ffffffffffffffffffffffffffffffffffffffff168152602001600073ffffffffffffffffffffffffffffffffffffffff1681526020018773ffffffffffffffffffffffffffffffffffffffff16815260200186815260200185815260200184815260200183815260200160085481526020016008548152509050600160046000836060015173ffffffffffffffffffffffffffffffffffffffff1673ffffffffffffffffffffffffffffffffffffffff16815260200190815260200160002060008360800151815260200190815260200160002060006101000a81548160ff0219169083151502179055508060056000600254815260200190815260200160002060008201518160000160006101000a81548160ff02191690836002811115610e7c57610e7b6130cb565b5b021790555060208201518160000160016101000a81548173ffffffffffffffffffffffffffffffffffffffff021916908373ffffffffffffffffffffffffffffffffffffffff16021790555060408201518160010160006101000a81548173ffffffffffffffffffffffffffffffffffffffff021916908373ffffffffffffffffffffffffffffffffffffffff16021790555060608201518160020160006101000a81548173ffffffffffffffffffffffffffffffffffffffff021916908373ffffffffffffffffffffffffffffffffffffffff1602179055506080820151816003015560a0820151816004015560c0820151816005015560e08201518160060155610100820151816007015561012082015181600801559050503373ffffffffffffffffffffffffffffffffffffffff166002547f5434c4e750c029ca5d51034d6eb735a40ddfb45ff05e9b7b3fb6e95d1d71ea178360000151846060015185608001518660a001518760c001518860e0015160405161100296959493929190613c6b565b60405180910390a36110206001600254612e3f90919063ffffffff16565b600281905550505050505050565b60008060016002811115611045576110446130cb565b5b6005600085815260200190815260200160002060000160009054906101000a900460ff16600281111561107b5761107a6130cb565b5b036110a45760056000848152602001908152602001600020600801544211156110a357600190505b5b80915050919050565b6000600560008381526020019081526020016000209050600160028111156110d8576110d76130cb565b5b8160000160009054906101000a900460ff1660028111156110fc576110fb6130cb565b5b1461113c576040517f08c379a000000000000000000000000000000000000000000000000000000000815260040161113390613d18565b60405180910390fd5b3073ffffffffffffffffffffffffffffffffffffffff168160020160009054906101000a900473ffffffffffffffffffffffffffffffffffffffff1673ffffffffffffffffffffffffffffffffffffffff16636352211e83600301546040518263ffffffff1660e01b81526004016111b491906132e1565b602060405180830381865afa1580156111d1573d6000803e3d6000fd5b505050506040513d601f19601f820116820180604052508101906111f5919061397b565b73ffffffffffffffffffffffffffffffffffffffff161461124b576040517f08c379a000000000000000000000000000000000000000000000000000000000815260040161124290613daa565b60405180910390fd5b3373ffffffffffffffffffffffffffffffffffffffff166108fc82600401549081150290604051600060405180830381858888f19350505050158015611295573d6000803e3d6000fd5b506000600460008360020160009054906101000a900473ffffffffffffffffffffffffffffffffffffffff1673ffffffffffffffffffffffffffffffffffffffff1673ffffffffffffffffffffffffffffffffffffffff16815260200190815260200160002060008360030154815260200190815260200160002060006101000a81548160ff02191690831515021790555060028160000160006101000a81548160ff0219169083600281111561134f5761134e6130cb565b5b02179055508060020160009054906101000a900473ffffffffffffffffffffffffffffffffffffffff1673ffffffffffffffffffffffffffffffffffffffff166323b872dd308360000160019054906101000a900473ffffffffffffffffffffffffffffffffffffffff1684600301546040518463ffffffff1660e01b81526004016113dd9392919061370a565b600060405180830381600087803b1580156113f757600080fd5b505af115801561140b573d6000803e3d6000fd5b505050503373ffffffffffffffffffffffffffffffffffffffff168160010160009054906101000a900473ffffffffffffffffffffffffffffffffffffffff1673ffffffffffffffffffffffffffffffffffffffff16837fd693938855509ad224b6f0b13c57e85a3419ac8540e769361bfefd78de6920148460000160019054906101000a900473ffffffffffffffffffffffffffffffffffffffff168560020160009054906101000a900473ffffffffffffffffffffffffffffffffffffffff1686600301548760040154886006015489600701548a600801546040516114f99796959493929190613dca565b60405180910390a45050565b6000600560008381526020019081526020016000209050600160028111156115305761152f6130cb565b5b8160000160009054906101000a900460ff166002811115611554576115536130cb565b5b14611594576040517f08c379a000000000000000000000000000000000000000000000000000000000815260040161158b90613d18565b60405180910390fd5b3373ffffffffffffffffffffffffffffffffffffffff168160000160019054906101000a900473ffffffffffffffffffffffffffffffffffffffff1673ffffffffffffffffffffffffffffffffffffffff1614611626576040517f08c379a000000000000000000000000000000000000000000000000000000000815260040161161d90613eab565b60405180910390fd5b8060080154421161166c576040517f08c379a000000000000000000000000000000000000000000000000000000000815260040161166390613f17565b60405180910390fd5b8060000160019054906101000a900473ffffffffffffffffffffffffffffffffffffffff1673ffffffffffffffffffffffffffffffffffffffff166108fc82600401549081150290604051600060405180830381858888f193505050501580156116da573d6000803e3d6000fd5b506000600460008360020160009054906101000a900473ffffffffffffffffffffffffffffffffffffffff1673ffffffffffffffffffffffffffffffffffffffff1673ffffffffffffffffffffffffffffffffffffffff16815260200190815260200160002060008360030154815260200190815260200160002060006101000a81548160ff02191690831515021790555060028160000160006101000a81548160ff02191690836002811115611794576117936130cb565b5b02179055508060010160009054906101000a900473ffffffffffffffffffffffffffffffffffffffff1673ffffffffffffffffffffffffffffffffffffffff168160000160019054906101000a900473ffffffffffffffffffffffffffffffffffffffff1673ffffffffffffffffffffffffffffffffffffffff16837fb2ad999e088f3804d59758e4ac42515faf31507578a12b712f4d997c986c3f208460020160009054906101000a900473ffffffffffffffffffffffffffffffffffffffff1685600301548660040154876006015488600701548960080154426040516118839796959493929190613741565b60405180910390a45050565b6060600060025467ffffffffffffffff8111156118af576118ae613f37565b5b6040519080825280602002602001820160405280156118e857816020015b6118d5612e81565b8152602001906001900390816118cd5790505b50905060005b600254811015611ac15760056000828152602001908152602001600020604051806101400160405290816000820160009054906101000a900460ff16600281111561193c5761193b6130cb565b5b600281111561194e5761194d6130cb565b5b81526020016000820160019054906101000a900473ffffffffffffffffffffffffffffffffffffffff1673ffffffffffffffffffffffffffffffffffffffff1673ffffffffffffffffffffffffffffffffffffffff1681526020016001820160009054906101000a900473ffffffffffffffffffffffffffffffffffffffff1673ffffffffffffffffffffffffffffffffffffffff1673ffffffffffffffffffffffffffffffffffffffff1681526020016002820160009054906101000a900473ffffffffffffffffffffffffffffffffffffffff1673ffffffffffffffffffffffffffffffffffffffff1673ffffffffffffffffffffffffffffffffffffffff1681526020016003820154815260200160048201548152602001600582015481526020016006820154815260200160078201548152602001600882015481525050828281518110611aa357611aa2613f66565b5b60200260200101819052508080611ab990613fc4565b9150506118ee565b508091505090565b600042905090565b606060008060005b6001600254611ae8919061400c565b811015611b7a578473ffffffffffffffffffffffffffffffffffffffff166005600083815260200190815260200160002060000160019054906101000a900473ffffffffffffffffffffffffffffffffffffffff1673ffffffffffffffffffffffffffffffffffffffff1603611b67578280611b6390613fc4565b9350505b8080611b7290613fc4565b915050611ad9565b5060008267ffffffffffffffff811115611b9757611b96613f37565b5b604051908082528060200260200182016040528015611bd057816020015b611bbd612e81565b815260200190600190039081611bb55790505b50905060005b6001600254611be5919061400c565b811015611e2d578573ffffffffffffffffffffffffffffffffffffffff166005600083815260200190815260200160002060000160019054906101000a900473ffffffffffffffffffffffffffffffffffffffff1673ffffffffffffffffffffffffffffffffffffffff1603611e1a5760056000828152602001908152602001600020604051806101400160405290816000820160009054906101000a900460ff166002811115611c9957611c986130cb565b5b6002811115611cab57611caa6130cb565b5b81526020016000820160019054906101000a900473ffffffffffffffffffffffffffffffffffffffff1673ffffffffffffffffffffffffffffffffffffffff1673ffffffffffffffffffffffffffffffffffffffff1681526020016001820160009054906101000a900473ffffffffffffffffffffffffffffffffffffffff1673ffffffffffffffffffffffffffffffffffffffff1673ffffffffffffffffffffffffffffffffffffffff1681526020016002820160009054906101000a900473ffffffffffffffffffffffffffffffffffffffff1673ffffffffffffffffffffffffffffffffffffffff1673ffffffffffffffffffffffffffffffffffffffff1681526020016003820154815260200160048201548152602001600582015481526020016006820154815260200160078201548152602001600882015481525050828481518110611e0057611dff613f66565b5b60200260200101819052508280611e1690613fc4565b9350505b8080611e2590613fc4565b915050611bd6565b50809350505050919050565b606060008060005b6001600254611e50919061400c565b811015611ec85760016002811115611e6b57611e6a6130cb565b5b6005600083815260200190815260200160002060000160009054906101000a900460ff166002811115611ea157611ea06130cb565b5b03611eb5578280611eb190613fc4565b9350505b8080611ec090613fc4565b915050611e41565b5060008267ffffffffffffffff811115611ee557611ee4613f37565b5b604051908082528060200260200182016040528015611f1e57816020015b611f0b612e81565b815260200190600190039081611f035790505b50905060005b6001600254611f33919061400c565b8110156121615760016002811115611f4e57611f4d6130cb565b5b6005600083815260200190815260200160002060000160009054906101000a900460ff166002811115611f8457611f836130cb565b5b0361214e5760056000828152602001908152602001600020604051806101400160405290816000820160009054906101000a900460ff166002811115611fcd57611fcc6130cb565b5b6002811115611fdf57611fde6130cb565b5b81526020016000820160019054906101000a900473ffffffffffffffffffffffffffffffffffffffff1673ffffffffffffffffffffffffffffffffffffffff1673ffffffffffffffffffffffffffffffffffffffff1681526020016001820160009054906101000a900473ffffffffffffffffffffffffffffffffffffffff1673ffffffffffffffffffffffffffffffffffffffff1673ffffffffffffffffffffffffffffffffffffffff1681526020016002820160009054906101000a900473ffffffffffffffffffffffffffffffffffffffff1673ffffffffffffffffffffffffffffffffffffffff1673ffffffffffffffffffffffffffffffffffffffff168152602001600382015481526020016004820154815260200160058201548152602001600682015481526020016007820154815260200160088201548152505082848151811061213457612133613f66565b5b6020026020010181905250828061214a90613fc4565b9350505b808061215990613fc4565b915050611f24565b5080935050505090565b60008054906101000a900473ffffffffffffffffffffffffffffffffffffffff1681565b606060008060005b60025481101561221257600060028111156121b5576121b46130cb565b5b6005600083815260200190815260200160002060000160009054906101000a900460ff1660028111156121eb576121ea6130cb565b5b036121ff5782806121fb90613fc4565b9350505b808061220a90613fc4565b915050612197565b5060008267ffffffffffffffff81111561222f5761222e613f37565b5b60405190808252806020026020018201604052801561226857816020015b612255612e81565b81526020019060019003908161224d5790505b50905060005b60025481101561249f576000600281111561228c5761228b6130cb565b5b6005600083815260200190815260200160002060000160009054906101000a900460ff1660028111156122c2576122c16130cb565b5b0361248c5760056000828152602001908152602001600020604051806101400160405290816000820160009054906101000a900460ff16600281111561230b5761230a6130cb565b5b600281111561231d5761231c6130cb565b5b81526020016000820160019054906101000a900473ffffffffffffffffffffffffffffffffffffffff1673ffffffffffffffffffffffffffffffffffffffff1673ffffffffffffffffffffffffffffffffffffffff1681526020016001820160009054906101000a900473ffffffffffffffffffffffffffffffffffffffff1673ffffffffffffffffffffffffffffffffffffffff1673ffffffffffffffffffffffffffffffffffffffff1681526020016002820160009054906101000a900473ffffffffffffffffffffffffffffffffffffffff1673ffffffffffffffffffffffffffffffffffffffff1673ffffffffffffffffffffffffffffffffffffffff168152602001600382015481526020016004820154815260200160058201548152602001600682015481526020016007820154815260200160088201548152505082848151811061247257612471613f66565b5b6020026020010181905250828061248890613fc4565b9350505b808061249790613fc4565b91505061226e565b5080935050505090565b60006005600083815260200190815260200160002090508060000160019054906101000a900473ffffffffffffffffffffffffffffffffffffffff1673ffffffffffffffffffffffffffffffffffffffff163373ffffffffffffffffffffffffffffffffffffffff1614612552576040517f08c379a0000000000000000000000000000000000000000000000000000000008152600401612549906140ae565b60405180910390fd5b60006002811115612566576125656130cb565b5b8160000160009054906101000a900460ff16600281111561258a576125896130cb565b5b146125ca576040517f08c379a00000000000000000000000000000000000000000000000000000000081526004016125c190613544565b60405180910390fd5b6000600460008360020160009054906101000a900473ffffffffffffffffffffffffffffffffffffffff1673ffffffffffffffffffffffffffffffffffffffff1673ffffffffffffffffffffffffffffffffffffffff16815260200190815260200160002060008360030154815260200190815260200160002060006101000a81548160ff02191690831515021790555060028160000160006101000a81548160ff02191690836002811115612683576126826130cb565b5b02179055507f8e51b30707579d5dafbd56c2b27a7d382dd32fce8afa83687e99daf0ee47f8af82336040516126b99291906140ce565b60405180910390a15050565b606060008060005b60016002546126dc919061400c565b81101561276e578473ffffffffffffffffffffffffffffffffffffffff166005600083815260200190815260200160002060010160009054906101000a900473ffffffffffffffffffffffffffffffffffffffff1673ffffffffffffffffffffffffffffffffffffffff160361275b57828061275790613fc4565b9350505b808061276690613fc4565b9150506126cd565b5060008267ffffffffffffffff81111561278b5761278a613f37565b5b6040519080825280602002602001820160405280156127c457816020015b6127b1612e81565b8152602001906001900390816127a95790505b50905060005b60016002546127d9919061400c565b811015612a21578573ffffffffffffffffffffffffffffffffffffffff166005600083815260200190815260200160002060010160009054906101000a900473ffffffffffffffffffffffffffffffffffffffff1673ffffffffffffffffffffffffffffffffffffffff1603612a0e5760056000828152602001908152602001600020604051806101400160405290816000820160009054906101000a900460ff16600281111561288d5761288c6130cb565b5b600281111561289f5761289e6130cb565b5b81526020016000820160019054906101000a900473ffffffffffffffffffffffffffffffffffffffff1673ffffffffffffffffffffffffffffffffffffffff1673ffffffffffffffffffffffffffffffffffffffff1681526020016001820160009054906101000a900473ffffffffffffffffffffffffffffffffffffffff1673ffffffffffffffffffffffffffffffffffffffff1673ffffffffffffffffffffffffffffffffffffffff1681526020016002820160009054906101000a900473ffffffffffffffffffffffffffffffffffffffff1673ffffffffffffffffffffffffffffffffffffffff1673ffffffffffffffffffffffffffffffffffffffff16815260200160038201548152602001600482015481526020016005820154815260200160068201548152602001600782015481526020016008820154815250508284815181106129f4576129f3613f66565b5b60200260200101819052508280612a0a90613fc4565b9350505b8080612a1990613fc4565b9150506127ca565b50809350505050919050565b612a35612e81565b60056000838152602001908152602001600020604051806101400160405290816000820160009054906101000a900460ff166002811115612a7957612a786130cb565b5b6002811115612a8b57612a8a6130cb565b5b81526020016000820160019054906101000a900473ffffffffffffffffffffffffffffffffffffffff1673ffffffffffffffffffffffffffffffffffffffff1673ffffffffffffffffffffffffffffffffffffffff1681526020016001820160009054906101000a900473ffffffffffffffffffffffffffffffffffffffff1673ffffffffffffffffffffffffffffffffffffffff1673ffffffffffffffffffffffffffffffffffffffff1681526020016002820160009054906101000a900473ffffffffffffffffffffffffffffffffffffffff1673ffffffffffffffffffffffffffffffffffffffff1673ffffffffffffffffffffffffffffffffffffffff16815260200160038201548152602001600482015481526020016005820154815260200160068201548152602001600782015481526020016008820154815250509050919050565b6000600254905090565b612be6612e81565b612bee612e81565b60005b600254811015612e34578473ffffffffffffffffffffffffffffffffffffffff166005600083815260200190815260200160002060020160009054906101000a900473ffffffffffffffffffffffffffffffffffffffff1673ffffffffffffffffffffffffffffffffffffffff16148015612c815750836005600083815260200190815260200160002060030154145b15612e215760056000828152602001908152602001600020604051806101400160405290816000820160009054906101000a900460ff166002811115612cca57612cc96130cb565b5b6002811115612cdc57612cdb6130cb565b5b81526020016000820160019054906101000a900473ffffffffffffffffffffffffffffffffffffffff1673ffffffffffffffffffffffffffffffffffffffff1673ffffffffffffffffffffffffffffffffffffffff1681526020016001820160009054906101000a900473ffffffffffffffffffffffffffffffffffffffff1673ffffffffffffffffffffffffffffffffffffffff1673ffffffffffffffffffffffffffffffffffffffff1681526020016002820160009054906101000a900473ffffffffffffffffffffffffffffffffffffffff1673ffffffffffffffffffffffffffffffffffffffff1673ffffffffffffffffffffffffffffffffffffffff168152602001600382015481526020016004820154815260200160058201548152602001600682015481526020016007820154815260200160088201548152505091505b8080612e2c90613fc4565b915050612bf1565b508091505092915050565b60008183612e4d919061400c565b905092915050565b60008183612e6391906140f7565b905092915050565b60008183612e799190614180565b905092915050565b60405180610140016040528060006002811115612ea157612ea06130cb565b5b8152602001600073ffffffffffffffffffffffffffffffffffffffff168152602001600073ffffffffffffffffffffffffffffffffffffffff168152602001600073ffffffffffffffffffffffffffffffffffffffff1681526020016000815260200160008152602001600081526020016000815260200160008152602001600081525090565b600080fd5b6000819050919050565b612f4081612f2d565b8114612f4b57600080fd5b50565b600081359050612f5d81612f37565b92915050565b600060208284031215612f7957612f78612f28565b5b6000612f8784828501612f4e565b91505092915050565b600073ffffffffffffffffffffffffffffffffffffffff82169050919050565b6000612fbb82612f90565b9050919050565b612fcb81612fb0565b8114612fd657600080fd5b50565b600081359050612fe881612fc2565b92915050565b600080600080600060a0868803121561300a57613009612f28565b5b600061301888828901612fd9565b955050602061302988828901612f4e565b945050604061303a88828901612f4e565b935050606061304b88828901612f4e565b925050608061305c88828901612f4e565b9150509295509295909350565b60008115159050919050565b61307e81613069565b82525050565b60006020820190506130996000830184613075565b92915050565b600081519050919050565b600082825260208201905092915050565b6000819050602082019050919050565b7f4e487b7100000000000000000000000000000000000000000000000000000000600052602160045260246000fd5b6003811061310b5761310a6130cb565b5b50565b600081905061311c826130fa565b919050565b600061312c8261310e565b9050919050565b61313c81613121565b82525050565b61314b81612fb0565b82525050565b61315a81612f2d565b82525050565b610140820160008201516131776000850182613133565b50602082015161318a6020850182613142565b50604082015161319d6040850182613142565b5060608201516131b06060850182613142565b5060808201516131c36080850182613151565b5060a08201516131d660a0850182613151565b5060c08201516131e960c0850182613151565b5060e08201516131fc60e0850182613151565b50610100820151613211610100850182613151565b50610120820151613226610120850182613151565b50505050565b60006132388383613160565b6101408301905092915050565b6000602082019050919050565b600061325d8261309f565b61326781856130aa565b9350613272836130bb565b8060005b838110156132a357815161328a888261322c565b975061329583613245565b925050600181019050613276565b5085935050505092915050565b600060208201905081810360008301526132ca8184613252565b905092915050565b6132db81612f2d565b82525050565b60006020820190506132f660008301846132d2565b92915050565b60006020828403121561331257613311612f28565b5b600061332084828501612fd9565b91505092915050565b61333281612fb0565b82525050565b600060208201905061334d6000830184613329565b92915050565b6101408201600082015161336a6000850182613133565b50602082015161337d6020850182613142565b5060408201516133906040850182613142565b5060608201516133a36060850182613142565b5060808201516133b66080850182613151565b5060a08201516133c960a0850182613151565b5060c08201516133dc60c0850182613151565b5060e08201516133ef60e0850182613151565b50610100820151613404610100850182613151565b50610120820151613419610120850182613151565b50505050565b6000610140820190506134356000830184613353565b92915050565b6000806040838503121561345257613451612f28565b5b600061346085828601612fd9565b925050602061347185828601612f4e565b9150509250929050565b600082825260208201905092915050565b7f4c6573736f722063616e6e6f74206265206c65737365652e0000000000000000600082015250565b60006134c260188361347b565b91506134cd8261348c565b602082019050919050565b600060208201905081810360008301526134f1816134b5565b9050919050565b7f4c697374696e67206973206e6f74206163746976652e00000000000000000000600082015250565b600061352e60168361347b565b9150613539826134f8565b602082019050919050565b6000602082019050818103600083015261355d81613521565b9050919050565b60006040820190506135796000830185613329565b6135866020830184613329565b9392505050565b61359681613069565b81146135a157600080fd5b50565b6000815190506135b38161358d565b92915050565b6000602082840312156135cf576135ce612f28565b5b60006135dd848285016135a4565b91505092915050565b7f4c6573736f722072656d6f7665642074686520617070726f76616c206f66207460008201527f686520746f6b656e20746f2074686520636f6e74726163742e00000000000000602082015250565b600061364260398361347b565b915061364d826135e6565b604082019050919050565b6000602082019050818103600083015261367181613635565b9050919050565b7f6d73672e76616c756520646f7365206e6f74206d617463682074686520746f7460008201527f616c207370656e64696e672e0000000000000000000000000000000000000000602082015250565b60006136d4602c8361347b565b91506136df82613678565b604082019050919050565b60006020820190508181036000830152613703816136c7565b9050919050565b600060608201905061371f6000830186613329565b61372c6020830185613329565b61373960408301846132d2565b949350505050565b600060e082019050613756600083018a613329565b61376360208301896132d2565b61377060408301886132d2565b61377d60608301876132d2565b61378a60808301866132d2565b61379760a08301856132d2565b6137a460c08301846132d2565b98975050505050505050565b7f546865206c697374696e67206e756d626572207265616368656420746865206c60008201527f696d69742e000000000000000000000000000000000000000000000000000000602082015250565b600061380c60258361347b565b9150613817826137b0565b604082019050919050565b6000602082019050818103600083015261383b816137ff565b9050919050565b7f5468697320746f6b656e20697320616c7265616479206c69737465642e000000600082015250565b6000613878601d8361347b565b915061388382613842565b602082019050919050565b600060208201905081810360008301526138a78161386b565b9050919050565b7f4c6573736f722073686f756c6420617070726f7665204c696c6f7320636f6e7460008201527f7261637420746f2061636365737320616c6c20746f6b656e73206f662074686560208201527f20636f6c6c656374696f6e2e0000000000000000000000000000000000000000604082015250565b6000613930604c8361347b565b915061393b826138ae565b606082019050919050565b6000602082019050818103600083015261395f81613923565b9050919050565b60008151905061397581612fc2565b92915050565b60006020828403121561399157613990612f28565b5b600061399f84828501613966565b91505092915050565b7f4c6573736f72206d7573742062652074686520746f6b656e206f776e65722e00600082015250565b60006139de601f8361347b565b91506139e9826139a8565b602082019050919050565b60006020820190508181036000830152613a0d816139d1565b9050919050565b7f436f6c6c61746572616c2076616c75652073686f756c64206265206c6172676560008201527f72207468616e207a65726f2e0000000000000000000000000000000000000000602082015250565b6000613a70602c8361347b565b9150613a7b82613a14565b604082019050919050565b60006020820190508181036000830152613a9f81613a63565b9050919050565b7f52656e742076616c75652073686f756c64206265206c6172676572207468616e60008201527f207a65726f2e0000000000000000000000000000000000000000000000000000602082015250565b6000613b0260268361347b565b9150613b0d82613aa6565b604082019050919050565b60006020820190508181036000830152613b3181613af5565b9050919050565b7f4c65617365207465726d2073686f756c64206265206c6f6e676572207468616e60008201527f2031206d696e757465732e000000000000000000000000000000000000000000602082015250565b6000613b94602b8361347b565b9150613b9f82613b38565b604082019050919050565b60006020820190508181036000830152613bc381613b87565b9050919050565b7f4c65617365207465726d2073686f756c642062652073686f727465722074686160008201527f6e20313020646179732e00000000000000000000000000000000000000000000602082015250565b6000613c26602a8361347b565b9150613c3182613bca565b604082019050919050565b60006020820190508181036000830152613c5581613c19565b9050919050565b613c6581613121565b82525050565b600060c082019050613c806000830189613c5c565b613c8d6020830188613329565b613c9a60408301876132d2565b613ca760608301866132d2565b613cb460808301856132d2565b613cc160a08301846132d2565b979650505050505050565b7f546f6b656e206973206e6f74206c65617365642e000000000000000000000000600082015250565b6000613d0260148361347b565b9150613d0d82613ccc565b602082019050919050565b60006020820190508181036000830152613d3181613cf5565b9050919050565b7f546f6b656e206973206e6f7420696e2074686520636f6e74726163742076617560008201527f6c742e0000000000000000000000000000000000000000000000000000000000602082015250565b6000613d9460238361347b565b9150613d9f82613d38565b604082019050919050565b60006020820190508181036000830152613dc381613d87565b9050919050565b600060e082019050613ddf600083018a613329565b613dec6020830189613329565b613df960408301886132d2565b613e0660608301876132d2565b613e1360808301866132d2565b613e2060a08301856132d2565b613e2d60c08301846132d2565b98975050505050505050565b7f4c69717569646174696f6e2063616e206f6e6c7920626520696d706c656d656e60008201527f746564206279206c6573736f722e000000000000000000000000000000000000602082015250565b6000613e95602e8361347b565b9150613ea082613e39565b604082019050919050565b60006020820190508181036000830152613ec481613e88565b9050919050565b7f4c65617365206973206e6f7420657870697265642e0000000000000000000000600082015250565b6000613f0160158361347b565b9150613f0c82613ecb565b602082019050919050565b60006020820190508181036000830152613f3081613ef4565b9050919050565b7f4e487b7100000000000000000000000000000000000000000000000000000000600052604160045260246000fd5b7f4e487b7100000000000000000000000000000000000000000000000000000000600052603260045260246000fd5b7f4e487b7100000000000000000000000000000000000000000000000000000000600052601160045260246000fd5b6000613fcf82612f2d565b91507fffffffffffffffffffffffffffffffffffffffffffffffffffffffffffffffff820361400157614000613f95565b5b600182019050919050565b600061401782612f2d565b915061402283612f2d565b9250827fffffffffffffffffffffffffffffffffffffffffffffffffffffffffffffffff0382111561405757614056613f95565b5b828201905092915050565b7f4f6e6c79206c6573736f722063616e2063616e63656c206c697374696e672e00600082015250565b6000614098601f8361347b565b91506140a382614062565b602082019050919050565b600060208201905081810360008301526140c78161408b565b9050919050565b60006040820190506140e360008301856132d2565b6140f06020830184613329565b9392505050565b600061410282612f2d565b915061410d83612f2d565b9250817fffffffffffffffffffffffffffffffffffffffffffffffffffffffffffffffff048311821515161561414657614145613f95565b5b828202905092915050565b7f4e487b7100000000000000000000000000000000000000000000000000000000600052601260045260246000fd5b600061418b82612f2d565b915061419683612f2d565b9250826141a6576141a5614151565b5b82820490509291505056fea2646970667358221220c365c48e934496356d73b66752f73e9ba9e5401906da8d06f0217a3965167a2364736f6c634300080e0033",
  "linkReferences": {},
  "deployedLinkReferences": {}
}