{
  "_format": "hh-sol-artifact-1",
  "contractName": "Lilos_V1",
  "sourceName": "contracts/Lilo_V1.sol",
  "abi": [
    {
      "inputs": [],
      "stateMutability": "nonpayable",
      "type": "constructor"
    },
    {
      "anonymous": false,
      "inputs": [
        {
          "indexed": false,
          "internalType": "uint256",
          "name": "listingId",
          "type": "uint256"
        },
        {
          "indexed": false,
          "internalType": "address",
          "name": "lessor",
          "type": "address"
        }
      ],
      "name": "Delisted",
      "type": "event"
    },
    {
      "anonymous": false,
      "inputs": [
        {
          "indexed": true,
          "internalType": "uint256",
          "name": "listingId",
          "type": "uint256"
        },
        {
          "indexed": true,
          "internalType": "address",
          "name": "lessor",
          "type": "address"
        },
        {
          "indexed": true,
          "internalType": "address",
          "name": "lessee",
          "type": "address"
        },
        {
          "indexed": false,
          "internalType": "address",
          "name": "collection",
          "type": "address"
        },
        {
          "indexed": false,
          "internalType": "uint256",
          "name": "tokenId",
          "type": "uint256"
        },
        {
          "indexed": false,
          "internalType": "uint256",
          "name": "collateral_value",
          "type": "uint256"
        },
        {
          "indexed": false,
          "internalType": "uint256",
          "name": "rental_value",
          "type": "uint256"
        },
        {
          "indexed": false,
          "internalType": "uint256",
          "name": "lease_term",
          "type": "uint256"
        },
        {
          "indexed": false,
          "internalType": "uint256",
          "name": "lease_start_date",
          "type": "uint256"
        },
        {
          "indexed": false,
          "internalType": "uint256",
          "name": "lease_end_date",
          "type": "uint256"
        }
      ],
      "name": "Leased",
      "type": "event"
    },
    {
      "anonymous": false,
      "inputs": [
        {
          "indexed": true,
          "internalType": "uint256",
          "name": "listingId",
          "type": "uint256"
        },
        {
          "indexed": true,
          "internalType": "address",
          "name": "lessor",
          "type": "address"
        },
        {
          "indexed": true,
          "internalType": "address",
          "name": "lessee",
          "type": "address"
        },
        {
          "indexed": false,
          "internalType": "address",
          "name": "collection",
          "type": "address"
        },
        {
          "indexed": false,
          "internalType": "uint256",
          "name": "tokenId",
          "type": "uint256"
        },
        {
          "indexed": false,
          "internalType": "uint256",
          "name": "collateral_value",
          "type": "uint256"
        },
        {
          "indexed": false,
          "internalType": "uint256",
          "name": "lease_term",
          "type": "uint256"
        },
        {
          "indexed": false,
          "internalType": "uint256",
          "name": "lease_start_date",
          "type": "uint256"
        },
        {
          "indexed": false,
          "internalType": "uint256",
          "name": "lease_end_date",
          "type": "uint256"
        },
        {
          "indexed": false,
          "internalType": "uint256",
          "name": "Liquidated_date",
          "type": "uint256"
        }
      ],
      "name": "Liquidated",
      "type": "event"
    },
    {
      "anonymous": false,
      "inputs": [
        {
          "indexed": true,
          "internalType": "uint256",
          "name": "listingId",
          "type": "uint256"
        },
        {
          "indexed": false,
          "internalType": "enum Lilos_V1.ListingStatus",
          "name": "status",
          "type": "uint8"
        },
        {
          "indexed": true,
          "internalType": "address",
          "name": "lessor",
          "type": "address"
        },
        {
          "indexed": false,
          "internalType": "address",
          "name": "collection",
          "type": "address"
        },
        {
          "indexed": false,
          "internalType": "uint256",
          "name": "tokenId",
          "type": "uint256"
        },
        {
          "indexed": false,
          "internalType": "uint256",
          "name": "collateral_value",
          "type": "uint256"
        },
        {
          "indexed": false,
          "internalType": "uint256",
          "name": "rental_value",
          "type": "uint256"
        },
        {
          "indexed": false,
          "internalType": "uint256",
          "name": "lease_term",
          "type": "uint256"
        }
      ],
      "name": "Listed",
      "type": "event"
    },
    {
      "anonymous": false,
      "inputs": [
        {
          "indexed": true,
          "internalType": "address",
          "name": "previousOwner",
          "type": "address"
        },
        {
          "indexed": true,
          "internalType": "address",
          "name": "newOwner",
          "type": "address"
        }
      ],
      "name": "OwnershipTransferred",
      "type": "event"
    },
    {
      "anonymous": false,
      "inputs": [
        {
          "indexed": true,
          "internalType": "uint256",
          "name": "listingId",
          "type": "uint256"
        },
        {
          "indexed": true,
          "internalType": "address",
          "name": "lessor",
          "type": "address"
        },
        {
          "indexed": true,
          "internalType": "address",
          "name": "lessee",
          "type": "address"
        },
        {
          "indexed": false,
          "internalType": "address",
          "name": "collection",
          "type": "address"
        },
        {
          "indexed": false,
          "internalType": "uint256",
          "name": "tokenId",
          "type": "uint256"
        },
        {
          "indexed": false,
          "internalType": "uint256",
          "name": "collateral_value",
          "type": "uint256"
        },
        {
          "indexed": false,
          "internalType": "uint256",
          "name": "lease_term",
          "type": "uint256"
        },
        {
          "indexed": false,
          "internalType": "uint256",
          "name": "lease_start_date",
          "type": "uint256"
        },
        {
          "indexed": false,
          "internalType": "uint256",
          "name": "lease_end_date",
          "type": "uint256"
        },
        {
          "indexed": false,
          "internalType": "uint256",
          "name": "repay_date",
          "type": "uint256"
        }
      ],
      "name": "Repayed",
      "type": "event"
    },
    {
      "stateMutability": "payable",
      "type": "fallback"
    },
    {
      "inputs": [
        {
          "internalType": "uint256",
          "name": "listingId_",
          "type": "uint256"
        }
      ],
      "name": "delist",
      "outputs": [],
      "stateMutability": "nonpayable",
      "type": "function"
    },
    {
      "inputs": [],
      "name": "getActiveItems",
      "outputs": [
        {
          "components": [
            {
              "internalType": "uint256",
              "name": "listingId",
              "type": "uint256"
            },
            {
              "internalType": "enum Lilos_V1.ListingStatus",
              "name": "status",
              "type": "uint8"
            },
            {
              "internalType": "address",
              "name": "lessor",
              "type": "address"
            },
            {
              "internalType": "address",
              "name": "lessee",
              "type": "address"
            },
            {
              "internalType": "address",
              "name": "collection",
              "type": "address"
            },
            {
              "internalType": "uint256",
              "name": "tokenId",
              "type": "uint256"
            },
            {
              "internalType": "uint256",
              "name": "collateral_value",
              "type": "uint256"
            },
            {
              "internalType": "uint256",
              "name": "rental_value",
              "type": "uint256"
            },
            {
              "internalType": "uint256",
              "name": "lease_term",
              "type": "uint256"
            },
            {
              "internalType": "uint256",
              "name": "lease_start_date",
              "type": "uint256"
            },
            {
              "internalType": "uint256",
              "name": "lease_end_date",
              "type": "uint256"
            }
          ],
          "internalType": "struct Lilos_V1.ListingItem[]",
          "name": "",
          "type": "tuple[]"
        }
      ],
      "stateMutability": "view",
      "type": "function"
    },
    {
      "inputs": [],
      "name": "getAllItems",
      "outputs": [
        {
          "components": [
            {
              "internalType": "uint256",
              "name": "listingId",
              "type": "uint256"
            },
            {
              "internalType": "enum Lilos_V1.ListingStatus",
              "name": "status",
              "type": "uint8"
            },
            {
              "internalType": "address",
              "name": "lessor",
              "type": "address"
            },
            {
              "internalType": "address",
              "name": "lessee",
              "type": "address"
            },
            {
              "internalType": "address",
              "name": "collection",
              "type": "address"
            },
            {
              "internalType": "uint256",
              "name": "tokenId",
              "type": "uint256"
            },
            {
              "internalType": "uint256",
              "name": "collateral_value",
              "type": "uint256"
            },
            {
              "internalType": "uint256",
              "name": "rental_value",
              "type": "uint256"
            },
            {
              "internalType": "uint256",
              "name": "lease_term",
              "type": "uint256"
            },
            {
              "internalType": "uint256",
              "name": "lease_start_date",
              "type": "uint256"
            },
            {
              "internalType": "uint256",
              "name": "lease_end_date",
              "type": "uint256"
            }
          ],
          "internalType": "struct Lilos_V1.ListingItem[]",
          "name": "",
          "type": "tuple[]"
        }
      ],
      "stateMutability": "view",
      "type": "function"
    },
    {
      "inputs": [
        {
          "internalType": "uint256",
          "name": "listingId_",
          "type": "uint256"
        }
      ],
      "name": "getIsExpiredByListingId",
      "outputs": [
        {
          "internalType": "bool",
          "name": "",
          "type": "bool"
        }
      ],
      "stateMutability": "view",
      "type": "function"
    },
    {
      "inputs": [
        {
          "internalType": "address",
          "name": "collection_",
          "type": "address"
        },
        {
          "internalType": "uint256",
          "name": "tokenId_",
          "type": "uint256"
        }
      ],
      "name": "getItemByCollctionAndTokenId",
      "outputs": [
        {
          "components": [
            {
              "internalType": "uint256",
              "name": "listingId",
              "type": "uint256"
            },
            {
              "internalType": "enum Lilos_V1.ListingStatus",
              "name": "status",
              "type": "uint8"
            },
            {
              "internalType": "address",
              "name": "lessor",
              "type": "address"
            },
            {
              "internalType": "address",
              "name": "lessee",
              "type": "address"
            },
            {
              "internalType": "address",
              "name": "collection",
              "type": "address"
            },
            {
              "internalType": "uint256",
              "name": "tokenId",
              "type": "uint256"
            },
            {
              "internalType": "uint256",
              "name": "collateral_value",
              "type": "uint256"
            },
            {
              "internalType": "uint256",
              "name": "rental_value",
              "type": "uint256"
            },
            {
              "internalType": "uint256",
              "name": "lease_term",
              "type": "uint256"
            },
            {
              "internalType": "uint256",
              "name": "lease_start_date",
              "type": "uint256"
            },
            {
              "internalType": "uint256",
              "name": "lease_end_date",
              "type": "uint256"
            }
          ],
          "internalType": "struct Lilos_V1.ListingItem",
          "name": "",
          "type": "tuple"
        }
      ],
      "stateMutability": "view",
      "type": "function"
    },
    {
      "inputs": [
        {
          "internalType": "uint256",
          "name": "listingId_",
          "type": "uint256"
        }
      ],
      "name": "getItemByListingId",
      "outputs": [
        {
          "components": [
            {
              "internalType": "uint256",
              "name": "listingId",
              "type": "uint256"
            },
            {
              "internalType": "enum Lilos_V1.ListingStatus",
              "name": "status",
              "type": "uint8"
            },
            {
              "internalType": "address",
              "name": "lessor",
              "type": "address"
            },
            {
              "internalType": "address",
              "name": "lessee",
              "type": "address"
            },
            {
              "internalType": "address",
              "name": "collection",
              "type": "address"
            },
            {
              "internalType": "uint256",
              "name": "tokenId",
              "type": "uint256"
            },
            {
              "internalType": "uint256",
              "name": "collateral_value",
              "type": "uint256"
            },
            {
              "internalType": "uint256",
              "name": "rental_value",
              "type": "uint256"
            },
            {
              "internalType": "uint256",
              "name": "lease_term",
              "type": "uint256"
            },
            {
              "internalType": "uint256",
              "name": "lease_start_date",
              "type": "uint256"
            },
            {
              "internalType": "uint256",
              "name": "lease_end_date",
              "type": "uint256"
            }
          ],
          "internalType": "struct Lilos_V1.ListingItem",
          "name": "",
          "type": "tuple"
        }
      ],
      "stateMutability": "view",
      "type": "function"
    },
    {
      "inputs": [
        {
          "internalType": "address",
          "name": "lessee_",
          "type": "address"
        }
      ],
      "name": "getItemsByLessee",
      "outputs": [
        {
          "components": [
            {
              "internalType": "uint256",
              "name": "listingId",
              "type": "uint256"
            },
            {
              "internalType": "enum Lilos_V1.ListingStatus",
              "name": "status",
              "type": "uint8"
            },
            {
              "internalType": "address",
              "name": "lessor",
              "type": "address"
            },
            {
              "internalType": "address",
              "name": "lessee",
              "type": "address"
            },
            {
              "internalType": "address",
              "name": "collection",
              "type": "address"
            },
            {
              "internalType": "uint256",
              "name": "tokenId",
              "type": "uint256"
            },
            {
              "internalType": "uint256",
              "name": "collateral_value",
              "type": "uint256"
            },
            {
              "internalType": "uint256",
              "name": "rental_value",
              "type": "uint256"
            },
            {
              "internalType": "uint256",
              "name": "lease_term",
              "type": "uint256"
            },
            {
              "internalType": "uint256",
              "name": "lease_start_date",
              "type": "uint256"
            },
            {
              "internalType": "uint256",
              "name": "lease_end_date",
              "type": "uint256"
            }
          ],
          "internalType": "struct Lilos_V1.ListingItem[]",
          "name": "",
          "type": "tuple[]"
        }
      ],
      "stateMutability": "view",
      "type": "function"
    },
    {
      "inputs": [
        {
          "internalType": "address",
          "name": "lessor_",
          "type": "address"
        }
      ],
      "name": "getItemsByLessor",
      "outputs": [
        {
          "components": [
            {
              "internalType": "uint256",
              "name": "listingId",
              "type": "uint256"
            },
            {
              "internalType": "enum Lilos_V1.ListingStatus",
              "name": "status",
              "type": "uint8"
            },
            {
              "internalType": "address",
              "name": "lessor",
              "type": "address"
            },
            {
              "internalType": "address",
              "name": "lessee",
              "type": "address"
            },
            {
              "internalType": "address",
              "name": "collection",
              "type": "address"
            },
            {
              "internalType": "uint256",
              "name": "tokenId",
              "type": "uint256"
            },
            {
              "internalType": "uint256",
              "name": "collateral_value",
              "type": "uint256"
            },
            {
              "internalType": "uint256",
              "name": "rental_value",
              "type": "uint256"
            },
            {
              "internalType": "uint256",
              "name": "lease_term",
              "type": "uint256"
            },
            {
              "internalType": "uint256",
              "name": "lease_start_date",
              "type": "uint256"
            },
            {
              "internalType": "uint256",
              "name": "lease_end_date",
              "type": "uint256"
            }
          ],
          "internalType": "struct Lilos_V1.ListingItem[]",
          "name": "",
          "type": "tuple[]"
        }
      ],
      "stateMutability": "view",
      "type": "function"
    },
    {
      "inputs": [],
      "name": "getLeasedItems",
      "outputs": [
        {
          "components": [
            {
              "internalType": "uint256",
              "name": "listingId",
              "type": "uint256"
            },
            {
              "internalType": "enum Lilos_V1.ListingStatus",
              "name": "status",
              "type": "uint8"
            },
            {
              "internalType": "address",
              "name": "lessor",
              "type": "address"
            },
            {
              "internalType": "address",
              "name": "lessee",
              "type": "address"
            },
            {
              "internalType": "address",
              "name": "collection",
              "type": "address"
            },
            {
              "internalType": "uint256",
              "name": "tokenId",
              "type": "uint256"
            },
            {
              "internalType": "uint256",
              "name": "collateral_value",
              "type": "uint256"
            },
            {
              "internalType": "uint256",
              "name": "rental_value",
              "type": "uint256"
            },
            {
              "internalType": "uint256",
              "name": "lease_term",
              "type": "uint256"
            },
            {
              "internalType": "uint256",
              "name": "lease_start_date",
              "type": "uint256"
            },
            {
              "internalType": "uint256",
              "name": "lease_end_date",
              "type": "uint256"
            }
          ],
          "internalType": "struct Lilos_V1.ListingItem[]",
          "name": "",
          "type": "tuple[]"
        }
      ],
      "stateMutability": "view",
      "type": "function"
    },
    {
      "inputs": [],
      "name": "getListingId",
      "outputs": [
        {
          "internalType": "uint256",
          "name": "",
          "type": "uint256"
        }
      ],
      "stateMutability": "view",
      "type": "function"
    },
    {
      "inputs": [],
      "name": "getTime",
      "outputs": [
        {
          "internalType": "uint256",
          "name": "",
          "type": "uint256"
        }
      ],
      "stateMutability": "view",
      "type": "function"
    },
    {
      "inputs": [
        {
          "internalType": "uint256",
          "name": "listingId_",
          "type": "uint256"
        }
      ],
      "name": "leaseIn",
      "outputs": [],
      "stateMutability": "payable",
      "type": "function"
    },
    {
      "inputs": [
        {
          "internalType": "uint256",
          "name": "listingId_",
          "type": "uint256"
        }
      ],
      "name": "liquidate",
      "outputs": [],
      "stateMutability": "nonpayable",
      "type": "function"
    },
    {
      "inputs": [
        {
          "internalType": "address",
          "name": "collection_",
          "type": "address"
        },
        {
          "internalType": "uint256",
          "name": "tokenId_",
          "type": "uint256"
        },
        {
          "internalType": "uint256",
          "name": "collateral_value_",
          "type": "uint256"
        },
        {
          "internalType": "uint256",
          "name": "rental_value_",
          "type": "uint256"
        },
        {
          "internalType": "uint256",
          "name": "lease_term_",
          "type": "uint256"
        }
      ],
      "name": "listToken",
      "outputs": [],
      "stateMutability": "nonpayable",
      "type": "function"
    },
    {
      "inputs": [],
      "name": "owner",
      "outputs": [
        {
          "internalType": "address",
          "name": "",
          "type": "address"
        }
      ],
      "stateMutability": "view",
      "type": "function"
    },
    {
      "inputs": [],
      "name": "renounceOwnership",
      "outputs": [],
      "stateMutability": "nonpayable",
      "type": "function"
    },
    {
      "inputs": [
        {
          "internalType": "uint256",
          "name": "listingId_",
          "type": "uint256"
        }
      ],
      "name": "repay",
      "outputs": [],
      "stateMutability": "nonpayable",
      "type": "function"
    },
    {
      "inputs": [
        {
          "internalType": "address",
          "name": "newOwner",
          "type": "address"
        }
      ],
      "name": "transferOwnership",
      "outputs": [],
      "stateMutability": "nonpayable",
      "type": "function"
    },
    {
      "stateMutability": "payable",
      "type": "receive"
    }
  ],
  "bytecode": "0x6080604052605f600255612710600455620d2f00600755603c6008553480156200002857600080fd5b50620000496200003d6200005660201b60201c565b6200005e60201b60201c565b6001808190555062000122565b600033905090565b60008060009054906101000a900473ffffffffffffffffffffffffffffffffffffffff169050816000806101000a81548173ffffffffffffffffffffffffffffffffffffffff021916908373ffffffffffffffffffffffffffffffffffffffff1602179055508173ffffffffffffffffffffffffffffffffffffffff168173ffffffffffffffffffffffffffffffffffffffff167f8be0079c531659141344cd1fd0a4f28419497f9722a3daafe3b4186f6b6457e060405160405180910390a35050565b6148af80620001326000396000f3fe60806040526004361061010d5760003560e01c8063715018a611610095578063bb4628e311610064578063bb4628e314610344578063c846511314610381578063eb510caf146103be578063ef88efbd146103e9578063f2fde38b1461042657610117565b8063715018a6146102ae5780638da5cb5b146102c557806391f6611d146102f0578063964bc33f1461031b57610117565b8063415f1240116100dc578063415f1240146101c75780634ba1d6aa146101f0578063557ed1ba1461021b5780636a5be2c9146102465780636cad9f411461028357610117565b8063156cff801461011c5780632213e5a3146101385780633353ff8a14610161578063371fd8e61461019e57610117565b3661011757600080fd5b600080fd5b610136600480360381019061013191906134e0565b61044f565b005b34801561014457600080fd5b5061015f600480360381019061015a919061356b565b610ad4565b005b34801561016d57600080fd5b50610188600480360381019061018391906134e0565b61118b565b6040516101959190613601565b60405180910390f35b3480156101aa57600080fd5b506101c560048036038101906101c091906134e0565b611209565b005b3480156101d357600080fd5b506101ee60048036038101906101e991906134e0565b611684565b005b3480156101fc57600080fd5b50610205611abb565b6040516102129190613842565b60405180910390f35b34801561022757600080fd5b50610230611cff565b60405161023d9190613873565b60405180910390f35b34801561025257600080fd5b5061026d6004803603810190610268919061388e565b611d07565b60405161027a9190613842565b60405180910390f35b34801561028f57600080fd5b50610298612079565b6040516102a59190613842565b60405180910390f35b3480156102ba57600080fd5b506102c36123b3565b005b3480156102d157600080fd5b506102da61243b565b6040516102e791906138ca565b60405180910390f35b3480156102fc57600080fd5b50610305612464565b6040516103129190613842565b60405180910390f35b34801561032757600080fd5b50610342600480360381019061033d91906134e0565b612788565b005b34801561035057600080fd5b5061036b6004803603810190610366919061388e565b6129a4565b6040516103789190613842565b60405180910390f35b34801561038d57600080fd5b506103a860048036038101906103a391906134e0565b612d16565b6040516103b591906139c6565b60405180910390f35b3480156103ca57600080fd5b506103d3612ec7565b6040516103e09190613873565b60405180910390f35b3480156103f557600080fd5b50610410600480360381019061040b91906139e2565b612ed1565b60405161041d91906139c6565b60405180910390f35b34801561043257600080fd5b5061044d6004803603810190610448919061388e565b6131f2565b005b600260015403610494576040517f08c379a000000000000000000000000000000000000000000000000000000000815260040161048b90613a7f565b60405180910390fd5b600260018190555060006006600083815260200190815260200160002090508060010160019054906101000a900473ffffffffffffffffffffffffffffffffffffffff1673ffffffffffffffffffffffffffffffffffffffff163373ffffffffffffffffffffffffffffffffffffffff1603610545576040517f08c379a000000000000000000000000000000000000000000000000000000000815260040161053c90613aeb565b60405180910390fd5b6001600281111561055957610558613657565b5b8160010160009054906101000a900460ff16600281111561057d5761057c613657565b5b146105bd576040517f08c379a00000000000000000000000000000000000000000000000000000000081526004016105b490613b57565b60405180910390fd5b60008160030160009054906101000a900473ffffffffffffffffffffffffffffffffffffffff1673ffffffffffffffffffffffffffffffffffffffff1663e985e9c58360010160019054906101000a900473ffffffffffffffffffffffffffffffffffffffff16306040518363ffffffff1660e01b8152600401610642929190613b77565b602060405180830381865afa15801561065f573d6000803e3d6000fd5b505050506040513d601f19601f820116820180604052508101906106839190613bcc565b9050806107495760008260010160006101000a81548160ff021916908360028111156106b2576106b1613657565b5b02179055506000600560008460030160009054906101000a900473ffffffffffffffffffffffffffffffffffffffff1673ffffffffffffffffffffffffffffffffffffffff1673ffffffffffffffffffffffffffffffffffffffff16815260200190815260200160002060008460040154815260200190815260200160002060006101000a81548160ff0219169083151502179055505b80610789576040517f08c379a000000000000000000000000000000000000000000000000000000000815260040161078090613c6b565b60405180910390fd5b6107a4826006015483600501546132e990919063ffffffff16565b34146107e5576040517f08c379a00000000000000000000000000000000000000000000000000000000081526004016107dc90613cfd565b60405180910390fd5b8160030160009054906101000a900473ffffffffffffffffffffffffffffffffffffffff1673ffffffffffffffffffffffffffffffffffffffff166323b872dd8360010160019054906101000a900473ffffffffffffffffffffffffffffffffffffffff163385600401546040518463ffffffff1660e01b815260040161086e93929190613d1d565b600060405180830381600087803b15801561088857600080fd5b505af115801561089c573d6000803e3d6000fd5b505050508160010160019054906101000a900473ffffffffffffffffffffffffffffffffffffffff1673ffffffffffffffffffffffffffffffffffffffff166108fc61090a60646108fc60025487600601546132ff90919063ffffffff16565b61331590919063ffffffff16565b9081150290604051600060405180830381858888f19350505050158015610935573d6000803e3d6000fd5b5060028260010160006101000a81548160ff0219169083600281111561095e5761095d613657565b5b0217905550338260020160006101000a81548173ffffffffffffffffffffffffffffffffffffffff021916908373ffffffffffffffffffffffffffffffffffffffff1602179055504282600801819055506109ca826007015483600801546132e990919063ffffffff16565b82600901819055508160020160009054906101000a900473ffffffffffffffffffffffffffffffffffffffff1673ffffffffffffffffffffffffffffffffffffffff168260010160019054906101000a900473ffffffffffffffffffffffffffffffffffffffff1673ffffffffffffffffffffffffffffffffffffffff16847fff458956ff88fac547fd065c4ce27b6611e74dbe594d7dc9b704da0271b2fbb58560030160009054906101000a900473ffffffffffffffffffffffffffffffffffffffff1686600401548760050154886006015489600701548a600801548b60090154604051610ac09796959493929190613d54565b60405180910390a450506001808190555050565b6004546003541115610b1b576040517f08c379a0000000000000000000000000000000000000000000000000000000008152600401610b1290613e35565b60405180910390fd5b60001515600560008773ffffffffffffffffffffffffffffffffffffffff1673ffffffffffffffffffffffffffffffffffffffff168152602001908152602001600020600086815260200190815260200160002060009054906101000a900460ff16151514610bbf576040517f08c379a0000000000000000000000000000000000000000000000000000000008152600401610bb690613ec7565b60405180910390fd5b8473ffffffffffffffffffffffffffffffffffffffff1663e985e9c533306040518363ffffffff1660e01b8152600401610bfa929190613b77565b602060405180830381865afa158015610c17573d6000803e3d6000fd5b505050506040513d601f19601f82011682018060405250810190610c3b9190613bcc565b610c7a576040517f08c379a0000000000000000000000000000000000000000000000000000000008152600401610c7190613f7f565b60405180910390fd5b3373ffffffffffffffffffffffffffffffffffffffff168573ffffffffffffffffffffffffffffffffffffffff16636352211e866040518263ffffffff1660e01b8152600401610cca9190613873565b602060405180830381865afa158015610ce7573d6000803e3d6000fd5b505050506040513d601f19601f82011682018060405250810190610d0b9190613fb4565b73ffffffffffffffffffffffffffffffffffffffff1614610d61576040517f08c379a0000000000000000000000000000000000000000000000000000000008152600401610d589061402d565b60405180910390fd5b60008311610da4576040517f08c379a0000000000000000000000000000000000000000000000000000000008152600401610d9b906140bf565b60405180910390fd5b60008211610de7576040517f08c379a0000000000000000000000000000000000000000000000000000000008152600401610dde90614151565b60405180910390fd5b6008548111610e2b576040517f08c379a0000000000000000000000000000000000000000000000000000000008152600401610e22906141e3565b60405180910390fd5b6007548110610e6f576040517f08c379a0000000000000000000000000000000000000000000000000000000008152600401610e6690614275565b60405180910390fd5b6000604051806101600160405280600354815260200160016002811115610e9957610e98613657565b5b81526020013373ffffffffffffffffffffffffffffffffffffffff168152602001600073ffffffffffffffffffffffffffffffffffffffff1681526020018773ffffffffffffffffffffffffffffffffffffffff16815260200186815260200185815260200184815260200183815260200160095481526020016009548152509050600160056000836080015173ffffffffffffffffffffffffffffffffffffffff1673ffffffffffffffffffffffffffffffffffffffff16815260200190815260200160002060008360a00151815260200190815260200160002060006101000a81548160ff021916908315150217905550806006600060035481526020019081526020016000206000820151816000015560208201518160010160006101000a81548160ff02191690836002811115610fd757610fd6613657565b5b021790555060408201518160010160016101000a81548173ffffffffffffffffffffffffffffffffffffffff021916908373ffffffffffffffffffffffffffffffffffffffff16021790555060608201518160020160006101000a81548173ffffffffffffffffffffffffffffffffffffffff021916908373ffffffffffffffffffffffffffffffffffffffff16021790555060808201518160030160006101000a81548173ffffffffffffffffffffffffffffffffffffffff021916908373ffffffffffffffffffffffffffffffffffffffff16021790555060a0820151816004015560c0820151816005015560e082015181600601556101008201518160070155610120820151816008015561014082015181600901559050503373ffffffffffffffffffffffffffffffffffffffff166003547f5434c4e750c029ca5d51034d6eb735a40ddfb45ff05e9b7b3fb6e95d1d71ea17836020015184608001518560a001518660c001518760e0015188610100015160405161115f969594939291906142a4565b60405180910390a361117d60016003546132e990919063ffffffff16565b600381905550505050505050565b6000806002808111156111a1576111a0613657565b5b6006600085815260200190815260200160002060010160009054906101000a900460ff1660028111156111d7576111d6613657565b5b036112005760066000848152602001908152602001600020600901544211156111ff57600190505b5b80915050919050565b60026001540361124e576040517f08c379a000000000000000000000000000000000000000000000000000000000815260040161124590613a7f565b60405180910390fd5b600260018190555060006006600083815260200190815260200160002090506002808111156112805761127f613657565b5b8160010160009054906101000a900460ff1660028111156112a4576112a3613657565b5b146112e4576040517f08c379a00000000000000000000000000000000000000000000000000000000081526004016112db90614351565b60405180910390fd5b8060030160009054906101000a900473ffffffffffffffffffffffffffffffffffffffff1673ffffffffffffffffffffffffffffffffffffffff1663e985e9c533306040518363ffffffff1660e01b8152600401611343929190613b77565b602060405180830381865afa158015611360573d6000803e3d6000fd5b505050506040513d601f19601f820116820180604052508101906113849190613bcc565b6113c3576040517f08c379a00000000000000000000000000000000000000000000000000000000081526004016113ba906143e3565b60405180910390fd5b8060030160009054906101000a900473ffffffffffffffffffffffffffffffffffffffff1673ffffffffffffffffffffffffffffffffffffffff166323b872dd338360010160019054906101000a900473ffffffffffffffffffffffffffffffffffffffff1684600401546040518463ffffffff1660e01b815260040161144c93929190613d1d565b600060405180830381600087803b15801561146657600080fd5b505af115801561147a573d6000803e3d6000fd5b505050503373ffffffffffffffffffffffffffffffffffffffff166108fc82600501549081150290604051600060405180830381858888f193505050501580156114c8573d6000803e3d6000fd5b506000600560008360030160009054906101000a900473ffffffffffffffffffffffffffffffffffffffff1673ffffffffffffffffffffffffffffffffffffffff1673ffffffffffffffffffffffffffffffffffffffff16815260200190815260200160002060008360040154815260200190815260200160002060006101000a81548160ff02191690831515021790555060008160010160006101000a81548160ff0219169083600281111561158257611581613657565b5b02179055508060020160009054906101000a900473ffffffffffffffffffffffffffffffffffffffff1673ffffffffffffffffffffffffffffffffffffffff168160010160019054906101000a900473ffffffffffffffffffffffffffffffffffffffff1673ffffffffffffffffffffffffffffffffffffffff16837f60eb88795e59c7c9f22492f0d2ebbbad7e4f9519bc243217c2a5ac5f745fd62e8460030160009054906101000a900473ffffffffffffffffffffffffffffffffffffffff1685600401548660050154876007015488600801548960090154426040516116719796959493929190613d54565b60405180910390a4506001808190555050565b6002600154036116c9576040517f08c379a00000000000000000000000000000000000000000000000000000000081526004016116c090613a7f565b60405180910390fd5b600260018190555060006006600083815260200190815260200160002090506002808111156116fb576116fa613657565b5b8160010160009054906101000a900460ff16600281111561171f5761171e613657565b5b1461175f576040517f08c379a000000000000000000000000000000000000000000000000000000000815260040161175690614351565b60405180910390fd5b3373ffffffffffffffffffffffffffffffffffffffff168160010160019054906101000a900473ffffffffffffffffffffffffffffffffffffffff1673ffffffffffffffffffffffffffffffffffffffff16148061180c57503373ffffffffffffffffffffffffffffffffffffffff168160020160009054906101000a900473ffffffffffffffffffffffffffffffffffffffff1673ffffffffffffffffffffffffffffffffffffffff16145b61184b576040517f08c379a000000000000000000000000000000000000000000000000000000000815260040161184290614475565b60405180910390fd5b80600901544211611891576040517f08c379a0000000000000000000000000000000000000000000000000000000008152600401611888906144e1565b60405180910390fd5b8060010160019054906101000a900473ffffffffffffffffffffffffffffffffffffffff1673ffffffffffffffffffffffffffffffffffffffff166108fc82600501549081150290604051600060405180830381858888f193505050501580156118ff573d6000803e3d6000fd5b506000600560008360030160009054906101000a900473ffffffffffffffffffffffffffffffffffffffff1673ffffffffffffffffffffffffffffffffffffffff1673ffffffffffffffffffffffffffffffffffffffff16815260200190815260200160002060008360040154815260200190815260200160002060006101000a81548160ff02191690831515021790555060008160010160006101000a81548160ff021916908360028111156119b9576119b8613657565b5b02179055508060020160009054906101000a900473ffffffffffffffffffffffffffffffffffffffff1673ffffffffffffffffffffffffffffffffffffffff168160010160019054906101000a900473ffffffffffffffffffffffffffffffffffffffff1673ffffffffffffffffffffffffffffffffffffffff16837fb2ad999e088f3804d59758e4ac42515faf31507578a12b712f4d997c986c3f208460030160009054906101000a900473ffffffffffffffffffffffffffffffffffffffff168560040154866005015487600701548860080154896009015442604051611aa89796959493929190613d54565b60405180910390a4506001808190555050565b6060600060035467ffffffffffffffff811115611adb57611ada614501565b5b604051908082528060200260200182016040528015611b1457816020015b611b016133f7565b815260200190600190039081611af95790505b50905060005b600354811015611cf7576006600082815260200190815260200160002060405180610160016040529081600082015481526020016001820160009054906101000a900460ff166002811115611b7257611b71613657565b5b6002811115611b8457611b83613657565b5b81526020016001820160019054906101000a900473ffffffffffffffffffffffffffffffffffffffff1673ffffffffffffffffffffffffffffffffffffffff1673ffffffffffffffffffffffffffffffffffffffff1681526020016002820160009054906101000a900473ffffffffffffffffffffffffffffffffffffffff1673ffffffffffffffffffffffffffffffffffffffff1673ffffffffffffffffffffffffffffffffffffffff1681526020016003820160009054906101000a900473ffffffffffffffffffffffffffffffffffffffff1673ffffffffffffffffffffffffffffffffffffffff1673ffffffffffffffffffffffffffffffffffffffff1681526020016004820154815260200160058201548152602001600682015481526020016007820154815260200160088201548152602001600982015481525050828281518110611cd957611cd8614530565b5b60200260200101819052508080611cef9061458e565b915050611b1a565b508091505090565b600042905090565b606060008060005b6001600354611d1e91906145d6565b811015611db0578473ffffffffffffffffffffffffffffffffffffffff166006600083815260200190815260200160002060010160019054906101000a900473ffffffffffffffffffffffffffffffffffffffff1673ffffffffffffffffffffffffffffffffffffffff1603611d9d578280611d999061458e565b9350505b8080611da89061458e565b915050611d0f565b5060008267ffffffffffffffff811115611dcd57611dcc614501565b5b604051908082528060200260200182016040528015611e0657816020015b611df36133f7565b815260200190600190039081611deb5790505b50905060005b6001600354611e1b91906145d6565b81101561206d578573ffffffffffffffffffffffffffffffffffffffff166006600083815260200190815260200160002060010160019054906101000a900473ffffffffffffffffffffffffffffffffffffffff1673ffffffffffffffffffffffffffffffffffffffff160361205a576006600082815260200190815260200160002060405180610160016040529081600082015481526020016001820160009054906101000a900460ff166002811115611ed957611ed8613657565b5b6002811115611eeb57611eea613657565b5b81526020016001820160019054906101000a900473ffffffffffffffffffffffffffffffffffffffff1673ffffffffffffffffffffffffffffffffffffffff1673ffffffffffffffffffffffffffffffffffffffff1681526020016002820160009054906101000a900473ffffffffffffffffffffffffffffffffffffffff1673ffffffffffffffffffffffffffffffffffffffff1673ffffffffffffffffffffffffffffffffffffffff1681526020016003820160009054906101000a900473ffffffffffffffffffffffffffffffffffffffff1673ffffffffffffffffffffffffffffffffffffffff1673ffffffffffffffffffffffffffffffffffffffff16815260200160048201548152602001600582015481526020016006820154815260200160078201548152602001600882015481526020016009820154815250508284815181106120405761203f614530565b5b602002602001018190525082806120569061458e565b9350505b80806120659061458e565b915050611e0c565b50809350505050919050565b606060008060005b600160035461209091906145d6565b811015612107576002808111156120aa576120a9613657565b5b6006600083815260200190815260200160002060010160009054906101000a900460ff1660028111156120e0576120df613657565b5b036120f45782806120f09061458e565b9350505b80806120ff9061458e565b915050612081565b5060008267ffffffffffffffff81111561212457612123614501565b5b60405190808252806020026020018201604052801561215d57816020015b61214a6133f7565b8152602001906001900390816121425790505b50905060005b600160035461217291906145d6565b8110156123a95760028081111561218c5761218b613657565b5b6006600083815260200190815260200160002060010160009054906101000a900460ff1660028111156121c2576121c1613657565b5b03612396576006600082815260200190815260200160002060405180610160016040529081600082015481526020016001820160009054906101000a900460ff16600281111561221557612214613657565b5b600281111561222757612226613657565b5b81526020016001820160019054906101000a900473ffffffffffffffffffffffffffffffffffffffff1673ffffffffffffffffffffffffffffffffffffffff1673ffffffffffffffffffffffffffffffffffffffff1681526020016002820160009054906101000a900473ffffffffffffffffffffffffffffffffffffffff1673ffffffffffffffffffffffffffffffffffffffff1673ffffffffffffffffffffffffffffffffffffffff1681526020016003820160009054906101000a900473ffffffffffffffffffffffffffffffffffffffff1673ffffffffffffffffffffffffffffffffffffffff1673ffffffffffffffffffffffffffffffffffffffff168152602001600482015481526020016005820154815260200160068201548152602001600782015481526020016008820154815260200160098201548152505082848151811061237c5761237b614530565b5b602002602001018190525082806123929061458e565b9350505b80806123a19061458e565b915050612163565b5080935050505090565b6123bb61332b565b73ffffffffffffffffffffffffffffffffffffffff166123d961243b565b73ffffffffffffffffffffffffffffffffffffffff161461242f576040517f08c379a000000000000000000000000000000000000000000000000000000000815260040161242690614678565b60405180910390fd5b6124396000613333565b565b60008060009054906101000a900473ffffffffffffffffffffffffffffffffffffffff16905090565b606060008060005b6003548110156124e7576001600281111561248a57612489613657565b5b6006600083815260200190815260200160002060010160009054906101000a900460ff1660028111156124c0576124bf613657565b5b036124d45782806124d09061458e565b9350505b80806124df9061458e565b91505061246c565b5060008267ffffffffffffffff81111561250457612503614501565b5b60405190808252806020026020018201604052801561253d57816020015b61252a6133f7565b8152602001906001900390816125225790505b50905060005b60035481101561277e576001600281111561256157612560613657565b5b6006600083815260200190815260200160002060010160009054906101000a900460ff16600281111561259757612596613657565b5b0361276b576006600082815260200190815260200160002060405180610160016040529081600082015481526020016001820160009054906101000a900460ff1660028111156125ea576125e9613657565b5b60028111156125fc576125fb613657565b5b81526020016001820160019054906101000a900473ffffffffffffffffffffffffffffffffffffffff1673ffffffffffffffffffffffffffffffffffffffff1673ffffffffffffffffffffffffffffffffffffffff1681526020016002820160009054906101000a900473ffffffffffffffffffffffffffffffffffffffff1673ffffffffffffffffffffffffffffffffffffffff1673ffffffffffffffffffffffffffffffffffffffff1681526020016003820160009054906101000a900473ffffffffffffffffffffffffffffffffffffffff1673ffffffffffffffffffffffffffffffffffffffff1673ffffffffffffffffffffffffffffffffffffffff168152602001600482015481526020016005820154815260200160068201548152602001600782015481526020016008820154815260200160098201548152505082848151811061275157612750614530565b5b602002602001018190525082806127679061458e565b9350505b80806127769061458e565b915050612543565b5080935050505090565b60006006600083815260200190815260200160002090508060010160019054906101000a900473ffffffffffffffffffffffffffffffffffffffff1673ffffffffffffffffffffffffffffffffffffffff163373ffffffffffffffffffffffffffffffffffffffff1614612831576040517f08c379a0000000000000000000000000000000000000000000000000000000008152600401612828906146e4565b60405180910390fd5b6001600281111561284557612844613657565b5b8160010160009054906101000a900460ff16600281111561286957612868613657565b5b146128a9576040517f08c379a00000000000000000000000000000000000000000000000000000000081526004016128a090613b57565b60405180910390fd5b6000600560008360030160009054906101000a900473ffffffffffffffffffffffffffffffffffffffff1673ffffffffffffffffffffffffffffffffffffffff1673ffffffffffffffffffffffffffffffffffffffff16815260200190815260200160002060008360040154815260200190815260200160002060006101000a81548160ff02191690831515021790555060008160010160006101000a81548160ff0219169083600281111561296257612961613657565b5b02179055507f8e51b30707579d5dafbd56c2b27a7d382dd32fce8afa83687e99daf0ee47f8af8233604051612998929190614704565b60405180910390a15050565b606060008060005b60016003546129bb91906145d6565b811015612a4d578473ffffffffffffffffffffffffffffffffffffffff166006600083815260200190815260200160002060020160009054906101000a900473ffffffffffffffffffffffffffffffffffffffff1673ffffffffffffffffffffffffffffffffffffffff1603612a3a578280612a369061458e565b9350505b8080612a459061458e565b9150506129ac565b5060008267ffffffffffffffff811115612a6a57612a69614501565b5b604051908082528060200260200182016040528015612aa357816020015b612a906133f7565b815260200190600190039081612a885790505b50905060005b6001600354612ab891906145d6565b811015612d0a578573ffffffffffffffffffffffffffffffffffffffff166006600083815260200190815260200160002060020160009054906101000a900473ffffffffffffffffffffffffffffffffffffffff1673ffffffffffffffffffffffffffffffffffffffff1603612cf7576006600082815260200190815260200160002060405180610160016040529081600082015481526020016001820160009054906101000a900460ff166002811115612b7657612b75613657565b5b6002811115612b8857612b87613657565b5b81526020016001820160019054906101000a900473ffffffffffffffffffffffffffffffffffffffff1673ffffffffffffffffffffffffffffffffffffffff1673ffffffffffffffffffffffffffffffffffffffff1681526020016002820160009054906101000a900473ffffffffffffffffffffffffffffffffffffffff1673ffffffffffffffffffffffffffffffffffffffff1673ffffffffffffffffffffffffffffffffffffffff1681526020016003820160009054906101000a900473ffffffffffffffffffffffffffffffffffffffff1673ffffffffffffffffffffffffffffffffffffffff1673ffffffffffffffffffffffffffffffffffffffff1681526020016004820154815260200160058201548152602001600682015481526020016007820154815260200160088201548152602001600982015481525050828481518110612cdd57612cdc614530565b5b60200260200101819052508280612cf39061458e565b9350505b8080612d029061458e565b915050612aa9565b50809350505050919050565b612d1e6133f7565b6006600083815260200190815260200160002060405180610160016040529081600082015481526020016001820160009054906101000a900460ff166002811115612d6c57612d6b613657565b5b6002811115612d7e57612d7d613657565b5b81526020016001820160019054906101000a900473ffffffffffffffffffffffffffffffffffffffff1673ffffffffffffffffffffffffffffffffffffffff1673ffffffffffffffffffffffffffffffffffffffff1681526020016002820160009054906101000a900473ffffffffffffffffffffffffffffffffffffffff1673ffffffffffffffffffffffffffffffffffffffff1673ffffffffffffffffffffffffffffffffffffffff1681526020016003820160009054906101000a900473ffffffffffffffffffffffffffffffffffffffff1673ffffffffffffffffffffffffffffffffffffffff1673ffffffffffffffffffffffffffffffffffffffff16815260200160048201548152602001600582015481526020016006820154815260200160078201548152602001600882015481526020016009820154815250509050919050565b6000600354905090565b612ed96133f7565b612ee16133f7565b60005b6003548110156131e7578473ffffffffffffffffffffffffffffffffffffffff166006600083815260200190815260200160002060030160009054906101000a900473ffffffffffffffffffffffffffffffffffffffff1673ffffffffffffffffffffffffffffffffffffffff16148015612f745750836006600083815260200190815260200160002060040154145b156131d45760011515600560006006600085815260200190815260200160002060030160009054906101000a900473ffffffffffffffffffffffffffffffffffffffff1673ffffffffffffffffffffffffffffffffffffffff1673ffffffffffffffffffffffffffffffffffffffff16815260200190815260200160002060006006600085815260200190815260200160002060040154815260200190815260200160002060009054906101000a900460ff161515036131d3576006600082815260200190815260200160002060405180610160016040529081600082015481526020016001820160009054906101000a900460ff16600281111561307c5761307b613657565b5b600281111561308e5761308d613657565b5b81526020016001820160019054906101000a900473ffffffffffffffffffffffffffffffffffffffff1673ffffffffffffffffffffffffffffffffffffffff1673ffffffffffffffffffffffffffffffffffffffff1681526020016002820160009054906101000a900473ffffffffffffffffffffffffffffffffffffffff1673ffffffffffffffffffffffffffffffffffffffff1673ffffffffffffffffffffffffffffffffffffffff1681526020016003820160009054906101000a900473ffffffffffffffffffffffffffffffffffffffff1673ffffffffffffffffffffffffffffffffffffffff1673ffffffffffffffffffffffffffffffffffffffff168152602001600482015481526020016005820154815260200160068201548152602001600782015481526020016008820154815260200160098201548152505091505b5b80806131df9061458e565b915050612ee4565b508091505092915050565b6131fa61332b565b73ffffffffffffffffffffffffffffffffffffffff1661321861243b565b73ffffffffffffffffffffffffffffffffffffffff161461326e576040517f08c379a000000000000000000000000000000000000000000000000000000000815260040161326590614678565b60405180910390fd5b600073ffffffffffffffffffffffffffffffffffffffff168173ffffffffffffffffffffffffffffffffffffffff16036132dd576040517f08c379a00000000000000000000000000000000000000000000000000000000081526004016132d49061479f565b60405180910390fd5b6132e681613333565b50565b600081836132f791906145d6565b905092915050565b6000818361330d91906147bf565b905092915050565b600081836133239190614848565b905092915050565b600033905090565b60008060009054906101000a900473ffffffffffffffffffffffffffffffffffffffff169050816000806101000a81548173ffffffffffffffffffffffffffffffffffffffff021916908373ffffffffffffffffffffffffffffffffffffffff1602179055508173ffffffffffffffffffffffffffffffffffffffff168173ffffffffffffffffffffffffffffffffffffffff167f8be0079c531659141344cd1fd0a4f28419497f9722a3daafe3b4186f6b6457e060405160405180910390a35050565b604051806101600160405280600081526020016000600281111561341e5761341d613657565b5b8152602001600073ffffffffffffffffffffffffffffffffffffffff168152602001600073ffffffffffffffffffffffffffffffffffffffff168152602001600073ffffffffffffffffffffffffffffffffffffffff1681526020016000815260200160008152602001600081526020016000815260200160008152602001600081525090565b600080fd5b6000819050919050565b6134bd816134aa565b81146134c857600080fd5b50565b6000813590506134da816134b4565b92915050565b6000602082840312156134f6576134f56134a5565b5b6000613504848285016134cb565b91505092915050565b600073ffffffffffffffffffffffffffffffffffffffff82169050919050565b60006135388261350d565b9050919050565b6135488161352d565b811461355357600080fd5b50565b6000813590506135658161353f565b92915050565b600080600080600060a08688031215613587576135866134a5565b5b600061359588828901613556565b95505060206135a6888289016134cb565b94505060406135b7888289016134cb565b93505060606135c8888289016134cb565b92505060806135d9888289016134cb565b9150509295509295909350565b60008115159050919050565b6135fb816135e6565b82525050565b600060208201905061361660008301846135f2565b92915050565b600081519050919050565b600082825260208201905092915050565b6000819050602082019050919050565b613651816134aa565b82525050565b7f4e487b7100000000000000000000000000000000000000000000000000000000600052602160045260246000fd5b6003811061369757613696613657565b5b50565b60008190506136a882613686565b919050565b60006136b88261369a565b9050919050565b6136c8816136ad565b82525050565b6136d78161352d565b82525050565b610160820160008201516136f46000850182613648565b50602082015161370760208501826136bf565b50604082015161371a60408501826136ce565b50606082015161372d60608501826136ce565b50608082015161374060808501826136ce565b5060a082015161375360a0850182613648565b5060c082015161376660c0850182613648565b5060e082015161377960e0850182613648565b5061010082015161378e610100850182613648565b506101208201516137a3610120850182613648565b506101408201516137b8610140850182613648565b50505050565b60006137ca83836136dd565b6101608301905092915050565b6000602082019050919050565b60006137ef8261361c565b6137f98185613627565b935061380483613638565b8060005b8381101561383557815161381c88826137be565b9750613827836137d7565b925050600181019050613808565b5085935050505092915050565b6000602082019050818103600083015261385c81846137e4565b905092915050565b61386d816134aa565b82525050565b60006020820190506138886000830184613864565b92915050565b6000602082840312156138a4576138a36134a5565b5b60006138b284828501613556565b91505092915050565b6138c48161352d565b82525050565b60006020820190506138df60008301846138bb565b92915050565b610160820160008201516138fc6000850182613648565b50602082015161390f60208501826136bf565b50604082015161392260408501826136ce565b50606082015161393560608501826136ce565b50608082015161394860808501826136ce565b5060a082015161395b60a0850182613648565b5060c082015161396e60c0850182613648565b5060e082015161398160e0850182613648565b50610100820151613996610100850182613648565b506101208201516139ab610120850182613648565b506101408201516139c0610140850182613648565b50505050565b6000610160820190506139dc60008301846138e5565b92915050565b600080604083850312156139f9576139f86134a5565b5b6000613a0785828601613556565b9250506020613a18858286016134cb565b9150509250929050565b600082825260208201905092915050565b7f5265656e7472616e637947756172643a207265656e7472616e742063616c6c00600082015250565b6000613a69601f83613a22565b9150613a7482613a33565b602082019050919050565b60006020820190508181036000830152613a9881613a5c565b9050919050565b7f4c6573736f722063616e6e6f74206265206c65737365652e0000000000000000600082015250565b6000613ad5601883613a22565b9150613ae082613a9f565b602082019050919050565b60006020820190508181036000830152613b0481613ac8565b9050919050565b7f4c697374696e67206973206e6f74206163746976652e00000000000000000000600082015250565b6000613b41601683613a22565b9150613b4c82613b0b565b602082019050919050565b60006020820190508181036000830152613b7081613b34565b9050919050565b6000604082019050613b8c60008301856138bb565b613b9960208301846138bb565b9392505050565b613ba9816135e6565b8114613bb457600080fd5b50565b600081519050613bc681613ba0565b92915050565b600060208284031215613be257613be16134a5565b5b6000613bf084828501613bb7565b91505092915050565b7f4c6573736f722072656d6f7665642074686520617070726f76616c206f66207460008201527f686520746f6b656e20746f2074686520636f6e74726163742e00000000000000602082015250565b6000613c55603983613a22565b9150613c6082613bf9565b604082019050919050565b60006020820190508181036000830152613c8481613c48565b9050919050565b7f6d73672e76616c756520646f7365206e6f74206d617463682074686520746f7460008201527f616c207370656e64696e672e0000000000000000000000000000000000000000602082015250565b6000613ce7602c83613a22565b9150613cf282613c8b565b604082019050919050565b60006020820190508181036000830152613d1681613cda565b9050919050565b6000606082019050613d3260008301866138bb565b613d3f60208301856138bb565b613d4c6040830184613864565b949350505050565b600060e082019050613d69600083018a6138bb565b613d766020830189613864565b613d836040830188613864565b613d906060830187613864565b613d9d6080830186613864565b613daa60a0830185613864565b613db760c0830184613864565b98975050505050505050565b7f546865206c697374696e67206e756d626572207265616368656420746865206c60008201527f696d69742e000000000000000000000000000000000000000000000000000000602082015250565b6000613e1f602583613a22565b9150613e2a82613dc3565b604082019050919050565b60006020820190508181036000830152613e4e81613e12565b9050919050565b7f5468697320746f6b656e20697320616c7265616479206f6e20746865206d617260008201527f6b6574206f72206e656564656420746f206265206c69717569646174652e0000602082015250565b6000613eb1603e83613a22565b9150613ebc82613e55565b604082019050919050565b60006020820190508181036000830152613ee081613ea4565b9050919050565b7f4c6573736f722073686f756c6420617070726f7665204c696c6f7320636f6e7460008201527f7261637420746f2061636365737320616c6c20746f6b656e73206f662074686560208201527f20636f6c6c656374696f6e2e0000000000000000000000000000000000000000604082015250565b6000613f69604c83613a22565b9150613f7482613ee7565b606082019050919050565b60006020820190508181036000830152613f9881613f5c565b9050919050565b600081519050613fae8161353f565b92915050565b600060208284031215613fca57613fc96134a5565b5b6000613fd884828501613f9f565b91505092915050565b7f4c6573736f72206d7573742062652074686520746f6b656e206f776e65722e00600082015250565b6000614017601f83613a22565b915061402282613fe1565b602082019050919050565b600060208201905081810360008301526140468161400a565b9050919050565b7f436f6c6c61746572616c2076616c75652073686f756c64206265206c6172676560008201527f72207468616e207a65726f2e0000000000000000000000000000000000000000602082015250565b60006140a9602c83613a22565b91506140b48261404d565b604082019050919050565b600060208201905081810360008301526140d88161409c565b9050919050565b7f52656e742076616c75652073686f756c64206265206c6172676572207468616e60008201527f207a65726f2e0000000000000000000000000000000000000000000000000000602082015250565b600061413b602683613a22565b9150614146826140df565b604082019050919050565b6000602082019050818103600083015261416a8161412e565b9050919050565b7f4c65617365207465726d2073686f756c64206265206c6f6e676572207468616e60008201527f2031206d696e757465732e000000000000000000000000000000000000000000602082015250565b60006141cd602b83613a22565b91506141d882614171565b604082019050919050565b600060208201905081810360008301526141fc816141c0565b9050919050565b7f4c65617365207465726d2073686f756c642062652073686f727465722074686160008201527f6e20313020646179732e00000000000000000000000000000000000000000000602082015250565b600061425f602a83613a22565b915061426a82614203565b604082019050919050565b6000602082019050818103600083015261428e81614252565b9050919050565b61429e816136ad565b82525050565b600060c0820190506142b96000830189614295565b6142c660208301886138bb565b6142d36040830187613864565b6142e06060830186613864565b6142ed6080830185613864565b6142fa60a0830184613864565b979650505050505050565b7f546f6b656e206973206e6f74206c65617365642e000000000000000000000000600082015250565b600061433b601483613a22565b915061434682614305565b602082019050919050565b6000602082019050818103600083015261436a8161432e565b9050919050565b7f546f6b656e207472616e73666572206e656564656420746f206265206170707260008201527f6f7665642066697273742e000000000000000000000000000000000000000000602082015250565b60006143cd602b83613a22565b91506143d882614371565b604082019050919050565b600060208201905081810360008301526143fc816143c0565b9050919050565b7f4c69717569646174696f6e2063616e206f6e6c7920626520696d706c656d656e60008201527f746564206279206c6573736f72206f72206c65737365652e0000000000000000602082015250565b600061445f603883613a22565b915061446a82614403565b604082019050919050565b6000602082019050818103600083015261448e81614452565b9050919050565b7f4c65617365206973206e6f7420657870697265642e0000000000000000000000600082015250565b60006144cb601583613a22565b91506144d682614495565b602082019050919050565b600060208201905081810360008301526144fa816144be565b9050919050565b7f4e487b7100000000000000000000000000000000000000000000000000000000600052604160045260246000fd5b7f4e487b7100000000000000000000000000000000000000000000000000000000600052603260045260246000fd5b7f4e487b7100000000000000000000000000000000000000000000000000000000600052601160045260246000fd5b6000614599826134aa565b91507fffffffffffffffffffffffffffffffffffffffffffffffffffffffffffffffff82036145cb576145ca61455f565b5b600182019050919050565b60006145e1826134aa565b91506145ec836134aa565b9250827fffffffffffffffffffffffffffffffffffffffffffffffffffffffffffffffff038211156146215761462061455f565b5b828201905092915050565b7f4f776e61626c653a2063616c6c6572206973206e6f7420746865206f776e6572600082015250565b6000614662602083613a22565b915061466d8261462c565b602082019050919050565b6000602082019050818103600083015261469181614655565b9050919050565b7f4f6e6c79206c6573736f722063616e2063616e63656c206c697374696e672e00600082015250565b60006146ce601f83613a22565b91506146d982614698565b602082019050919050565b600060208201905081810360008301526146fd816146c1565b9050919050565b60006040820190506147196000830185613864565b61472660208301846138bb565b9392505050565b7f4f776e61626c653a206e6577206f776e657220697320746865207a65726f206160008201527f6464726573730000000000000000000000000000000000000000000000000000602082015250565b6000614789602683613a22565b91506147948261472d565b604082019050919050565b600060208201905081810360008301526147b88161477c565b9050919050565b60006147ca826134aa565b91506147d5836134aa565b9250817fffffffffffffffffffffffffffffffffffffffffffffffffffffffffffffffff048311821515161561480e5761480d61455f565b5b828202905092915050565b7f4e487b7100000000000000000000000000000000000000000000000000000000600052601260045260246000fd5b6000614853826134aa565b915061485e836134aa565b92508261486e5761486d614819565b5b82820490509291505056fea2646970667358221220231ff8135067af0df75824d2272f503c2e5cb99ce384765972ffa65b3dddf4c764736f6c634300080f0033",
  "linkReferences": {},
  "deployedLinkReferences": {}
}