{
  "_format": "hh-sol-artifact-1",
  "contractName": "Lilos_V1",
  "sourceName": "contracts/Lilo_V1.sol",
  "abi": [
    {
      "inputs": [],
      "stateMutability": "nonpayable",
      "type": "constructor"
    },
    {
      "anonymous": false,
      "inputs": [
        {
          "indexed": false,
          "internalType": "uint256",
          "name": "listingId",
          "type": "uint256"
        },
        {
          "indexed": false,
          "internalType": "address",
          "name": "lessor",
          "type": "address"
        }
      ],
      "name": "Delisted",
      "type": "event"
    },
    {
      "anonymous": false,
      "inputs": [
        {
          "indexed": true,
          "internalType": "uint256",
          "name": "listingId",
          "type": "uint256"
        },
        {
          "indexed": true,
          "internalType": "address",
          "name": "lessor",
          "type": "address"
        },
        {
          "indexed": true,
          "internalType": "address",
          "name": "lessee",
          "type": "address"
        },
        {
          "indexed": false,
          "internalType": "address",
          "name": "collection",
          "type": "address"
        },
        {
          "indexed": false,
          "internalType": "uint256",
          "name": "tokenId",
          "type": "uint256"
        },
        {
          "indexed": false,
          "internalType": "uint256",
          "name": "collateral_value",
          "type": "uint256"
        },
        {
          "indexed": false,
          "internalType": "uint256",
          "name": "rental_value",
          "type": "uint256"
        },
        {
          "indexed": false,
          "internalType": "uint256",
          "name": "lease_term",
          "type": "uint256"
        },
        {
          "indexed": false,
          "internalType": "uint256",
          "name": "lease_start_date",
          "type": "uint256"
        },
        {
          "indexed": false,
          "internalType": "uint256",
          "name": "lease_end_date",
          "type": "uint256"
        }
      ],
      "name": "Leased",
      "type": "event"
    },
    {
      "anonymous": false,
      "inputs": [
        {
          "indexed": true,
          "internalType": "uint256",
          "name": "listingId",
          "type": "uint256"
        },
        {
          "indexed": true,
          "internalType": "address",
          "name": "lessor",
          "type": "address"
        },
        {
          "indexed": true,
          "internalType": "address",
          "name": "lessee",
          "type": "address"
        },
        {
          "indexed": false,
          "internalType": "address",
          "name": "collection",
          "type": "address"
        },
        {
          "indexed": false,
          "internalType": "uint256",
          "name": "tokenId",
          "type": "uint256"
        },
        {
          "indexed": false,
          "internalType": "uint256",
          "name": "collateral_value",
          "type": "uint256"
        },
        {
          "indexed": false,
          "internalType": "uint256",
          "name": "lease_term",
          "type": "uint256"
        },
        {
          "indexed": false,
          "internalType": "uint256",
          "name": "lease_start_date",
          "type": "uint256"
        },
        {
          "indexed": false,
          "internalType": "uint256",
          "name": "lease_end_date",
          "type": "uint256"
        },
        {
          "indexed": false,
          "internalType": "uint256",
          "name": "Liquidated_date",
          "type": "uint256"
        }
      ],
      "name": "Liquidated",
      "type": "event"
    },
    {
      "anonymous": false,
      "inputs": [
        {
          "indexed": true,
          "internalType": "uint256",
          "name": "listingId",
          "type": "uint256"
        },
        {
          "indexed": false,
          "internalType": "enum Lilos_V1.ListingStatus",
          "name": "status",
          "type": "uint8"
        },
        {
          "indexed": true,
          "internalType": "address",
          "name": "lessor",
          "type": "address"
        },
        {
          "indexed": false,
          "internalType": "address",
          "name": "collection",
          "type": "address"
        },
        {
          "indexed": false,
          "internalType": "uint256",
          "name": "tokenId",
          "type": "uint256"
        },
        {
          "indexed": false,
          "internalType": "uint256",
          "name": "collateral_value",
          "type": "uint256"
        },
        {
          "indexed": false,
          "internalType": "uint256",
          "name": "rental_value",
          "type": "uint256"
        },
        {
          "indexed": false,
          "internalType": "uint256",
          "name": "lease_term",
          "type": "uint256"
        }
      ],
      "name": "Listed",
      "type": "event"
    },
    {
      "anonymous": false,
      "inputs": [
        {
          "indexed": true,
          "internalType": "uint256",
          "name": "listingId",
          "type": "uint256"
        },
        {
          "indexed": false,
          "internalType": "address",
          "name": "lessor",
          "type": "address"
        },
        {
          "indexed": true,
          "internalType": "address",
          "name": "lessee",
          "type": "address"
        },
        {
          "indexed": false,
          "internalType": "address",
          "name": "collection",
          "type": "address"
        },
        {
          "indexed": false,
          "internalType": "uint256",
          "name": "tokenId",
          "type": "uint256"
        },
        {
          "indexed": false,
          "internalType": "uint256",
          "name": "collateral_value",
          "type": "uint256"
        },
        {
          "indexed": false,
          "internalType": "uint256",
          "name": "lease_term",
          "type": "uint256"
        },
        {
          "indexed": false,
          "internalType": "uint256",
          "name": "lease_start_date",
          "type": "uint256"
        },
        {
          "indexed": false,
          "internalType": "uint256",
          "name": "lease_end_date",
          "type": "uint256"
        },
        {
          "indexed": false,
          "internalType": "uint256",
          "name": "repay_date",
          "type": "uint256"
        }
      ],
      "name": "Repayed",
      "type": "event"
    },
    {
      "inputs": [
        {
          "internalType": "uint256",
          "name": "listingId_",
          "type": "uint256"
        }
      ],
      "name": "delist",
      "outputs": [],
      "stateMutability": "nonpayable",
      "type": "function"
    },
    {
      "inputs": [],
      "name": "getActiveItems",
      "outputs": [
        {
          "components": [
            {
              "internalType": "uint256",
              "name": "listingId",
              "type": "uint256"
            },
            {
              "internalType": "enum Lilos_V1.ListingStatus",
              "name": "status",
              "type": "uint8"
            },
            {
              "internalType": "address",
              "name": "lessor",
              "type": "address"
            },
            {
              "internalType": "address",
              "name": "lessee",
              "type": "address"
            },
            {
              "internalType": "address",
              "name": "collection",
              "type": "address"
            },
            {
              "internalType": "uint256",
              "name": "tokenId",
              "type": "uint256"
            },
            {
              "internalType": "uint256",
              "name": "collateral_value",
              "type": "uint256"
            },
            {
              "internalType": "uint256",
              "name": "rental_value",
              "type": "uint256"
            },
            {
              "internalType": "uint256",
              "name": "lease_term",
              "type": "uint256"
            },
            {
              "internalType": "uint256",
              "name": "lease_start_date",
              "type": "uint256"
            },
            {
              "internalType": "uint256",
              "name": "lease_end_date",
              "type": "uint256"
            }
          ],
          "internalType": "struct Lilos_V1.ListingItem[]",
          "name": "",
          "type": "tuple[]"
        }
      ],
      "stateMutability": "view",
      "type": "function"
    },
    {
      "inputs": [],
      "name": "getAllItems",
      "outputs": [
        {
          "components": [
            {
              "internalType": "uint256",
              "name": "listingId",
              "type": "uint256"
            },
            {
              "internalType": "enum Lilos_V1.ListingStatus",
              "name": "status",
              "type": "uint8"
            },
            {
              "internalType": "address",
              "name": "lessor",
              "type": "address"
            },
            {
              "internalType": "address",
              "name": "lessee",
              "type": "address"
            },
            {
              "internalType": "address",
              "name": "collection",
              "type": "address"
            },
            {
              "internalType": "uint256",
              "name": "tokenId",
              "type": "uint256"
            },
            {
              "internalType": "uint256",
              "name": "collateral_value",
              "type": "uint256"
            },
            {
              "internalType": "uint256",
              "name": "rental_value",
              "type": "uint256"
            },
            {
              "internalType": "uint256",
              "name": "lease_term",
              "type": "uint256"
            },
            {
              "internalType": "uint256",
              "name": "lease_start_date",
              "type": "uint256"
            },
            {
              "internalType": "uint256",
              "name": "lease_end_date",
              "type": "uint256"
            }
          ],
          "internalType": "struct Lilos_V1.ListingItem[]",
          "name": "",
          "type": "tuple[]"
        }
      ],
      "stateMutability": "view",
      "type": "function"
    },
    {
      "inputs": [
        {
          "internalType": "uint256",
          "name": "listingId_",
          "type": "uint256"
        }
      ],
      "name": "getIsExpiredByListingId",
      "outputs": [
        {
          "internalType": "bool",
          "name": "",
          "type": "bool"
        }
      ],
      "stateMutability": "view",
      "type": "function"
    },
    {
      "inputs": [
        {
          "internalType": "address",
          "name": "collection_",
          "type": "address"
        },
        {
          "internalType": "uint256",
          "name": "tokenId_",
          "type": "uint256"
        }
      ],
      "name": "getItemByCollctionAndTokenId",
      "outputs": [
        {
          "components": [
            {
              "internalType": "uint256",
              "name": "listingId",
              "type": "uint256"
            },
            {
              "internalType": "enum Lilos_V1.ListingStatus",
              "name": "status",
              "type": "uint8"
            },
            {
              "internalType": "address",
              "name": "lessor",
              "type": "address"
            },
            {
              "internalType": "address",
              "name": "lessee",
              "type": "address"
            },
            {
              "internalType": "address",
              "name": "collection",
              "type": "address"
            },
            {
              "internalType": "uint256",
              "name": "tokenId",
              "type": "uint256"
            },
            {
              "internalType": "uint256",
              "name": "collateral_value",
              "type": "uint256"
            },
            {
              "internalType": "uint256",
              "name": "rental_value",
              "type": "uint256"
            },
            {
              "internalType": "uint256",
              "name": "lease_term",
              "type": "uint256"
            },
            {
              "internalType": "uint256",
              "name": "lease_start_date",
              "type": "uint256"
            },
            {
              "internalType": "uint256",
              "name": "lease_end_date",
              "type": "uint256"
            }
          ],
          "internalType": "struct Lilos_V1.ListingItem",
          "name": "",
          "type": "tuple"
        }
      ],
      "stateMutability": "view",
      "type": "function"
    },
    {
      "inputs": [
        {
          "internalType": "uint256",
          "name": "listingId_",
          "type": "uint256"
        }
      ],
      "name": "getItemByListingId",
      "outputs": [
        {
          "components": [
            {
              "internalType": "uint256",
              "name": "listingId",
              "type": "uint256"
            },
            {
              "internalType": "enum Lilos_V1.ListingStatus",
              "name": "status",
              "type": "uint8"
            },
            {
              "internalType": "address",
              "name": "lessor",
              "type": "address"
            },
            {
              "internalType": "address",
              "name": "lessee",
              "type": "address"
            },
            {
              "internalType": "address",
              "name": "collection",
              "type": "address"
            },
            {
              "internalType": "uint256",
              "name": "tokenId",
              "type": "uint256"
            },
            {
              "internalType": "uint256",
              "name": "collateral_value",
              "type": "uint256"
            },
            {
              "internalType": "uint256",
              "name": "rental_value",
              "type": "uint256"
            },
            {
              "internalType": "uint256",
              "name": "lease_term",
              "type": "uint256"
            },
            {
              "internalType": "uint256",
              "name": "lease_start_date",
              "type": "uint256"
            },
            {
              "internalType": "uint256",
              "name": "lease_end_date",
              "type": "uint256"
            }
          ],
          "internalType": "struct Lilos_V1.ListingItem",
          "name": "",
          "type": "tuple"
        }
      ],
      "stateMutability": "view",
      "type": "function"
    },
    {
      "inputs": [
        {
          "internalType": "address",
          "name": "lessee_",
          "type": "address"
        }
      ],
      "name": "getItemsByLessee",
      "outputs": [
        {
          "components": [
            {
              "internalType": "uint256",
              "name": "listingId",
              "type": "uint256"
            },
            {
              "internalType": "enum Lilos_V1.ListingStatus",
              "name": "status",
              "type": "uint8"
            },
            {
              "internalType": "address",
              "name": "lessor",
              "type": "address"
            },
            {
              "internalType": "address",
              "name": "lessee",
              "type": "address"
            },
            {
              "internalType": "address",
              "name": "collection",
              "type": "address"
            },
            {
              "internalType": "uint256",
              "name": "tokenId",
              "type": "uint256"
            },
            {
              "internalType": "uint256",
              "name": "collateral_value",
              "type": "uint256"
            },
            {
              "internalType": "uint256",
              "name": "rental_value",
              "type": "uint256"
            },
            {
              "internalType": "uint256",
              "name": "lease_term",
              "type": "uint256"
            },
            {
              "internalType": "uint256",
              "name": "lease_start_date",
              "type": "uint256"
            },
            {
              "internalType": "uint256",
              "name": "lease_end_date",
              "type": "uint256"
            }
          ],
          "internalType": "struct Lilos_V1.ListingItem[]",
          "name": "",
          "type": "tuple[]"
        }
      ],
      "stateMutability": "view",
      "type": "function"
    },
    {
      "inputs": [
        {
          "internalType": "address",
          "name": "lessor_",
          "type": "address"
        }
      ],
      "name": "getItemsByLessor",
      "outputs": [
        {
          "components": [
            {
              "internalType": "uint256",
              "name": "listingId",
              "type": "uint256"
            },
            {
              "internalType": "enum Lilos_V1.ListingStatus",
              "name": "status",
              "type": "uint8"
            },
            {
              "internalType": "address",
              "name": "lessor",
              "type": "address"
            },
            {
              "internalType": "address",
              "name": "lessee",
              "type": "address"
            },
            {
              "internalType": "address",
              "name": "collection",
              "type": "address"
            },
            {
              "internalType": "uint256",
              "name": "tokenId",
              "type": "uint256"
            },
            {
              "internalType": "uint256",
              "name": "collateral_value",
              "type": "uint256"
            },
            {
              "internalType": "uint256",
              "name": "rental_value",
              "type": "uint256"
            },
            {
              "internalType": "uint256",
              "name": "lease_term",
              "type": "uint256"
            },
            {
              "internalType": "uint256",
              "name": "lease_start_date",
              "type": "uint256"
            },
            {
              "internalType": "uint256",
              "name": "lease_end_date",
              "type": "uint256"
            }
          ],
          "internalType": "struct Lilos_V1.ListingItem[]",
          "name": "",
          "type": "tuple[]"
        }
      ],
      "stateMutability": "view",
      "type": "function"
    },
    {
      "inputs": [],
      "name": "getLeasedItems",
      "outputs": [
        {
          "components": [
            {
              "internalType": "uint256",
              "name": "listingId",
              "type": "uint256"
            },
            {
              "internalType": "enum Lilos_V1.ListingStatus",
              "name": "status",
              "type": "uint8"
            },
            {
              "internalType": "address",
              "name": "lessor",
              "type": "address"
            },
            {
              "internalType": "address",
              "name": "lessee",
              "type": "address"
            },
            {
              "internalType": "address",
              "name": "collection",
              "type": "address"
            },
            {
              "internalType": "uint256",
              "name": "tokenId",
              "type": "uint256"
            },
            {
              "internalType": "uint256",
              "name": "collateral_value",
              "type": "uint256"
            },
            {
              "internalType": "uint256",
              "name": "rental_value",
              "type": "uint256"
            },
            {
              "internalType": "uint256",
              "name": "lease_term",
              "type": "uint256"
            },
            {
              "internalType": "uint256",
              "name": "lease_start_date",
              "type": "uint256"
            },
            {
              "internalType": "uint256",
              "name": "lease_end_date",
              "type": "uint256"
            }
          ],
          "internalType": "struct Lilos_V1.ListingItem[]",
          "name": "",
          "type": "tuple[]"
        }
      ],
      "stateMutability": "view",
      "type": "function"
    },
    {
      "inputs": [],
      "name": "getListingId",
      "outputs": [
        {
          "internalType": "uint256",
          "name": "",
          "type": "uint256"
        }
      ],
      "stateMutability": "view",
      "type": "function"
    },
    {
      "inputs": [],
      "name": "getTime",
      "outputs": [
        {
          "internalType": "uint256",
          "name": "",
          "type": "uint256"
        }
      ],
      "stateMutability": "view",
      "type": "function"
    },
    {
      "inputs": [
        {
          "internalType": "uint256",
          "name": "listingId_",
          "type": "uint256"
        }
      ],
      "name": "leaseIn",
      "outputs": [],
      "stateMutability": "payable",
      "type": "function"
    },
    {
      "inputs": [
        {
          "internalType": "uint256",
          "name": "listingId_",
          "type": "uint256"
        }
      ],
      "name": "liquidate",
      "outputs": [],
      "stateMutability": "nonpayable",
      "type": "function"
    },
    {
      "inputs": [
        {
          "internalType": "address",
          "name": "collection_",
          "type": "address"
        },
        {
          "internalType": "uint256",
          "name": "tokenId_",
          "type": "uint256"
        },
        {
          "internalType": "uint256",
          "name": "collateral_value_",
          "type": "uint256"
        },
        {
          "internalType": "uint256",
          "name": "rental_value_",
          "type": "uint256"
        },
        {
          "internalType": "uint256",
          "name": "lease_term_",
          "type": "uint256"
        }
      ],
      "name": "listToken",
      "outputs": [],
      "stateMutability": "nonpayable",
      "type": "function"
    },
    {
      "inputs": [
        {
          "internalType": "uint256",
          "name": "listingId_",
          "type": "uint256"
        }
      ],
      "name": "repay",
      "outputs": [],
      "stateMutability": "nonpayable",
      "type": "function"
    }
  ],
  "bytecode": "0x6080604052605f600155612710600355620d2f00600655603c60075534801561002757600080fd5b50336000806101000a81548173ffffffffffffffffffffffffffffffffffffffff021916908373ffffffffffffffffffffffffffffffffffffffff1602179055506142f5806100776000396000f3fe6080604052600436106100e85760003560e01c80636a5be2c91161008a578063bb4628e311610059578063bb4628e3146102d3578063c846511314610310578063eb510caf1461034d578063ef88efbd14610378576100e8565b80636a5be2c9146102175780636cad9f411461025457806391f6611d1461027f578063964bc33f146102aa576100e8565b8063371fd8e6116100c6578063371fd8e61461016f578063415f1240146101985780634ba1d6aa146101c1578063557ed1ba146101ec576100e8565b8063156cff80146100ed5780632213e5a3146101095780633353ff8a14610132575b600080fd5b61010760048036038101906101029190612fe7565b6103b5565b005b34801561011557600080fd5b50610130600480360381019061012b9190613072565b610955565b005b34801561013e57600080fd5b5061015960048036038101906101549190612fe7565b61100c565b6040516101669190613108565b60405180910390f35b34801561017b57600080fd5b5061019660048036038101906101919190612fe7565b61108b565b005b3480156101a457600080fd5b506101bf60048036038101906101ba9190612fe7565b611560565b005b3480156101cd57600080fd5b506101d66118ea565b6040516101e39190613349565b60405180910390f35b3480156101f857600080fd5b50610201611b2e565b60405161020e919061337a565b60405180910390f35b34801561022357600080fd5b5061023e60048036038101906102399190613395565b611b36565b60405161024b9190613349565b60405180910390f35b34801561026057600080fd5b50610269611ea8565b6040516102769190613349565b60405180910390f35b34801561028b57600080fd5b506102946121e4565b6040516102a19190613349565b60405180910390f35b3480156102b657600080fd5b506102d160048036038101906102cc9190612fe7565b612508565b005b3480156102df57600080fd5b506102fa60048036038101906102f59190613395565b612724565b6040516103079190613349565b60405180910390f35b34801561031c57600080fd5b5061033760048036038101906103329190612fe7565b612a96565b60405161034491906134a3565b60405180910390f35b34801561035957600080fd5b50610362612c47565b60405161036f919061337a565b60405180910390f35b34801561038457600080fd5b5061039f600480360381019061039a91906134bf565b612c51565b6040516103ac91906134a3565b60405180910390f35b60006005600083815260200190815260200160002090508060010160019054906101000a900473ffffffffffffffffffffffffffffffffffffffff1673ffffffffffffffffffffffffffffffffffffffff163373ffffffffffffffffffffffffffffffffffffffff160361045e576040517f08c379a00000000000000000000000000000000000000000000000000000000081526004016104559061355c565b60405180910390fd5b600060028111156104725761047161315e565b5b8160010160009054906101000a900460ff1660028111156104965761049561315e565b5b146104d6576040517f08c379a00000000000000000000000000000000000000000000000000000000081526004016104cd906135c8565b60405180910390fd5b60008160030160009054906101000a900473ffffffffffffffffffffffffffffffffffffffff1673ffffffffffffffffffffffffffffffffffffffff1663e985e9c58360010160019054906101000a900473ffffffffffffffffffffffffffffffffffffffff16306040518363ffffffff1660e01b815260040161055b9291906135f7565b602060405180830381865afa158015610578573d6000803e3d6000fd5b505050506040513d601f19601f8201168201806040525081019061059c919061364c565b9050806105d15760028260010160006101000a81548160ff021916908360028111156105cb576105ca61315e565b5b02179055505b80610611576040517f08c379a0000000000000000000000000000000000000000000000000000000008152600401610608906136eb565b60405180910390fd5b61062c82600601548360050154612ebc90919063ffffffff16565b341461066d576040517f08c379a00000000000000000000000000000000000000000000000000000000081526004016106649061377d565b60405180910390fd5b8160030160009054906101000a900473ffffffffffffffffffffffffffffffffffffffff1673ffffffffffffffffffffffffffffffffffffffff166323b872dd8360010160019054906101000a900473ffffffffffffffffffffffffffffffffffffffff163385600401546040518463ffffffff1660e01b81526004016106f69392919061379d565b600060405180830381600087803b15801561071057600080fd5b505af1158015610724573d6000803e3d6000fd5b505050508160010160019054906101000a900473ffffffffffffffffffffffffffffffffffffffff1673ffffffffffffffffffffffffffffffffffffffff166108fc61079260646107846001548760060154612ed290919063ffffffff16565b612ee890919063ffffffff16565b9081150290604051600060405180830381858888f193505050501580156107bd573d6000803e3d6000fd5b5060018260010160006101000a81548160ff021916908360028111156107e6576107e561315e565b5b0217905550338260020160006101000a81548173ffffffffffffffffffffffffffffffffffffffff021916908373ffffffffffffffffffffffffffffffffffffffff16021790555042826008018190555061085282600701548360080154612ebc90919063ffffffff16565b82600901819055508160020160009054906101000a900473ffffffffffffffffffffffffffffffffffffffff1673ffffffffffffffffffffffffffffffffffffffff168260010160019054906101000a900473ffffffffffffffffffffffffffffffffffffffff1673ffffffffffffffffffffffffffffffffffffffff16847fff458956ff88fac547fd065c4ce27b6611e74dbe594d7dc9b704da0271b2fbb58560030160009054906101000a900473ffffffffffffffffffffffffffffffffffffffff1686600401548760050154886006015489600701548a600801548b6009015460405161094897969594939291906137d4565b60405180910390a4505050565b600354600254111561099c576040517f08c379a0000000000000000000000000000000000000000000000000000000008152600401610993906138b5565b60405180910390fd5b60001515600460008773ffffffffffffffffffffffffffffffffffffffff1673ffffffffffffffffffffffffffffffffffffffff168152602001908152602001600020600086815260200190815260200160002060009054906101000a900460ff16151514610a40576040517f08c379a0000000000000000000000000000000000000000000000000000000008152600401610a3790613921565b60405180910390fd5b8473ffffffffffffffffffffffffffffffffffffffff1663e985e9c533306040518363ffffffff1660e01b8152600401610a7b9291906135f7565b602060405180830381865afa158015610a98573d6000803e3d6000fd5b505050506040513d601f19601f82011682018060405250810190610abc919061364c565b610afb576040517f08c379a0000000000000000000000000000000000000000000000000000000008152600401610af2906139d9565b60405180910390fd5b3373ffffffffffffffffffffffffffffffffffffffff168573ffffffffffffffffffffffffffffffffffffffff16636352211e866040518263ffffffff1660e01b8152600401610b4b919061337a565b602060405180830381865afa158015610b68573d6000803e3d6000fd5b505050506040513d601f19601f82011682018060405250810190610b8c9190613a0e565b73ffffffffffffffffffffffffffffffffffffffff1614610be2576040517f08c379a0000000000000000000000000000000000000000000000000000000008152600401610bd990613a87565b60405180910390fd5b60008311610c25576040517f08c379a0000000000000000000000000000000000000000000000000000000008152600401610c1c90613b19565b60405180910390fd5b60008211610c68576040517f08c379a0000000000000000000000000000000000000000000000000000000008152600401610c5f90613bab565b60405180910390fd5b6007548111610cac576040517f08c379a0000000000000000000000000000000000000000000000000000000008152600401610ca390613c3d565b60405180910390fd5b6006548110610cf0576040517f08c379a0000000000000000000000000000000000000000000000000000000008152600401610ce790613ccf565b60405180910390fd5b6000604051806101600160405280600254815260200160006002811115610d1a57610d1961315e565b5b81526020013373ffffffffffffffffffffffffffffffffffffffff168152602001600073ffffffffffffffffffffffffffffffffffffffff1681526020018773ffffffffffffffffffffffffffffffffffffffff16815260200186815260200185815260200184815260200183815260200160085481526020016008548152509050600160046000836080015173ffffffffffffffffffffffffffffffffffffffff1673ffffffffffffffffffffffffffffffffffffffff16815260200190815260200160002060008360a00151815260200190815260200160002060006101000a81548160ff021916908315150217905550806005600060025481526020019081526020016000206000820151816000015560208201518160010160006101000a81548160ff02191690836002811115610e5857610e5761315e565b5b021790555060408201518160010160016101000a81548173ffffffffffffffffffffffffffffffffffffffff021916908373ffffffffffffffffffffffffffffffffffffffff16021790555060608201518160020160006101000a81548173ffffffffffffffffffffffffffffffffffffffff021916908373ffffffffffffffffffffffffffffffffffffffff16021790555060808201518160030160006101000a81548173ffffffffffffffffffffffffffffffffffffffff021916908373ffffffffffffffffffffffffffffffffffffffff16021790555060a0820151816004015560c0820151816005015560e082015181600601556101008201518160070155610120820151816008015561014082015181600901559050503373ffffffffffffffffffffffffffffffffffffffff166002547f5434c4e750c029ca5d51034d6eb735a40ddfb45ff05e9b7b3fb6e95d1d71ea17836020015184608001518560a001518660c001518760e00151886101000151604051610fe096959493929190613cfe565b60405180910390a3610ffe6001600254612ebc90919063ffffffff16565b600281905550505050505050565b600080600160028111156110235761102261315e565b5b6005600085815260200190815260200160002060010160009054906101000a900460ff1660028111156110595761105861315e565b5b0361108257600560008481526020019081526020016000206009015442111561108157600190505b5b80915050919050565b6000600560008381526020019081526020016000209050600160028111156110b6576110b561315e565b5b8160010160009054906101000a900460ff1660028111156110da576110d961315e565b5b1461111a576040517f08c379a000000000000000000000000000000000000000000000000000000000815260040161111190613dab565b60405180910390fd5b8060020160009054906101000a900473ffffffffffffffffffffffffffffffffffffffff1673ffffffffffffffffffffffffffffffffffffffff163373ffffffffffffffffffffffffffffffffffffffff16146111ac576040517f08c379a00000000000000000000000000000000000000000000000000000000081526004016111a390613e17565b60405180910390fd5b3073ffffffffffffffffffffffffffffffffffffffff168160030160009054906101000a900473ffffffffffffffffffffffffffffffffffffffff1673ffffffffffffffffffffffffffffffffffffffff16636352211e83600401546040518263ffffffff1660e01b8152600401611224919061337a565b602060405180830381865afa158015611241573d6000803e3d6000fd5b505050506040513d601f19601f820116820180604052508101906112659190613a0e565b73ffffffffffffffffffffffffffffffffffffffff16146112bb576040517f08c379a00000000000000000000000000000000000000000000000000000000081526004016112b290613ea9565b60405180910390fd5b3373ffffffffffffffffffffffffffffffffffffffff166108fc82600501549081150290604051600060405180830381858888f19350505050158015611305573d6000803e3d6000fd5b506000600460008360030160009054906101000a900473ffffffffffffffffffffffffffffffffffffffff1673ffffffffffffffffffffffffffffffffffffffff1673ffffffffffffffffffffffffffffffffffffffff16815260200190815260200160002060008360040154815260200190815260200160002060006101000a81548160ff02191690831515021790555060028160010160006101000a81548160ff021916908360028111156113bf576113be61315e565b5b02179055508060030160009054906101000a900473ffffffffffffffffffffffffffffffffffffffff1673ffffffffffffffffffffffffffffffffffffffff166323b872dd308360010160019054906101000a900473ffffffffffffffffffffffffffffffffffffffff1684600401546040518463ffffffff1660e01b815260040161144d9392919061379d565b600060405180830381600087803b15801561146757600080fd5b505af115801561147b573d6000803e3d6000fd5b505050508060020160009054906101000a900473ffffffffffffffffffffffffffffffffffffffff1673ffffffffffffffffffffffffffffffffffffffff16827f60eb88795e59c7c9f22492f0d2ebbbad7e4f9519bc243217c2a5ac5f745fd62e8360010160019054906101000a900473ffffffffffffffffffffffffffffffffffffffff168460030160009054906101000a900473ffffffffffffffffffffffffffffffffffffffff168560040154866005015487600701548860080154896009015442604051611554989796959493929190613ec9565b60405180910390a35050565b60006005600083815260200190815260200160002090506001600281111561158b5761158a61315e565b5b8160010160009054906101000a900460ff1660028111156115af576115ae61315e565b5b146115ef576040517f08c379a00000000000000000000000000000000000000000000000000000000081526004016115e690613dab565b60405180910390fd5b3373ffffffffffffffffffffffffffffffffffffffff168160010160019054906101000a900473ffffffffffffffffffffffffffffffffffffffff1673ffffffffffffffffffffffffffffffffffffffff1614611681576040517f08c379a000000000000000000000000000000000000000000000000000000000815260040161167890613fb9565b60405180910390fd5b806009015442116116c7576040517f08c379a00000000000000000000000000000000000000000000000000000000081526004016116be90614025565b60405180910390fd5b8060010160019054906101000a900473ffffffffffffffffffffffffffffffffffffffff1673ffffffffffffffffffffffffffffffffffffffff166108fc82600501549081150290604051600060405180830381858888f19350505050158015611735573d6000803e3d6000fd5b506000600460008360030160009054906101000a900473ffffffffffffffffffffffffffffffffffffffff1673ffffffffffffffffffffffffffffffffffffffff1673ffffffffffffffffffffffffffffffffffffffff16815260200190815260200160002060008360040154815260200190815260200160002060006101000a81548160ff02191690831515021790555060028160010160006101000a81548160ff021916908360028111156117ef576117ee61315e565b5b02179055508060020160009054906101000a900473ffffffffffffffffffffffffffffffffffffffff1673ffffffffffffffffffffffffffffffffffffffff168160010160019054906101000a900473ffffffffffffffffffffffffffffffffffffffff1673ffffffffffffffffffffffffffffffffffffffff16837fb2ad999e088f3804d59758e4ac42515faf31507578a12b712f4d997c986c3f208460030160009054906101000a900473ffffffffffffffffffffffffffffffffffffffff1685600401548660050154876007015488600801548960090154426040516118de97969594939291906137d4565b60405180910390a45050565b6060600060025467ffffffffffffffff81111561190a57611909614045565b5b60405190808252806020026020018201604052801561194357816020015b611930612efe565b8152602001906001900390816119285790505b50905060005b600254811015611b26576005600082815260200190815260200160002060405180610160016040529081600082015481526020016001820160009054906101000a900460ff1660028111156119a1576119a061315e565b5b60028111156119b3576119b261315e565b5b81526020016001820160019054906101000a900473ffffffffffffffffffffffffffffffffffffffff1673ffffffffffffffffffffffffffffffffffffffff1673ffffffffffffffffffffffffffffffffffffffff1681526020016002820160009054906101000a900473ffffffffffffffffffffffffffffffffffffffff1673ffffffffffffffffffffffffffffffffffffffff1673ffffffffffffffffffffffffffffffffffffffff1681526020016003820160009054906101000a900473ffffffffffffffffffffffffffffffffffffffff1673ffffffffffffffffffffffffffffffffffffffff1673ffffffffffffffffffffffffffffffffffffffff1681526020016004820154815260200160058201548152602001600682015481526020016007820154815260200160088201548152602001600982015481525050828281518110611b0857611b07614074565b5b60200260200101819052508080611b1e906140d2565b915050611949565b508091505090565b600042905090565b606060008060005b6001600254611b4d919061411a565b811015611bdf578473ffffffffffffffffffffffffffffffffffffffff166005600083815260200190815260200160002060010160019054906101000a900473ffffffffffffffffffffffffffffffffffffffff1673ffffffffffffffffffffffffffffffffffffffff1603611bcc578280611bc8906140d2565b9350505b8080611bd7906140d2565b915050611b3e565b5060008267ffffffffffffffff811115611bfc57611bfb614045565b5b604051908082528060200260200182016040528015611c3557816020015b611c22612efe565b815260200190600190039081611c1a5790505b50905060005b6001600254611c4a919061411a565b811015611e9c578573ffffffffffffffffffffffffffffffffffffffff166005600083815260200190815260200160002060010160019054906101000a900473ffffffffffffffffffffffffffffffffffffffff1673ffffffffffffffffffffffffffffffffffffffff1603611e89576005600082815260200190815260200160002060405180610160016040529081600082015481526020016001820160009054906101000a900460ff166002811115611d0857611d0761315e565b5b6002811115611d1a57611d1961315e565b5b81526020016001820160019054906101000a900473ffffffffffffffffffffffffffffffffffffffff1673ffffffffffffffffffffffffffffffffffffffff1673ffffffffffffffffffffffffffffffffffffffff1681526020016002820160009054906101000a900473ffffffffffffffffffffffffffffffffffffffff1673ffffffffffffffffffffffffffffffffffffffff1673ffffffffffffffffffffffffffffffffffffffff1681526020016003820160009054906101000a900473ffffffffffffffffffffffffffffffffffffffff1673ffffffffffffffffffffffffffffffffffffffff1673ffffffffffffffffffffffffffffffffffffffff1681526020016004820154815260200160058201548152602001600682015481526020016007820154815260200160088201548152602001600982015481525050828481518110611e6f57611e6e614074565b5b60200260200101819052508280611e85906140d2565b9350505b8080611e94906140d2565b915050611c3b565b50809350505050919050565b606060008060005b6001600254611ebf919061411a565b811015611f375760016002811115611eda57611ed961315e565b5b6005600083815260200190815260200160002060010160009054906101000a900460ff166002811115611f1057611f0f61315e565b5b03611f24578280611f20906140d2565b9350505b8080611f2f906140d2565b915050611eb0565b5060008267ffffffffffffffff811115611f5457611f53614045565b5b604051908082528060200260200182016040528015611f8d57816020015b611f7a612efe565b815260200190600190039081611f725790505b50905060005b6001600254611fa2919061411a565b8110156121da5760016002811115611fbd57611fbc61315e565b5b6005600083815260200190815260200160002060010160009054906101000a900460ff166002811115611ff357611ff261315e565b5b036121c7576005600082815260200190815260200160002060405180610160016040529081600082015481526020016001820160009054906101000a900460ff1660028111156120465761204561315e565b5b60028111156120585761205761315e565b5b81526020016001820160019054906101000a900473ffffffffffffffffffffffffffffffffffffffff1673ffffffffffffffffffffffffffffffffffffffff1673ffffffffffffffffffffffffffffffffffffffff1681526020016002820160009054906101000a900473ffffffffffffffffffffffffffffffffffffffff1673ffffffffffffffffffffffffffffffffffffffff1673ffffffffffffffffffffffffffffffffffffffff1681526020016003820160009054906101000a900473ffffffffffffffffffffffffffffffffffffffff1673ffffffffffffffffffffffffffffffffffffffff1673ffffffffffffffffffffffffffffffffffffffff16815260200160048201548152602001600582015481526020016006820154815260200160078201548152602001600882015481526020016009820154815250508284815181106121ad576121ac614074565b5b602002602001018190525082806121c3906140d2565b9350505b80806121d2906140d2565b915050611f93565b5080935050505090565b606060008060005b600254811015612267576000600281111561220a5761220961315e565b5b6005600083815260200190815260200160002060010160009054906101000a900460ff1660028111156122405761223f61315e565b5b03612254578280612250906140d2565b9350505b808061225f906140d2565b9150506121ec565b5060008267ffffffffffffffff81111561228457612283614045565b5b6040519080825280602002602001820160405280156122bd57816020015b6122aa612efe565b8152602001906001900390816122a25790505b50905060005b6002548110156124fe57600060028111156122e1576122e061315e565b5b6005600083815260200190815260200160002060010160009054906101000a900460ff1660028111156123175761231661315e565b5b036124eb576005600082815260200190815260200160002060405180610160016040529081600082015481526020016001820160009054906101000a900460ff16600281111561236a5761236961315e565b5b600281111561237c5761237b61315e565b5b81526020016001820160019054906101000a900473ffffffffffffffffffffffffffffffffffffffff1673ffffffffffffffffffffffffffffffffffffffff1673ffffffffffffffffffffffffffffffffffffffff1681526020016002820160009054906101000a900473ffffffffffffffffffffffffffffffffffffffff1673ffffffffffffffffffffffffffffffffffffffff1673ffffffffffffffffffffffffffffffffffffffff1681526020016003820160009054906101000a900473ffffffffffffffffffffffffffffffffffffffff1673ffffffffffffffffffffffffffffffffffffffff1673ffffffffffffffffffffffffffffffffffffffff16815260200160048201548152602001600582015481526020016006820154815260200160078201548152602001600882015481526020016009820154815250508284815181106124d1576124d0614074565b5b602002602001018190525082806124e7906140d2565b9350505b80806124f6906140d2565b9150506122c3565b5080935050505090565b60006005600083815260200190815260200160002090508060010160019054906101000a900473ffffffffffffffffffffffffffffffffffffffff1673ffffffffffffffffffffffffffffffffffffffff163373ffffffffffffffffffffffffffffffffffffffff16146125b1576040517f08c379a00000000000000000000000000000000000000000000000000000000081526004016125a8906141bc565b60405180910390fd5b600060028111156125c5576125c461315e565b5b8160010160009054906101000a900460ff1660028111156125e9576125e861315e565b5b14612629576040517f08c379a0000000000000000000000000000000000000000000000000000000008152600401612620906135c8565b60405180910390fd5b6000600460008360030160009054906101000a900473ffffffffffffffffffffffffffffffffffffffff1673ffffffffffffffffffffffffffffffffffffffff1673ffffffffffffffffffffffffffffffffffffffff16815260200190815260200160002060008360040154815260200190815260200160002060006101000a81548160ff02191690831515021790555060028160010160006101000a81548160ff021916908360028111156126e2576126e161315e565b5b02179055507f8e51b30707579d5dafbd56c2b27a7d382dd32fce8afa83687e99daf0ee47f8af82336040516127189291906141dc565b60405180910390a15050565b606060008060005b600160025461273b919061411a565b8110156127cd578473ffffffffffffffffffffffffffffffffffffffff166005600083815260200190815260200160002060020160009054906101000a900473ffffffffffffffffffffffffffffffffffffffff1673ffffffffffffffffffffffffffffffffffffffff16036127ba5782806127b6906140d2565b9350505b80806127c5906140d2565b91505061272c565b5060008267ffffffffffffffff8111156127ea576127e9614045565b5b60405190808252806020026020018201604052801561282357816020015b612810612efe565b8152602001906001900390816128085790505b50905060005b6001600254612838919061411a565b811015612a8a578573ffffffffffffffffffffffffffffffffffffffff166005600083815260200190815260200160002060020160009054906101000a900473ffffffffffffffffffffffffffffffffffffffff1673ffffffffffffffffffffffffffffffffffffffff1603612a77576005600082815260200190815260200160002060405180610160016040529081600082015481526020016001820160009054906101000a900460ff1660028111156128f6576128f561315e565b5b60028111156129085761290761315e565b5b81526020016001820160019054906101000a900473ffffffffffffffffffffffffffffffffffffffff1673ffffffffffffffffffffffffffffffffffffffff1673ffffffffffffffffffffffffffffffffffffffff1681526020016002820160009054906101000a900473ffffffffffffffffffffffffffffffffffffffff1673ffffffffffffffffffffffffffffffffffffffff1673ffffffffffffffffffffffffffffffffffffffff1681526020016003820160009054906101000a900473ffffffffffffffffffffffffffffffffffffffff1673ffffffffffffffffffffffffffffffffffffffff1673ffffffffffffffffffffffffffffffffffffffff1681526020016004820154815260200160058201548152602001600682015481526020016007820154815260200160088201548152602001600982015481525050828481518110612a5d57612a5c614074565b5b60200260200101819052508280612a73906140d2565b9350505b8080612a82906140d2565b915050612829565b50809350505050919050565b612a9e612efe565b6005600083815260200190815260200160002060405180610160016040529081600082015481526020016001820160009054906101000a900460ff166002811115612aec57612aeb61315e565b5b6002811115612afe57612afd61315e565b5b81526020016001820160019054906101000a900473ffffffffffffffffffffffffffffffffffffffff1673ffffffffffffffffffffffffffffffffffffffff1673ffffffffffffffffffffffffffffffffffffffff1681526020016002820160009054906101000a900473ffffffffffffffffffffffffffffffffffffffff1673ffffffffffffffffffffffffffffffffffffffff1673ffffffffffffffffffffffffffffffffffffffff1681526020016003820160009054906101000a900473ffffffffffffffffffffffffffffffffffffffff1673ffffffffffffffffffffffffffffffffffffffff1673ffffffffffffffffffffffffffffffffffffffff16815260200160048201548152602001600582015481526020016006820154815260200160078201548152602001600882015481526020016009820154815250509050919050565b6000600254905090565b612c59612efe565b612c61612efe565b60005b600254811015612eb1578473ffffffffffffffffffffffffffffffffffffffff166005600083815260200190815260200160002060030160009054906101000a900473ffffffffffffffffffffffffffffffffffffffff1673ffffffffffffffffffffffffffffffffffffffff16148015612cf45750836005600083815260200190815260200160002060040154145b15612e9e576005600082815260200190815260200160002060405180610160016040529081600082015481526020016001820160009054906101000a900460ff166002811115612d4757612d4661315e565b5b6002811115612d5957612d5861315e565b5b81526020016001820160019054906101000a900473ffffffffffffffffffffffffffffffffffffffff1673ffffffffffffffffffffffffffffffffffffffff1673ffffffffffffffffffffffffffffffffffffffff1681526020016002820160009054906101000a900473ffffffffffffffffffffffffffffffffffffffff1673ffffffffffffffffffffffffffffffffffffffff1673ffffffffffffffffffffffffffffffffffffffff1681526020016003820160009054906101000a900473ffffffffffffffffffffffffffffffffffffffff1673ffffffffffffffffffffffffffffffffffffffff1673ffffffffffffffffffffffffffffffffffffffff168152602001600482015481526020016005820154815260200160068201548152602001600782015481526020016008820154815260200160098201548152505091505b8080612ea9906140d2565b915050612c64565b508091505092915050565b60008183612eca919061411a565b905092915050565b60008183612ee09190614205565b905092915050565b60008183612ef6919061428e565b905092915050565b6040518061016001604052806000815260200160006002811115612f2557612f2461315e565b5b8152602001600073ffffffffffffffffffffffffffffffffffffffff168152602001600073ffffffffffffffffffffffffffffffffffffffff168152602001600073ffffffffffffffffffffffffffffffffffffffff1681526020016000815260200160008152602001600081526020016000815260200160008152602001600081525090565b600080fd5b6000819050919050565b612fc481612fb1565b8114612fcf57600080fd5b50565b600081359050612fe181612fbb565b92915050565b600060208284031215612ffd57612ffc612fac565b5b600061300b84828501612fd2565b91505092915050565b600073ffffffffffffffffffffffffffffffffffffffff82169050919050565b600061303f82613014565b9050919050565b61304f81613034565b811461305a57600080fd5b50565b60008135905061306c81613046565b92915050565b600080600080600060a0868803121561308e5761308d612fac565b5b600061309c8882890161305d565b95505060206130ad88828901612fd2565b94505060406130be88828901612fd2565b93505060606130cf88828901612fd2565b92505060806130e088828901612fd2565b9150509295509295909350565b60008115159050919050565b613102816130ed565b82525050565b600060208201905061311d60008301846130f9565b92915050565b600081519050919050565b600082825260208201905092915050565b6000819050602082019050919050565b61315881612fb1565b82525050565b7f4e487b7100000000000000000000000000000000000000000000000000000000600052602160045260246000fd5b6003811061319e5761319d61315e565b5b50565b60008190506131af8261318d565b919050565b60006131bf826131a1565b9050919050565b6131cf816131b4565b82525050565b6131de81613034565b82525050565b610160820160008201516131fb600085018261314f565b50602082015161320e60208501826131c6565b50604082015161322160408501826131d5565b50606082015161323460608501826131d5565b50608082015161324760808501826131d5565b5060a082015161325a60a085018261314f565b5060c082015161326d60c085018261314f565b5060e082015161328060e085018261314f565b5061010082015161329561010085018261314f565b506101208201516132aa61012085018261314f565b506101408201516132bf61014085018261314f565b50505050565b60006132d183836131e4565b6101608301905092915050565b6000602082019050919050565b60006132f682613123565b613300818561312e565b935061330b8361313f565b8060005b8381101561333c57815161332388826132c5565b975061332e836132de565b92505060018101905061330f565b5085935050505092915050565b6000602082019050818103600083015261336381846132eb565b905092915050565b61337481612fb1565b82525050565b600060208201905061338f600083018461336b565b92915050565b6000602082840312156133ab576133aa612fac565b5b60006133b98482850161305d565b91505092915050565b610160820160008201516133d9600085018261314f565b5060208201516133ec60208501826131c6565b5060408201516133ff60408501826131d5565b50606082015161341260608501826131d5565b50608082015161342560808501826131d5565b5060a082015161343860a085018261314f565b5060c082015161344b60c085018261314f565b5060e082015161345e60e085018261314f565b5061010082015161347361010085018261314f565b5061012082015161348861012085018261314f565b5061014082015161349d61014085018261314f565b50505050565b6000610160820190506134b960008301846133c2565b92915050565b600080604083850312156134d6576134d5612fac565b5b60006134e48582860161305d565b92505060206134f585828601612fd2565b9150509250929050565b600082825260208201905092915050565b7f4c6573736f722063616e6e6f74206265206c65737365652e0000000000000000600082015250565b60006135466018836134ff565b915061355182613510565b602082019050919050565b6000602082019050818103600083015261357581613539565b9050919050565b7f4c697374696e67206973206e6f74206163746976652e00000000000000000000600082015250565b60006135b26016836134ff565b91506135bd8261357c565b602082019050919050565b600060208201905081810360008301526135e1816135a5565b9050919050565b6135f181613034565b82525050565b600060408201905061360c60008301856135e8565b61361960208301846135e8565b9392505050565b613629816130ed565b811461363457600080fd5b50565b60008151905061364681613620565b92915050565b60006020828403121561366257613661612fac565b5b600061367084828501613637565b91505092915050565b7f4c6573736f722072656d6f7665642074686520617070726f76616c206f66207460008201527f686520746f6b656e20746f2074686520636f6e74726163742e00000000000000602082015250565b60006136d56039836134ff565b91506136e082613679565b604082019050919050565b60006020820190508181036000830152613704816136c8565b9050919050565b7f6d73672e76616c756520646f7365206e6f74206d617463682074686520746f7460008201527f616c207370656e64696e672e0000000000000000000000000000000000000000602082015250565b6000613767602c836134ff565b91506137728261370b565b604082019050919050565b600060208201905081810360008301526137968161375a565b9050919050565b60006060820190506137b260008301866135e8565b6137bf60208301856135e8565b6137cc604083018461336b565b949350505050565b600060e0820190506137e9600083018a6135e8565b6137f6602083018961336b565b613803604083018861336b565b613810606083018761336b565b61381d608083018661336b565b61382a60a083018561336b565b61383760c083018461336b565b98975050505050505050565b7f546865206c697374696e67206e756d626572207265616368656420746865206c60008201527f696d69742e000000000000000000000000000000000000000000000000000000602082015250565b600061389f6025836134ff565b91506138aa82613843565b604082019050919050565b600060208201905081810360008301526138ce81613892565b9050919050565b7f5468697320746f6b656e20697320616c7265616479206c69737465642e000000600082015250565b600061390b601d836134ff565b9150613916826138d5565b602082019050919050565b6000602082019050818103600083015261393a816138fe565b9050919050565b7f4c6573736f722073686f756c6420617070726f7665204c696c6f7320636f6e7460008201527f7261637420746f2061636365737320616c6c20746f6b656e73206f662074686560208201527f20636f6c6c656374696f6e2e0000000000000000000000000000000000000000604082015250565b60006139c3604c836134ff565b91506139ce82613941565b606082019050919050565b600060208201905081810360008301526139f2816139b6565b9050919050565b600081519050613a0881613046565b92915050565b600060208284031215613a2457613a23612fac565b5b6000613a32848285016139f9565b91505092915050565b7f4c6573736f72206d7573742062652074686520746f6b656e206f776e65722e00600082015250565b6000613a71601f836134ff565b9150613a7c82613a3b565b602082019050919050565b60006020820190508181036000830152613aa081613a64565b9050919050565b7f436f6c6c61746572616c2076616c75652073686f756c64206265206c6172676560008201527f72207468616e207a65726f2e0000000000000000000000000000000000000000602082015250565b6000613b03602c836134ff565b9150613b0e82613aa7565b604082019050919050565b60006020820190508181036000830152613b3281613af6565b9050919050565b7f52656e742076616c75652073686f756c64206265206c6172676572207468616e60008201527f207a65726f2e0000000000000000000000000000000000000000000000000000602082015250565b6000613b956026836134ff565b9150613ba082613b39565b604082019050919050565b60006020820190508181036000830152613bc481613b88565b9050919050565b7f4c65617365207465726d2073686f756c64206265206c6f6e676572207468616e60008201527f2031206d696e757465732e000000000000000000000000000000000000000000602082015250565b6000613c27602b836134ff565b9150613c3282613bcb565b604082019050919050565b60006020820190508181036000830152613c5681613c1a565b9050919050565b7f4c65617365207465726d2073686f756c642062652073686f727465722074686160008201527f6e20313020646179732e00000000000000000000000000000000000000000000602082015250565b6000613cb9602a836134ff565b9150613cc482613c5d565b604082019050919050565b60006020820190508181036000830152613ce881613cac565b9050919050565b613cf8816131b4565b82525050565b600060c082019050613d136000830189613cef565b613d2060208301886135e8565b613d2d604083018761336b565b613d3a606083018661336b565b613d47608083018561336b565b613d5460a083018461336b565b979650505050505050565b7f546f6b656e206973206e6f74206c65617365642e000000000000000000000000600082015250565b6000613d956014836134ff565b9150613da082613d5f565b602082019050919050565b60006020820190508181036000830152613dc481613d88565b9050919050565b7f4f6e6c79206c65737365652063616e2072657061792e00000000000000000000600082015250565b6000613e016016836134ff565b9150613e0c82613dcb565b602082019050919050565b60006020820190508181036000830152613e3081613df4565b9050919050565b7f546f6b656e206973206e6f7420696e2074686520636f6e74726163742076617560008201527f6c742e0000000000000000000000000000000000000000000000000000000000602082015250565b6000613e936023836134ff565b9150613e9e82613e37565b604082019050919050565b60006020820190508181036000830152613ec281613e86565b9050919050565b600061010082019050613edf600083018b6135e8565b613eec602083018a6135e8565b613ef9604083018961336b565b613f06606083018861336b565b613f13608083018761336b565b613f2060a083018661336b565b613f2d60c083018561336b565b613f3a60e083018461336b565b9998505050505050505050565b7f4c69717569646174696f6e2063616e206f6e6c7920626520696d706c656d656e60008201527f746564206279206c6573736f722e000000000000000000000000000000000000602082015250565b6000613fa3602e836134ff565b9150613fae82613f47565b604082019050919050565b60006020820190508181036000830152613fd281613f96565b9050919050565b7f4c65617365206973206e6f7420657870697265642e0000000000000000000000600082015250565b600061400f6015836134ff565b915061401a82613fd9565b602082019050919050565b6000602082019050818103600083015261403e81614002565b9050919050565b7f4e487b7100000000000000000000000000000000000000000000000000000000600052604160045260246000fd5b7f4e487b7100000000000000000000000000000000000000000000000000000000600052603260045260246000fd5b7f4e487b7100000000000000000000000000000000000000000000000000000000600052601160045260246000fd5b60006140dd82612fb1565b91507fffffffffffffffffffffffffffffffffffffffffffffffffffffffffffffffff820361410f5761410e6140a3565b5b600182019050919050565b600061412582612fb1565b915061413083612fb1565b9250827fffffffffffffffffffffffffffffffffffffffffffffffffffffffffffffffff03821115614165576141646140a3565b5b828201905092915050565b7f4f6e6c79206c6573736f722063616e2063616e63656c206c697374696e672e00600082015250565b60006141a6601f836134ff565b91506141b182614170565b602082019050919050565b600060208201905081810360008301526141d581614199565b9050919050565b60006040820190506141f1600083018561336b565b6141fe60208301846135e8565b9392505050565b600061421082612fb1565b915061421b83612fb1565b9250817fffffffffffffffffffffffffffffffffffffffffffffffffffffffffffffffff0483118215151615614254576142536140a3565b5b828202905092915050565b7f4e487b7100000000000000000000000000000000000000000000000000000000600052601260045260246000fd5b600061429982612fb1565b91506142a483612fb1565b9250826142b4576142b361425f565b5b82820490509291505056fea26469706673582212203614a3387bb07673597dd90b3916b2b58c478783572a8a4b73077ceff4c42c6964736f6c634300080e0033",
  "linkReferences": {},
  "deployedLinkReferences": {}
}